:100000000C94FE000C9462010C948E010C94BA01C5
:100010000C941B010C941B010C941B010C941B01F0
:100020000C941B010C941B010C9423030C941B01D6
:100030000C941B010C9428060C941B010C941B01BE
:100040000C941B010C941B010C941B010C941E09B5
:100050000C941B01466F6E747973204943542054ED
:10006000323100526573637565626F7473002323C8
:100070002323232323232323232323232323002373
:100080002323232323232323232323232323230063
:100090000A0A526573637565626F74732054323156
:1000A0000A00646973743336303A0064656C7461B5
:1000B0003A00746F74616C64656C74613A00636FCC
:1000C00073743A000A493243204552524F52202D50
:1000D000205457492053544154453A203078006603
:1000E0006F756E642E004E6F20626561636F6E00E7
:1000F000424541434F4E206F66204C4947485400CB
:100100002A2A2A4265686F6C64207468652A2A2A44
:1001100000626561636F6E004C6F6F6B696E672084
:10012000666F7200005475726E696E6720313830E8
:1001300000005475726E696E6720526967687400BA
:10014000004D6F76696E6720466F7277617264004A
:10015000005475726E696E67204C65667400004CC1
:10016000656176696E672043656C6C0000456E744E
:100170006572696E672043656C6C0050726F6365D1
:10018000737300537461727465642046696E6469A8
:100190006E6700004C3A20202020523A00583A2046
:1001A00020593A2020443A202000506C6163652099
:1001B0006D652061743A00583A2020593A20204455
:1001C0003A2020004272696566696E673A0064658C
:1001D0006272696566696E672E0057616974696E3F
:1001E0006720666F72006272696566696E672E00CD
:1001F00057616974696E6720666F720011241FBEB3
:10020000CFE5D8E0DEBFCDBF10E0A0E6B0E0E2EC85
:10021000FCE202C005900D92AE3AB107D9F715E0A5
:10022000AEEAB0E001C01D92A338B107E1F70E9429
:1002300055010C945F160C9400000E9455050E9415
:10024000C70C80E990E00E949A058FE00E94BD02F1
:100250008FE790E06EE670E00E94FE0484E668E2BC
:1002600070E00E94CC0388E690E00E94F4038AEAE2
:1002700068E270E00E94CC0388E290E00E94F40300
:1002800080E991E00E94F40380E00E94BD0283E6D1
:1002900090E064E570E00E94FE0488EE93E00E9426
:1002A000F40308950E94D40E08950E941D010E9437
:1002B000D40EFDCF0895089508959093650080931E
:1002C000640008951F920F920FB60F9211242F937E
:1002D0003F934F935F936F937F938F939F93AF93CE
:1002E000BF93EF93FF93E0916400F091650009954F
:1002F000FF91EF91BF91AF919F918F917F916F91FE
:100300005F914F913F912F910F900FBE0F901F90D3
:100310001895909363008093620008951F920F9246
:100320000FB60F9211242F933F934F935F936F93C8
:100330007F938F939F93AF93BF93EF93FF93E0913E
:100340006200F09163000995FF91EF91BF91AF9129
:100350009F918F917F916F915F914F913F912F91DD
:100360000F900FBE0F901F9018959093610080938F
:10037000600008951F920F920FB60F9211242F93D1
:100380003F934F935F936F937F938F939F93AF931D
:10039000BF93EF93FF93E0916000F09161000995A6
:1003A000FF91EF91BF91AF919F918F917F916F914D
:1003B0005F914F913F912F910F900FBE0F901F9023
:1003C000189536990AC0806487B986ED86B9369942
:1003D000FECF349A24B135B102C020E030E0C9012B
:1003E00008958FB9779BFECF08958FEF0E94F1019A
:1003F0008FB10895EF92FF92CF93DF930E94F501A2
:10040000982F80E0EC010E94F501282F30E02C2B82
:100410003D2BC901DF91CF91FF90EF9008951F937D
:10042000182F892F0E94F101812F0E94F1011F9145
:100430000895282F392FF90180E005C091919FB9C7
:10044000779BFECF8F5F8617C8F30895282F392F2B
:10045000F90180E09FEF06C09FB9779BFECF2FB1D7
:1004600021938F5F8617C0F30895CF93DF93EC013C
:10047000C09883E00E94F101CE010E940F020E9409
:10048000F501C09ADF91CF910895EF92FF920F93FB
:100490001F93DF93CF930F92CDB7DEB77C018B0113
:1004A000C09883E049830E94F101C7010E940F02B6
:1004B000C8014981642F0E942602C09A0F90CF91F3
:1004C000DF911F910F91FF90EF900895C09886E003
:1004D0000E94F101C09A0895C09884E00E94F10141
:1004E000C09A0895C09885E00E94F1010E94F5012C
:1004F000C09A0895FF920F931F93CF93DF93EC015F
:100500008B01F42E0E94720280FDFCCF0E946602D5
:10051000C09882E00E94F101CE010E940F02C80142
:100520006F2D0E941902C09ADF91CF911F910F91F8
:10053000FF9008951F93CF93DF93EC01162F0E9435
:10054000720280FDFCCF0E946602C09882E00E9489
:10055000F101CE010E940F02812F0E94F101C09A89
:10056000DF91CF911F910895809107050E94F101BD
:10057000949A00000000949808958F709091070558
:10058000907F982B909307050E94B4020895CF9313
:10059000DF9381E00E94E101EC0183E0CC3FD807CA
:1005A00088F400000000000081E00E94E101C80F13
:1005B000D91FD695C795C233D10590F082E0C434D7
:1005C000D80780F082E0CC3BD80770F083E0C631DA
:1005D000D80760F083E0CE33D80750F485E009C037
:1005E00081E007C082E005C083E003C084E001C071
:1005F00080E0DF91CF9108958091AF00882339F09A
:100600000E94C702882341F41092AF0008950E940F
:10061000C7028093AF00089580E008951F93109162
:10062000AE00112339F00E94C702882341F41092D2
:10063000AE0006C00E94C7028093AE0001C010E069
:10064000812F1F9108951F920F920FB60F921124C0
:100650008F939F938091090190910A010196909345
:100660000A0180930901809108058F5F8093080536
:1006700080910905982F9F5F909309058A3008F4AF
:1006800084C08091F60480FF09C08091F7049091A6
:10069000F80401969093F8048093F7048091F6048F
:1006A00081FF09C08091F9049091FA04019690931A
:1006B000FA048093F9048091F60482FF09C08091C6
:1006C000FB049091FC0401969093FC048093FB043E
:1006D0008091F60483FF09C08091FD049091FE048F
:1006E00001969093FE048093FD048091F60484FFAC
:1006F00009C08091FF049091000501969093000538
:100700008093FF048091F60485FF09C08091010564
:1007100090910205019690930205809301058091C6
:10072000F60486FF09C080910305909104050196A7
:1007300090930405809303058091F60487FF09C018
:10074000809105059091060501969093060580938A
:1007500005058091E40480FF16C080910A05909100
:100760000B05009739F415BC8091E4048E7F8093CB
:10077000E40409C080910A0590910B0501979093BC
:100780000B0580930A05109209059F918F910F9098
:100790000FBE0F901F9018959091E4049160909374
:1007A000E40470930B0560930A05809583BD8EE188
:1007B00085BD08959091E4049E7F9093E404982F62
:1007C000909593BD882319F08EE185BD089515BCE1
:1007D00008951092080590E001962091080530E0F8
:1007E00082179307D4F70895CF93DF93EC0104C0E9
:1007F0008AE00E94E90321972097D1F7DF91CF91FA
:100800000895D09AD89881E090E00E94F403D0989F
:100810000895EF92FF92CF93DF9380E00E94E10171
:10082000EC018530910510F00E940104CE01DF91AA
:10083000CF91FF90EF90089502C0000001970097BC
:10084000E1F708958295807F909107059F70982B1E
:10085000909307050E94B402C49A82E390E00E943C
:100860001C04C49808951F93182F82958F700E94BE
:100870002204812F0E94220486E990E00E941C0439
:100880001F910895C39A0E94330482E390E00E946E
:100890001C0408950F931F93DF93CF930F92CDB74E
:1008A000DEB78C01040F111D05C069830E9442044C
:1008B00069816150F80181918F01882311F06623CD
:1008C000A1F70F90CF91DF911F910F910895EF92B3
:1008D000FF92CF93DF93E82EE7017E01F92EE70127
:1008E00002C00E94420489918823D9F7DF91CF91F9
:1008F000FF90EF900895CF93DF93462FC5EED4E09D
:10090000BE0150E00E942E16CE010E946704DF91C6
:10091000CF910895EF92FF920F931F93DF93CF93A0
:10092000CDB7DEB761970FB6F894DEBF0FBECDBF6F
:10093000262FF42E8E010F5F1F4FB801422F50E07B
:100940000E942E16F80101900020E9F73197E01B74
:10095000F10B4F2D4E1BE42E14165CF4EA9480E349
:100960000E9442041E14D4F3CE0101960E94670433
:1009700005C04195C8016F2D0E944A0461960FB6CB
:10098000F894DEBF0FBECDBFCF91DF911F910F91C5
:10099000FF90EF900895CF93DF93EC0102C00E9487
:1009A0004204FE01219684918823C9F7DF91CF91FB
:1009B0000895C3980E94330486E990E00E941C04C5
:1009C00008956068813009F4605C862F0E94D90424
:1009D00008951F93142F0E94E10404C080E20E9436
:1009E000420411501123D1F71F91089581E00E9414
:1009F000D9048CE795E10E941C0408950F931F937E
:100A0000CF93DF938C01EB010E94F604C8010E9492
:100A1000CB0481E060E00E94E104CE010E94CB049F
:100A2000DF91CF911F910F91089583E00E942204DE
:100A300080E596E40E941C0483E00E9422048CE777
:100A400095E10E941C0483E00E9422048CE795E15A
:100A50000E941C0482E00E9422048CE795E10E941F
:100A60001C0488E20E94D9048CE795E10E941C04D2
:100A700088E00E94D9048CE795E10E941C0481E083
:100A80000E94D9048CE795E10E941C0482E00E9438
:100A9000D9048CE795E10E941C048CE00E94D904E3
:100AA0008CE795E10E941C0408951BBA87E088BB7F
:100AB0008CEF85BB81E682BB1ABA8BEB87BB14BA7D
:100AC00082E981BBF89410BC89E189B91BB886E83A
:100AD00080BD88E98AB917B886E186B910BE8FE073
:100AE00085BF1BBE14BE8AE083BF87EC8CBF15BCDC
:100AF0008FEF83BD82E089BF80E58DB981E08EB93B
:100B0000789408955D9BFECF8CB90895EF92FF9283
:100B1000CF93DF93E82EE7017E01F92EE70102C0B3
:100B20000E94820589918823D9F7DF91CF91FF90A8
:100B3000EF900895CF93DF93EC0102C00E948205ED
:100B4000FE01219684918823C9F7DF91CF91089502
:100B50000F931F93DF93CF930F92CDB7DEB78C0126
:100B6000040F111D05C069830E94820569816150CF
:100B7000F80181918F01882311F06623A1F70F906E
:100B8000CF91DF911F910F9108950F931F93DF93E2
:100B9000CF93CDB7DEB761970FB6F894DEBF0FBE27
:100BA000CDBF462F8E010F5F1F4FB80150E00E944E
:100BB0002E16C8010E94860561960FB6F894DEBF16
:100BC0000FBECDBFCF91DF911F910F910895EF928E
:100BD000FF920F931F93DF93CF93CDB7DEB761974B
:100BE0000FB6F894DEBF0FBECDBF262FF42E8E01B8
:100BF0000F5F1F4FB801422F50E00E942E16F801E0
:100C000001900020E9F73197E01BF10B4F2D4E1BAF
:100C1000E42E14165CF4EA9480E30E9482051E140C
:100C2000D4F3CE0101960E94860505C04195C80106
:100C30006F2D0E94A80561960FB6F894DEBF0FBE17
:100C4000CDBFCF91DF911F910F91FF90EF9008954D
:100C50001F920F920FB60F9211242F938F939F9391
:100C6000EF93FF939091B3008091B200292F281B3E
:100C70002032A8F48091B100E82FF0E02CB1E35FBE
:100C8000FA4F20838F5F8093B1009F5F9093B300F2
:100C9000813210F01092B10010920C0506C08CB198
:100CA0008093B50081E080930C05FF91EF919F91B7
:100CB0008F912F910F900FBE0F901F90189510924B
:100CC0000C058091B2009091B3009817A1F08F5F4E
:100CD0008093B2008091B000813210F01092B00089
:100CE0009091B000E92FF0E0E35FFA4F80819F5FC1
:100CF0009093B000089580E008959C0110920C0537
:100D000080E016C04F5F4093B2009091B000E92F91
:100D1000F0E0E35FFA4F4081F901E80FF11D4083F5
:100D20008F5F9F5F9093B000913210F01092B000EF
:100D30004091B2009091B300941B961718F7089554
:100D40008091B3009091B200891B089557988CB19F
:100D50008093B4001092B0001092B1001092B200D3
:100D60001092B30010920C05579A089508950895B3
:100D7000F89480B911B88FEF83B984E086BF809171
:100D8000B60081608093B6007894089590936700D0
:100D90008093660008959093690080936800089599
:100DA000DF93CF930F92CDB7DEB786E98983898130
:100DB000982F915099838823D1F70F90CF91DF918D
:100DC000089506B600FCFDCF2091B60020FF0CC0B0
:100DD000E0EDF0E0DC0170E06E0F7F1F02C081915A
:100DE0008D93E617F707D9F7089506B600FCFDCFF7
:100DF0008091B700089506B600FC5FC08091B600F0
:100E000080FF43C08091BD00882309F456C0813023
:100E100091F40E94D00682E08093BE009091B800C9
:100E20009093BF009091B9009093C0001092B600CB
:100E300095EA96BF15C08230B1F40E94D006809129
:100E4000BA008F5F8093BE008091B800816080936C
:100E5000B8008093BF001092B60085EA86BF83E099
:100E60008093BD000895833041F51092BD008091BC
:100E7000BB009091BC002FEF8F3F9207F1F0E09103
:100E80006600F0916700099508950E94F506882391
:100E9000A1F01092BD009091B60091609093B600C1
:100EA0001092B8001092BC001092BB001092BA00D1
:100EB000E0916800F091690009950895DF93CF9360
:100EC00000D000D0CDB7DEB70AC02C834B836A8335
:100ED00089830E94FB0689816A814B812C8106B639
:100EE00000FCF3CF9091BD00992379F791E09093A6
:100EF000BD006093BB001092BC008093B80040938B
:100F0000B9002093BA000F900F900F900F90CF91DF
:100F1000DF910895DF93CF9300D00F92CDB7DEB766
:100F200008C04B836A8389830E94FB0689816A819A
:100F30004B8106B600FCF5CF9091BD00992389F74F
:100F400092E09093BD008093B8006093BB00109234
:100F5000BC004093BA000F900F900F90CF91DF919B
:100F60000895EF92FF920F931F93DF93CF930F9209
:100F7000CDB7DEB7162F7A01022F04C089830E94F5
:100F8000FB06898106B600FCF9CF9091BD0099233C
:100F9000A9F791E09093BD008093B8008FEF9FEF89
:100FA0009093BC008093BB001093B9000093BA00EB
:100FB00002C00E94FB0606B600FCFBCF8091BD007C
:100FC0008823B9F78091B60080FF05C0602F6F5F5E
:100FD000C7010E94E1060F90CF91DF911F910F9101
:100FE000FF90EF9008950F931F93CF93DF93182FE7
:100FF000EB01042F02C00E94FB0606B600FCFBCFEB
:101000008091BD008823B9F70E94D00682E08093CA
:10101000BD001093B8008FEF9FEF9093BC008093BA
:10102000BB000093BA0002C00E94FB0606B600FC9B
:10103000FBCF8091BD008823B9F78091B60080FF77
:1010400005C0602F6F5FCE010E94E106DF91CF9156
:101050001F910F9108951F93182F02C00E94FB0645
:1010600006B600FCFBCF8091BD008823B9F70E9433
:10107000D00682E08093BD001093B8008FEF9FEF01
:101080009093BC008093BB0081E08093BA0002C0C3
:101090000E94FB068091BD008823D1F78091B600A5
:1010A00080FF03C08091D00001C080E01F910895AF
:1010B0000F931F93182F062F02C00E94FB0606B63F
:1010C00000FCFBCF8091BD008823B9F70E94D006B9
:1010D00082E08093BE001093BF000093C000109286
:1010E000B60085EA86BF1F910F910895FF920F9376
:1010F0001F93182F062FF42E02C00E94FB0606B67F
:1011000000FCFBCF8091BD008823B9F70E94D00678
:1011100083E08093BE001093BF000093C000F09264
:10112000C1001092B60085EA86BF1F910F91FF9013
:101130000895EF92FF920F931F93182F062FF42E0E
:10114000E22E02C00E94FB0606B600FCFBCF809197
:10115000BD008823B9F70E94D00684E08093BE00CA
:101160001093BF000093C000F092C100E092C20053
:101170001092B60085EA86BF1F910F91FF90EF9005
:101180000895DF92EF92FF920F931F93182FF62E80
:10119000E42ED22E02C00E94FB0606B600FCFBCF56
:1011A0008091BD008823B9F70E94D00685E0809326
:1011B000BE001093BF00F092C000E092C100D09238
:1011C000C2000093C3001092B60085EA86BF1F914B
:1011D0000F91FF90EF90DF900895EF92FF920F93A1
:1011E0001F93182F062FF72EE42E02C00E94FB0635
:1011F00006B600FCFBCF8091BD008823B9F70E94A2
:10120000D006E394E092BE001093BF00802F9F2D84
:10121000DC01E0ECF0E04E2D50E04E0F5F1F02C00D
:101220008D918193E417F507D9F71092B60085EAFE
:1012300086BF1F910F91FF90EF9008951F920F921C
:101240000FB60F9211242F933F938F939F93EF9399
:10125000FF9381B18832C9F0893240F4803199F02E
:10126000883199F0883009F04BC00DC0803441F1CD
:10127000813420F4883309F043C03DC08035A9F0A3
:101280008835F1F52BC01092FF008091FF009091FE
:10129000BE00891750F5E82FF0E0E154FF4F908130
:1012A00093B98F5F8093FF0017C08091FF0093B1C7
:1012B000E82FF0E0E153FF4F90838F5F8093FF00B2
:1012C0002091FF0030E08091BE0090E00197281748
:1012D000390714F485EC18C085E816C083B1E09195
:1012E000FF00F0E0E153FF4F80838091B600816002
:1012F0008093B60008C081B18093B70085EA04C02E
:1013000081B18093B70084E986BFFF91EF919F91EF
:101310008F913F912F910F900FBE0F901F901895B6
:1013200008950895089508950895089590936D007F
:1013300080936C00089590937500809374000895D5
:1013400090936F0080936E00089590936B0080934C
:101350006A000895909371008093700008959093AF
:1013600073008093720008958AE063E04FE255E0D5
:1013700028E10E94B10780912F0580935305809149
:1013800030058093590580913105809354058091F3
:1013900032058093660580913305809348058091DE
:1013A0003405809347059091360580E020913505FE
:1013B000820F911D90936505809364059091380587
:1013C00080E020913705820F911D90935F058093F7
:1013D0005E0590913A0580E020913905820F911DBC
:1013E000909358058093570590913C0580E020919B
:1013F0003B05820F911D90935C0580935B05909156
:101400003E0580E020913D05820F911D90936B0574
:1014100080936A059091400580E020913F05820FFE
:10142000911D90936305809362059091420580E041
:1014300020914105820F911D909369058093680565
:101440009091440580E020914305820F911D909377
:101450006105809360059091460580E020914505E7
:10146000820F911D909356058093550508958091A4
:101470000001882359F4829B09C081E08093000118
:101480008AE060E040E023E00E945E0708950F9349
:101490001F93DF93CF9300D0CDB7DEB7882309F039
:1014A00092C08CE695E063E00E94E10620916C0515
:1014B0000091080102272093080110E0C8018076FE
:1014C0009070009789F0822F829586958170809325
:1014D0005A05229526952695217020935D05E09169
:1014E0006A00F0916B000995C801867090700097B2
:1014F00089F080910801982F9695917090932E0510
:1015000086958695817080936705E0916C00F091D7
:101510006D00099503FF1CC08AE06BE10E9458082A
:101520008AE0BE016F5F7F4F42E00E94F307E091C7
:101530006E00F0916F00298130E086E0220F331FAA
:101540008A95E1F78A8190E0282B392BC90109950A
:1015500000FF1DC08AE065E10E9458088AE0BE01D4
:101560006F5F7F4F42E00E94F3073A8120E089815C
:1015700090E0822B932B909369058093680580916E
:101580000801E0917000F0917100817009958091DF
:101590006D058093E30483FF05C0E0917200F09134
:1015A0007300099580916E0580930B01809108016D
:1015B00087FF05C0E0917400F091750009951092C5
:1015C000000181E001C080E00F900F90CF91DF918A
:1015D0001F910F91089502C00E94FB0606B600FC01
:1015E000FBCF8091BD008823B9F786E090E00E9490
:1015F000F4030E94370A02C00E94FB0606B600FCF4
:10160000FBCF8091BD008823B9F708950F93282F51
:10161000062F8AE060E045E00E94C10802C00E94F7
:10162000FB0606B600FCFBCF8091BD008823B9F70E
:101630000F910895282F8AE060E046E00E94990803
:1016400002C00E94FB0606B600FCFBCF8091BD00E5
:101650008823B9F708958AE060E044E00E947608A4
:101660000E94EB0A0895DF93CF930F92CDB7DEB7B8
:101670001092490598E090934A0580934B0560933A
:101680004C0550934D0540934E058AE069E475E0A2
:1016900046E029830E94ED080E94EB0A298122235B
:1016A00049F004C00E94370A0E94FB0680910B019A
:1016B00080FFF8CF0F90CF91DF910895DF93CF9304
:1016C0000F92CDB7DEB71092490597E090934A0587
:1016D00080934B0560934C0550934D0540934E0508
:1016E0008AE069E475E046E029830E94ED080E94E3
:1016F000EB0A2981222349F004C00E94370A0E9484
:10170000FB0680910B0180FFF8CF0F90CF91DF9106
:10171000089584E66AE070E00E94CC030E944F14B2
:101720000E94CA128091010190910201019690934A
:101730000201809301010E94CA148CED95E00E9481
:10174000F4032091F6023091F7028091010190910B
:1017500002012817390731F481E0809307010E94C4
:10176000D31402C00E94DC142091F802213069F1E8
:10177000213038F0223009F44CC0233009F094C0F5
:101780006EC08091010190910201FC01EE0FFF1FDC
:10179000AC0163E0440F551F6A95E1F7E40FF51FB4
:1017A000E750FD4F0197DC01AA0FBB1F33E0880F04
:1017B000991F3A95E1F7A80FB91FA750BD4F16968C
:1017C0008D919C911797019747C08091010190914D
:1017D0000201FC01EE0FFF1FAC0163E0440F551F37
:1017E0006A95E1F7E40FF51FE750FD4F0197DC0123
:1017F000AA0FBB1F33E0880F991F3A95E1F7A80F96
:10180000B91FA750BD4F14968D919C9115970196C5
:1018100049C08091010190910201FC01EE0FFF1F70
:10182000AC0163E0440F551F6A95E1F7E40FF51F23
:10183000E750FD4F0197DC01AA0FBB1F33E0880F73
:10184000991F3A95E1F7A80FB91FA750BD4F1696FB
:101850008D919C91179701969783868325C08091DF
:10186000010190910201FC01EE0FFF1FAC0173E03A
:10187000440F551F7A95E1F7E40FF51FE750FD4F30
:101880000197DC01AA0FBB1F53E0880F991F5A95DF
:10189000E1F7A80FB91FA750BD4F14968D919C91E9
:1018A000159701979583848380910101909102019E
:1018B000FC01EE0FFF1F33E0880F991F3A95E1F707
:1018C000E80FF91FE750FD4F218708950F931F93ED
:1018D000CF93DF930E9458140E94CA128CE291E0C9
:1018E0000E94F403709101016091020129EF32E03E
:1018F000472F562FCA01880F991FA3E0440F551F89
:10190000AA95E1F7840F951F820F931F472F562F3B
:10191000EA01CC0FDD1FE3E0440F551FEA95E1F724
:10192000C40FD51FC20FD31F472F562FDA01AA0F9E
:10193000BB1F13E0440F551F1A95E1F7A40FB51F05
:10194000A20FB31F472F562F8A01000F111FE3E08C
:10195000440F551FEA95E1F7040F151F020F131FDF
:10196000FC018081698112964C91F80123810E94CB
:101970008C148CE291E00E94F40388E26AE070E04B
:101980000E94CC03DF91CF911F910F9108950E9487
:1019900015050E94DE110E94F10E0E9493120E9412
:1019A00066108091FD026091FF024091F8020E9452
:1019B000F1130E94C7028823E1F381E080937E0542
:1019C0000895FC0180819181FB0120813181821B7E
:1019D000930B9C01B901882777FD8095982F0E9471
:1019E00018159B01AC010E947C150E94E514CB01E7
:1019F00062E070E00E941B16CB0108952F923F9287
:101A00004F925F926F927F928F929F92AF92BF920E
:101A1000CF92DF92EF92FF920F931F93DF93CF93BA
:101A2000CDB7DEB760970FB6F894DEBF0FBECDBF5F
:101A300084E065E00E9428128C0183E065E00E944A
:101A400028127C0185E065E00E9428126C0182E08A
:101A500065E00E9428121A830983FC82EB82DE82F1
:101A6000CD8298878F83409178005091790088E2E9
:101A700062E021E00E945E0BCC24DD2418E2812E7E
:101A800013E2912EAA24BB2402E010E01E01089468
:101A9000211C311C01C0470184E065E00E9428122E
:101AA0007C0183E065E00E9428123C0185E065E04E
:101AB0000E9428122C0182E065E00E942812FA861A
:101AC000E9867C866B865E864D86988B8F87CE01F5
:101AD0000996B1010E94E10C7C018EEB90E00E941E
:101AE0009A05C7016AE00E94C50586E790E00E945A
:101AF00086051016110614F462E001C063E0A80127
:101B000017FF04C044275527401B510B88E221E0F2
:101B10000E945E0BA00EB11E82EB90E00E949A051F
:101B2000C5016AE00E94C50586E790E00E9486052F
:101B3000C114D10461F194012E193F09C90137FF85
:101B400004C088279927821B930B60E570E00E94F0
:101B50001B1637FD03C081E090E002C08FEF9FEFBE
:101B6000869F8001879F100D969F100D11248BEA90
:101B700090E00E949A05C8016AE00E94C50586E7C8
:101B800090E00E9486058AE0E816F10444F008948B
:101B9000C11CD11C84E6C816D10409F07CCF0A0D03
:101BA0001B1D8091780090917900800F911F909378
:101BB00079008093780082EA90E00E949A058091F3
:101BC0007800909179006AE00E94C50586E790E070
:101BD0000E94860560960FB6F894DEBF0FBECDBF9B
:101BE000CF91DF911F910F91FF90EF90DF90CF90F9
:101BF000BF90AF909F908F907F906F905F904F902D
:101C00003F902F900895DF92EF92FF920F931F93D2
:101C10000E94461413E0FF24F39402E091C00E9456
:101C2000BF0E0E944D12D82E0E948312E82E0E94F1
:101C30006812DD20C9F48091010190910201FC013C
:101C4000EE0FFF1FA3E0880F991FAA95E1F7E80F99
:101C5000F91FE750FD4F10860E94660C80E00E943D
:101C600061140E941B105EC0EE20B9F48091010146
:101C700090910201FC01EE0FFF1F63E0880F991F96
:101C80006A95E1F7E80FF91FE750FD4F00870E94C2
:101C9000660C82E00E9461144FC0309101012091D6
:101CA00002018823F9F4832F922FFC01EE0FFF1F0E
:101CB00043E0880F991F4A95E1F7E80FF91FE750B5
:101CC000FD4FF0860E94660C81E00E9461140E9424
:101CD00031108091F802833019F41092F8022CC070
:101CE0008F5F28C0832F922FFC01EE0FFF1F23E090
:101CF000880F991F2A95E1F7E80FF91FE750FD4F6C
:101D000010870E94660C83E00E9461140E944710B5
:101D10008091F802882319F41093F80203C08150CF
:101D20008093F8028091F802882319F41093F80246
:101D300003C081508093F8020E94FC0E0E94890B20
:101D400080910701882309F46ACF80910101909165
:101D5000020190930401809303011F910F91FF9062
:101D6000EF90DF9008950E94BF0EFDCF0E942B0BD5
:101D700010927E05109281050E949A1008950E948B
:101D8000C702882381F090917E0581E0923009F0AE
:101D900080E080937A0081E0933009F080E08093C6
:101DA0007B000E94B60E089580917E05823041F03E
:101DB000833061F0813081F40E94FE0C82E003C028
:101DC0000E94030E83E080937E0506C00E94B30E3E
:101DD00010927E050E94B60E0E94C5120E94FB0E54
:101DE000089583E08093810580EA90E090938005D8
:101DF00080937F05089508954F925F927F928F920E
:101E00009F92AF92BF92CF92DF92EF92FF920F9389
:101E10001F93CF93DF9381E08093810540917C00F5
:101E200050917D0080917E0060E020E00E945E0B7A
:101E300084E690E00E94F403AA24BB248824992419
:101E400082E0482E512CD7C085E06AE00E9428121B
:101E50006C0182E06AE00E9428128C0184E06AE052
:101E60000E9428127C0183E06AE00E942812FC0193
:101E70008091A3009091A40077247394C816D9068A
:101E800008F4772441E00817190708F440E031E02E
:101E9000E816F90608F430E021E0E817F90708F43D
:101EA00020E0772079F1442369F1C601801B910B72
:101EB00060917F00709180000E940716EB01332330
:101EC00059F0C6018E199F096091810070918200BE
:101ED0000E9407164B011BC0609181007091820027
:101EE000222321F0C8018E1B9F0B08C080917F0523
:101EF000909180059601281B390BC9010E94071695
:101F00004B0196C0332309F48FC0C0E0D0E02223F8
:101F100009F48EC0C7018E1B9F0B60917F007091EA
:101F200080000E9407169B01772069F0C7018C1979
:101F30009D0960918100709182000E9407165B01EB
:101F40004423B9F448C06091810070918200442319
:101F500021F0CF01801B910B08C080917F059091EB
:101F60008005A701481B590BCA010E9407165B0197
:101F700032C0CF01800F911FB2010E941B16FB01DE
:101F8000C7018C0D9D1DB2010E941B16E60FF71FA5
:101F9000CF01B2010E941B167093800560937F05EC
:101FA0001AC02223A1F0442391F0209181003091A6
:101FB0008200C8018E1B9F0BB9010E9407164B01BE
:101FC000CF01801B910BB9010E9407165B0120E035
:101FD00030E0C0E0D0E080917E00AE01480D622F7D
:101FE0006A0D680F840F0E94060B0E94370A0E9438
:101FF000FB060E94BF0E80910B0180FF25CF0E943F
:102000002B0B83E080938105DF91CF911F910F917E
:10201000FF90EF90DF90CF90BF90AF909F908F9008
:102020007F905F904F900895772009F4BACFCFCF7B
:1020300020E030E0D0CF82E080938105809178006D
:102040009091790069E170E00E941B16AB018091CC
:102050007E0062E021E00E94330B83E080938105E3
:10206000089582E0809381058091780090917900B5
:1020700069E170E00E941B16AB0180917E0063E075
:1020800021E00E94330B83E080938105089582E074
:10209000809381058091780090917900880F991F35
:1020A00069E170E00E941B16AB0180917E0062E046
:1020B00021E00E94330B83E08093810508950E9404
:1020C000A0068823E1F30E945F0608951F93DF9323
:1020D000CF930F92CDB7DEB70E94A6060E94AB1336
:1020E00081E0809382050E945F10182F0E945F108C
:1020F00089830E945F10482F8093F8021093FD029D
:102100001092FE0269816093FF0210920003809397
:102110000203812F90E070E050E00E94BD13109206
:10212000820588EE93E00E94F4030F90CF91DF9137
:102130001F910895EF92FF920F931F93CF93DF9318
:102140000E94A60682E0809382050E94B4130E943A
:102150005F108AE090E00E94F40309EF12E0E801CA
:10216000EE24FF245CC08881882319F083E890E086
:1021700002C086E890E00E9486058AE00E948205FF
:102180008981882319F089E890E002C08CE890E00A
:102190000E9486058AE00E9482058A81882319F0C0
:1021A0008FE890E002C082E990E00E9486058AE014
:1021B0000E9482058B81882319F085E990E002C096
:1021C00088E990E00E9486058AE00E9482058C8161
:1021D0009D816AE042E00E94E7058AE00E94820554
:1021E0008E819F816AE042E00E94E7058AE00E94BA
:1021F0008205888590E06AE042E00E94E7058AE077
:102200000E948205898590E06AE042E00E94E7052D
:102210008AE00E9482050894E11CF11C2A968091B4
:102220000301909104018E159F050CF09CCF8091C5
:102230007A00882309F46EC00E945F108AE090E063
:102240000E94F403C0E0D0E059C0F80180818823E7
:1022500019F083E890E002C086E890E00E948605CD
:102260008AE00E948205F8018181882319F089E8BB
:1022700090E002C08CE890E00E9486058AE00E940F
:102280008205F8018281882319F08FE890E002C06E
:1022900082E990E00E9486058AE00E948205F801AA
:1022A0008381882319F085E990E002C088E990E0F5
:1022B0000E9486058AE00E948205F801848195814A
:1022C0006AE042E00E94E7058AE00E948205F80188
:1022D000868197816AE042E00E94E7058AE00E94D9
:1022E0008205F801808590E06AE042E00E94E705FF
:1022F0008AE00E9482052196065F1F4F80910501AA
:10230000909106018C179D070CF09FCF80917B0068
:10231000882329F486E40E94820510928205DF91C9
:10232000CF911F910F91FF90EF900895823699F011
:10233000833618F48136E9F405C0833631F08436EB
:10234000C1F406C0E0E0F0E008C0E2E0F0E005C063
:10235000E3E0F0E002C0E1E0F0E0E556FF4F41309D
:1023600021F48081862B8083089560958081862367
:1023700080830895823699F0833618F48136E9F423
:1023800005C0833631F08436C1F406C0E0E0F0E0E9
:1023900008C0E2E0F0E005C0E3E0F0E002C0E1E008
:1023A000F0E0E156FF4F413021F48081862B80839D
:1023B0000895609580818623808308958AB38093F1
:1023C0009B0087B380939C0084B380939D0081B36E
:1023D00080939E008BB380939F0088B38093A0006E
:1023E00085B38093A10082B38093A200089583E017
:1023F0008093810580910101909102019093F702F1
:102400008093F602089580918105813069F480916E
:102410005A05882349F080915D05882329F08EEBC9
:1024200064E670E00E94CC0308951F93182F84EC9B
:1024300090E00E949A05812F90E060E10E94C5051E
:102440008AE00E9482051F9108950E94470A08951C
:10245000EF92FF920F931F93DF93CF930F92CDB71D
:10246000DEB7182F062FEE24FF2408C0812F6983C2
:102470000E94E101E80EF91E015069810023B1F7C5
:10248000C70170E00E940716CB010F90CF91DF913A
:102490001F910F91FF90EF900895CF93DF9385E008
:1024A0000E94E101EC0182E00E94E101282F392F16
:1024B0002C173D0708F49E0181E04091A300509144
:1024C000A4002417350708F480E0DF91CF91089528
:1024D000CF93DF9384E00E94E101EC0183E00E944E
:1024E000E101282F392F2C173D0708F49E0181E0C8
:1024F0004091A3005091A4002417350708F480E010
:10250000DF91CF91089580915A05882349F081E0A9
:1025100090E020915D05222329F480E090E0089569
:1025200080E090E0089583E092E10E94A50987EFA2
:1025300091E10E94920988E40E94B80685E192E147
:102540000E94CB0685E292E10E94C60688EE93E0E7
:102550000E94F4038AE060E049E022E00E949908CA
:1025600081E660E240E00E94961181E660E140E091
:102570000E94961181E668E040E00E94961181E693
:1025800064E040E00E94961108950E94370A0E947C
:10259000FB0608950F931F930E944D12082F0E946F
:1025A0008312182F0E9468129091F8029130D9F18D
:1025B000913038F0923009F468C0933009F0C8C007
:1025C00096C04091010190910201242F392FF90109
:1025D000EE0FFF1F63E0220F331F6A95E1F7E20F52
:1025E000F31FE750FD4F0383242F392FF901EE0F1E
:1025F000FF1F03E0220F331F0A95E1F7E20FF31FDD
:10260000E750FD4F1083242F392FF901EE0FFF1FE4
:10261000A3E0220F331FAA95E1F7E20FF31FE75063
:10262000FD4F818395C04091010190910201242FBB
:10263000392FF901EE0FFF1F63E0220F331F6A9558
:10264000E1F7E20FF31FE750FD4F0083242F392FEE
:10265000F901EE0FFF1F03E0220F331F0A95E1F788
:10266000E20FF31FE750FD4F1183242F392FF9019B
:10267000EE0FFF1FA3E0220F331FAA95E1F7E20F31
:10268000F31FE750FD4F828363C040910101909199
:102690000201242F392FF901EE0FFF1F63E0220FF3
:1026A000331F6A95E1F7E20FF31FE750FD4F0183F7
:1026B000242F392FF901EE0FFF1F03E0220F331FE4
:1026C0000A95E1F7E20FF31FE750FD4F1283242F25
:1026D000392FF901EE0FFF1FB3E0220F331FBA9518
:1026E000E1F7E20FF31FE750FD4F838331C04091C4
:1026F000010190910201242F392FF901EE0FFF1FE4
:1027000073E0220F331F7A95E1F7E20FF31FE750D2
:10271000FD4F0283242F392FF901EE0FFF1F53E0E5
:10272000220F331F5A95E1F7E20FF31FE750FD4FD9
:102730001383242F392FF901EE0FFF1F93E0220F8F
:10274000331F9A95E1F7E20FF31FE750FD4F8083A7
:102750001F910F9108950E94F60480EF91E066EEBC
:1027600071E00E94FE0408950E94F6048AED91E053
:102770006EEC71E00E94FE0408950F931F93DF93A7
:10278000CF930F92CDB7DEB7082F162F49830E9443
:10279000F60484EC91E067EB71E00E94FE0481E0B6
:1027A00063E00E94E104802F90E06AE00E947B04D5
:1027B00081E067E00E94E104812F90E06AE00E94DE
:1027C0007B0481E06BE00E94E1044981842F90E06A
:1027D0006AE00E947B040F90CF91DF911F910F91CF
:1027E00008950F931F93DF93CF930F92CDB7DEB76A
:1027F000082F162F49830E94F6048AEA91E06DE9BA
:1028000071E00E94FE0481E063E00E94E104802FF9
:1028100090E06AE00E947B0481E067E00E94E104AE
:10282000812F90E06AE00E947B0481E06BE00E94CF
:10283000E1044981842F90E06AE00E947B040F90BC
:10284000CF91DF911F910F9108950F931F93082F40
:10285000162F0E94F60484E991E063E971E00E947A
:10286000FE0481E063E00E94E104802F90E06AE0D2
:102870000E947B0481E06AE00E94E104812F90E0E5
:102880006AE00E947B041F910F9108950E94F60454
:1028900083E891E06BE771E00E94FE0408950E94D6
:1028A000F6048DE691E06CE671E00E94FE04089566
:1028B0000E94F6048FE591E06EE571E00E94FE044F
:1028C0000895DF93CF930F92CDB7DEB789830E942F
:1028D000F6048981813089F0813028F0823041F01E
:1028E0008330B1F40FC081E591E060E571E00EC086
:1028F00081E491E060E471E009C082E391E061E38A
:1029000071E004C085E291E064E271E00E94FE049F
:102910000F90CF91DF910895FF920F931F93DF9354
:10292000CF930F92CDB7DEB7162F042FF22E8983E7
:102930000E94F6048981882341F080E068E00E94CB
:10294000E10485EA90E00E946704112341F081E0F0
:1029500060E00E94E10487EA90E00E94670400239F
:1029600041F081E068E00E94E10489EA90E00E9481
:102970006704FF2041F081E06FE00E94E1048BEAF0
:1029800090E00E9467040F90CF91DF911F910F910B
:10299000FF9008950E94F60488E191E061E171E002
:1029A0000E94FE0408950E94F60480E091E060EF2A
:1029B00070E00E94FE0408950E94F60486EE90E006
:1029C0006FED70E00E94FE04089504D06894B11188
:1029D0008DC0089570D088F09F5790F0B92F992737
:1029E000B751A0F0D1F0660F771F881F991F1AF01A
:1029F000BA95C9F712C0B13081F077D0B1E008952F
:102A000074C0672F782F8827B85F39F0B93FCCF3AF
:102A1000869577956795B395D9F73EF4909580950F
:102A2000709561957F4F8F4F9F4F0895E89409C02F
:102A300097FB3EF490958095709561957F4F8F4FF1
:102A40009F4F9923A9F0F92F96E9BB279395F69507
:102A5000879577956795B795F111F8CFFAF4BB0F85
:102A600011F460FF1BC06F5F7F4F8F4F9F4F16C0E9
:102A7000882311F096E911C0772321F09EE8872F73
:102A8000762F05C0662371F096E8862F70E060E02F
:102A90002AF09A95660F771F881FDAF7880F9695A8
:102AA000879597F9089557FD9058440F551F59F091
:102AB0005F3F71F04795880F97FB991F61F09F3F2B
:102AC00079F087950895121613061406551FF2CF54
:102AD0004695F1DF08C0161617061806991FF1CFA4
:102AE00086957105610508940895E894BB276627CB
:102AF0007727CB0197F908950BD078C069D028F0DB
:102B00006ED018F0952309F05AC05FC01124EECFA3
:102B1000CADFA0F3959FD1F3950F50E0551F629F38
:102B2000F001729FBB27F00DB11D639FAA27F00D26
:102B3000B11DAA1F649F6627B00DA11D661F829F4D
:102B40002227B00DA11D621F739FB00DA11D621F32
:102B5000839FA00D611D221F749F3327A00D611D4F
:102B6000231F849F600D211D822F762F6A2F112431
:102B70009F5750408AF0E1F088234AF0EE0FFF1F84
:102B8000BB1F661F771F881F91505040A9F79E3FBB
:102B9000510570F014C0AACF5F3FECF3983EDCF310
:102BA000869577956795B795F795E7959F5FC1F7F8
:102BB000FE2B880F911D9695879597F9089597F9A3
:102BC0009F6780E870E060E008959FEF80EC0895D3
:102BD00000240A94161617061806090608950024FC
:102BE0000A9412161306140605060895092E039476
:102BF000000C11F4882352F0BB0F40F4BF2B11F4EA
:102C000060FF04C06F5F7F4F8F4F9F4F0895AA1BD7
:102C1000BB1B51E107C0AA1FBB1FA617B70710F0C7
:102C2000A61BB70B881F991F5A95A9F780959095F9
:102C3000BC01CD01089597FB092E07260AD077FD28
:102C400004D0E5DF06D000201AF4709561957F4F1F
:102C50000895F6F7909581959F4F0895FB019F0188
:102C6000E8944230C4F04532B4F44A3029F497FB7A
:102C70001EF4909581959F4F642F77270E94071629
:102C8000805D8A330CF0895D8193CB010097A1F7B9
:102C900016F45DE251931082C9010C944F16DC01C9
:102CA000FC01672F71917723E1F7329704C07C9183
:102CB0006D9370836291AE17BF07C8F30895F894BF
:022CC000FFCF44
:102CC2005C015B015A01B606B706930990099209A5
:102CD2009409950991090A00B0090101080728051C
:102CE2000008004E59004E4E00455900454E005313
:102CF2005900534E00575900574E000B0000000B6D
:0E2D020000000078004E00450053005700000E
:00000001FF
