:100000000C94FE000C9462010C948E010C94BA01C5
:100010000C941B010C941B010C941B010C941B01F0
:100020000C941B010C941B010C9423030C941B01D6
:100030000C941B010C9428060C941B010C941B01BE
:100040000C941B010C941B010C941B010C941E09B5
:100050000C941B01466F6E747973204943542054ED
:10006000323100526573637565626F7473002323C8
:100070002323232323232323232323232323002373
:100080002323232323232323232323232323230063
:100090000A0A526573637565626F74732054323156
:1000A0000A00646973743336303A0064656C7461B5
:1000B0003A00746F74616C64656C74613A00636FCC
:1000C00073743A000A493243204552524F52202D50
:1000D000205457492053544154453A203078006603
:1000E0006F756E642E004E6F20626561636F6E00E7
:1000F000424541434F4E206F66204C4947485400CB
:100100002A2A2A4265686F6C64207468652A2A2A44
:1001100000626561636F6E004C6F6F6B696E672084
:10012000666F7200005475726E696E6720313830E8
:1001300000005475726E696E6720526967687400BA
:10014000004D6F76696E6720466F7277617264004A
:10015000005475726E696E67204C65667400004CC1
:10016000656176696E672043656C6C0000456E744E
:100170006572696E672043656C6C0050726F6365D1
:10018000737300537461727465642046696E6469A8
:100190006E6700004C3A20202020523A00583A2046
:1001A00020593A2020443A202000506C6163652099
:1001B0006D652061743A00583A2020593A20204455
:1001C0003A2020004272696566696E673A0064658C
:1001D0006272696566696E672E0057616974696E3F
:1001E0006720666F72006272696566696E672E00CD
:1001F00057616974696E6720666F720011241FBEB3
:10020000CFE5D8E0DEBFCDBF10E0A0E6B0E0E2EB86
:10021000F5E302C005900D92AE3AB107D9F715E0AB
:10022000AEEAB0E001C01D92A538B107E1F70E9427
:1002300055010C94D71A0C9400000E9455050E9499
:10024000BC0D80E990E00E949A058FE00E94BD02FB
:100250008FE790E06EE670E00E94FE0484E668E2BC
:1002600070E00E94CC0388E690E00E94F4038AEAE2
:1002700068E270E00E94CC0388E290E00E94F40300
:1002800080E991E00E94F40380E00E94BD0283E6D1
:1002900090E064E570E00E94FE0488EE93E00E9426
:1002A000F40308950E945A1208950E941D010E94AD
:1002B0005A12FDCF08950895089590936500809394
:1002C000640008951F920F920FB60F9211242F937E
:1002D0003F934F935F936F937F938F939F93AF93CE
:1002E000BF93EF93FF93E0916400F091650009954F
:1002F000FF91EF91BF91AF919F918F917F916F91FE
:100300005F914F913F912F910F900FBE0F901F90D3
:100310001895909363008093620008951F920F9246
:100320000FB60F9211242F933F934F935F936F93C8
:100330007F938F939F93AF93BF93EF93FF93E0913E
:100340006200F09163000995FF91EF91BF91AF9129
:100350009F918F917F916F915F914F913F912F91DD
:100360000F900FBE0F901F9018959093610080938F
:10037000600008951F920F920FB60F9211242F93D1
:100380003F934F935F936F937F938F939F93AF931D
:10039000BF93EF93FF93E0916000F09161000995A6
:1003A000FF91EF91BF91AF919F918F917F916F914D
:1003B0005F914F913F912F910F900FBE0F901F9023
:1003C000189536990AC0806487B986ED86B9369942
:1003D000FECF349A24B135B102C020E030E0C9012B
:1003E00008958FB9779BFECF08958FEF0E94F1019A
:1003F0008FB10895EF92FF92CF93DF930E94F501A2
:10040000982F80E0EC010E94F501282F30E02C2B82
:100410003D2BC901DF91CF91FF90EF9008951F937D
:10042000182F892F0E94F101812F0E94F1011F9145
:100430000895282F392FF90180E005C091919FB9C7
:10044000779BFECF8F5F8617C8F30895282F392F2B
:10045000F90180E09FEF06C09FB9779BFECF2FB1D7
:1004600021938F5F8617C0F30895CF93DF93EC013C
:10047000C09883E00E94F101CE010E940F020E9409
:10048000F501C09ADF91CF910895EF92FF920F93FB
:100490001F93DF93CF930F92CDB7DEB77C018B0113
:1004A000C09883E049830E94F101C7010E940F02B6
:1004B000C8014981642F0E942602C09A0F90CF91F3
:1004C000DF911F910F91FF90EF900895C09886E003
:1004D0000E94F101C09A0895C09884E00E94F10141
:1004E000C09A0895C09885E00E94F1010E94F5012C
:1004F000C09A0895FF920F931F93CF93DF93EC015F
:100500008B01F42E0E94720280FDFCCF0E946602D5
:10051000C09882E00E94F101CE010E940F02C80142
:100520006F2D0E941902C09ADF91CF911F910F91F8
:10053000FF9008951F93CF93DF93EC01162F0E9435
:10054000720280FDFCCF0E946602C09882E00E9489
:10055000F101CE010E940F02812F0E94F101C09A89
:10056000DF91CF911F91089580910A050E94F101BA
:10057000949A00000000949808958F7090910A0555
:10058000907F982B90930A050E94B4020895CF9310
:10059000DF9381E00E94E101EC0183E0CC3FD807CA
:1005A00088F400000000000081E00E94E101C80F13
:1005B000D91FD695C795C233D10590F082E0C434D7
:1005C000D80780F082E0CC3BD80770F083E0C631DA
:1005D000D80760F083E0CE33D80750F485E009C037
:1005E00081E007C082E005C083E003C084E001C071
:1005F00080E0DF91CF9108958091AF00882339F09A
:100600000E94C702882341F41092AF0008950E940F
:10061000C7028093AF00089580E008951F93109162
:10062000AE00112339F00E94C702882341F41092D2
:10063000AE0006C00E94C7028093AE0001C010E069
:10064000812F1F9108951F920F920FB60F921124C0
:100650008F939F9380910B0190910C010196909341
:100660000C0180930B0180910B058F5F80930B052C
:1006700080910C05982F9F5F90930C058A3008F4A9
:1006800084C08091F90480FF09C08091FA049091A0
:10069000FB0401969093FB048093FA048091F90483
:1006A00081FF09C08091FC049091FD040196909314
:1006B000FD048093FC048091F90482FF09C08091BD
:1006C000FE049091FF0401969093FF048093FE0432
:1006D0008091F90483FF09C0809100059091010584
:1006E000019690930105809300058091F90484FFA1
:1006F00009C080910205909103050196909303052E
:10070000809302058091F90485FF09C0809104055A
:1007100090910505019690930505809304058091BD
:10072000F90486FF09C0809106059091070501969E
:1007300090930705809306058091F90487FF09C00F
:100740008091080590910905019690930905809381
:1007500008058091E70480FF16C080910D059091F7
:100760000E05009739F415BC8091E7048E7F8093C5
:10077000E70409C080910D0590910E0501979093B3
:100780000E0580930D0510920C059F918F910F908F
:100790000FBE0F901F9018959091E7049160909371
:1007A000E70470930E0560930D05809583BD8EE17F
:1007B00085BD08959091E7049E7F9093E704982F5C
:1007C000909593BD882319F08EE185BD089515BCE1
:1007D000089510920B0590E0019620910B0530E0F2
:1007E00082179307D4F70895CF93DF93EC0104C0E9
:1007F0008AE00E94E90321972097D1F7DF91CF91FA
:100800000895D09AD89881E090E00E94F403D0989F
:100810000895EF92FF92CF93DF9380E00E94E10171
:10082000EC018530910510F00E940104CE01DF91AA
:10083000CF91FF90EF90089502C0000001970097BC
:10084000E1F708958295807F90910A059F70982B1B
:1008500090930A050E94B402C49A82E390E00E9439
:100860001C04C49808951F93182F82958F700E94BE
:100870002204812F0E94220486E990E00E941C0439
:100880001F910895C39A0E94330482E390E00E946E
:100890001C0408950F931F93DF93CF930F92CDB74E
:1008A000DEB78C01040F111D05C069830E9442044C
:1008B00069816150F80181918F01882311F06623CD
:1008C000A1F70F90CF91DF911F910F910895EF92B3
:1008D000FF92CF93DF93E82EE7017E01F92EE70127
:1008E00002C00E94420489918823D9F7DF91CF91F9
:1008F000FF90EF900895CF93DF93462FC8EED4E09A
:10090000BE0150E00E94A61ACE010E946704DF914A
:10091000CF910895EF92FF920F931F93DF93CF93A0
:10092000CDB7DEB761970FB6F894DEBF0FBECDBF6F
:10093000262FF42E8E010F5F1F4FB801422F50E07B
:100940000E94A61AF80101900020E9F73197E01BF8
:10095000F10B4F2D4E1BE42E14165CF4EA9480E349
:100960000E9442041E14D4F3CE0101960E94670433
:1009700005C04195C8016F2D0E944A0461960FB6CB
:10098000F894DEBF0FBECDBFCF91DF911F910F91C5
:10099000FF90EF900895CF93DF93EC0102C00E9487
:1009A0004204FE01219684918823C9F7DF91CF91FB
:1009B0000895C3980E94330486E990E00E941C04C5
:1009C00008956068813009F4605C862F0E94D90424
:1009D00008951F93142F0E94E10404C080E20E9436
:1009E000420411501123D1F71F91089581E00E9414
:1009F000D9048CE795E10E941C0408950F931F937E
:100A0000CF93DF938C01EB010E94F604C8010E9492
:100A1000CB0481E060E00E94E104CE010E94CB049F
:100A2000DF91CF911F910F91089583E00E942204DE
:100A300080E596E40E941C0483E00E9422048CE777
:100A400095E10E941C0483E00E9422048CE795E15A
:100A50000E941C0482E00E9422048CE795E10E941F
:100A60001C0488E20E94D9048CE795E10E941C04D2
:100A700088E00E94D9048CE795E10E941C0481E083
:100A80000E94D9048CE795E10E941C0482E00E9438
:100A9000D9048CE795E10E941C048CE00E94D904E3
:100AA0008CE795E10E941C0408951BBA87E088BB7F
:100AB0008CEF85BB81E682BB1ABA8BEB87BB14BA7D
:100AC00082E981BBF89410BC89E189B91BB886E83A
:100AD00080BD88E98AB917B886E186B910BE8FE073
:100AE00085BF1BBE14BE8AE083BF87EC8CBF15BCDC
:100AF0008FEF83BD82E089BF80E58DB981E08EB93B
:100B0000789408955D9BFECF8CB90895EF92FF9283
:100B1000CF93DF93E82EE7017E01F92EE70102C0B3
:100B20000E94820589918823D9F7DF91CF91FF90A8
:100B3000EF900895CF93DF93EC0102C00E948205ED
:100B4000FE01219684918823C9F7DF91CF91089502
:100B50000F931F93DF93CF930F92CDB7DEB78C0126
:100B6000040F111D05C069830E94820569816150CF
:100B7000F80181918F01882311F06623A1F70F906E
:100B8000CF91DF911F910F9108950F931F93DF93E2
:100B9000CF93CDB7DEB761970FB6F894DEBF0FBE27
:100BA000CDBF462F8E010F5F1F4FB80150E00E944E
:100BB000A61AC8010E94860561960FB6F894DEBF9A
:100BC0000FBECDBFCF91DF911F910F910895EF928E
:100BD000FF920F931F93DF93CF93CDB7DEB761974B
:100BE0000FB6F894DEBF0FBECDBF262FF42E8E01B8
:100BF0000F5F1F4FB801422F50E00E94A61AF80164
:100C000001900020E9F73197E01BF10B4F2D4E1BAF
:100C1000E42E14165CF4EA9480E30E9482051E140C
:100C2000D4F3CE0101960E94860505C04195C80106
:100C30006F2D0E94A80561960FB6F894DEBF0FBE17
:100C4000CDBFCF91DF911F910F91FF90EF9008954D
:100C50001F920F920FB60F9211242F938F939F9391
:100C6000EF93FF939091B3008091B200292F281B3E
:100C70002032A8F48091B100E82FF0E02CB1E05FC1
:100C8000FA4F20838F5F8093B1009F5F9093B300F2
:100C9000813210F01092B10010920F0506C08CB195
:100CA0008093B50081E080930F05FF91EF919F91B4
:100CB0008F912F910F900FBE0F901F90189510924B
:100CC0000F058091B2009091B3009817A1F08F5F4B
:100CD0008093B2008091B000813210F01092B00089
:100CE0009091B000E92FF0E0E05FFA4F80819F5FC4
:100CF0009093B000089580E008959C0110920F0534
:100D000080E016C04F5F4093B2009091B000E92F91
:100D1000F0E0E05FFA4F4081F901E80FF11D4083F8
:100D20008F5F9F5F9093B000913210F01092B000EF
:100D30004091B2009091B300941B961718F7089554
:100D40008091B3009091B200891B089557988CB19F
:100D50008093B4001092B0001092B1001092B200D3
:100D60001092B30010920F05579A089508950895B0
:100D7000F89480B911B88FEF83B984E086BF809171
:100D8000B60081608093B6007894089590936700D0
:100D90008093660008959093690080936800089599
:100DA000DF93CF930F92CDB7DEB786E98983898130
:100DB000982F915099838823D1F70F90CF91DF918D
:100DC000089506B600FCFDCF2091B60020FF0CC0B0
:100DD000E0EDF0E0DC0170E06E0F7F1F02C081915A
:100DE0008D93E617F707D9F7089506B600FCFDCFF7
:100DF0008091B700089506B600FC5FC08091B600F0
:100E000080FF43C08091BD00882309F456C0813023
:100E100091F40E94D00682E08093BE009091B800C9
:100E20009093BF009091B9009093C0001092B600CB
:100E300095EA96BF15C08230B1F40E94D006809129
:100E4000BA008F5F8093BE008091B800816080936C
:100E5000B8008093BF001092B60085EA86BF83E099
:100E60008093BD000895833041F51092BD008091BC
:100E7000BB009091BC002FEF8F3F9207F1F0E09103
:100E80006600F0916700099508950E94F506882391
:100E9000A1F01092BD009091B60091609093B600C1
:100EA0001092B8001092BC001092BB001092BA00D1
:100EB000E0916800F091690009950895DF93CF9360
:100EC00000D000D0CDB7DEB70AC02C834B836A8335
:100ED00089830E94FB0689816A814B812C8106B639
:100EE00000FCF3CF9091BD00992379F791E09093A6
:100EF000BD006093BB001092BC008093B80040938B
:100F0000B9002093BA000F900F900F900F90CF91DF
:100F1000DF910895DF93CF9300D00F92CDB7DEB766
:100F200008C04B836A8389830E94FB0689816A819A
:100F30004B8106B600FCF5CF9091BD00992389F74F
:100F400092E09093BD008093B8006093BB00109234
:100F5000BC004093BA000F900F900F90CF91DF919B
:100F60000895EF92FF920F931F93DF93CF930F9209
:100F7000CDB7DEB7162F7A01022F04C089830E94F5
:100F8000FB06898106B600FCF9CF9091BD0099233C
:100F9000A9F791E09093BD008093B8008FEF9FEF89
:100FA0009093BC008093BB001093B9000093BA00EB
:100FB00002C00E94FB0606B600FCFBCF8091BD007C
:100FC0008823B9F78091B60080FF05C0602F6F5F5E
:100FD000C7010E94E1060F90CF91DF911F910F9101
:100FE000FF90EF9008950F931F93CF93DF93182FE7
:100FF000EB01042F02C00E94FB0606B600FCFBCFEB
:101000008091BD008823B9F70E94D00682E08093CA
:10101000BD001093B8008FEF9FEF9093BC008093BA
:10102000BB000093BA0002C00E94FB0606B600FC9B
:10103000FBCF8091BD008823B9F78091B60080FF77
:1010400005C0602F6F5FCE010E94E106DF91CF9156
:101050001F910F9108951F93182F02C00E94FB0645
:1010600006B600FCFBCF8091BD008823B9F70E9433
:10107000D00682E08093BD001093B8008FEF9FEF01
:101080009093BC008093BB0081E08093BA0002C0C3
:101090000E94FB068091BD008823D1F78091B600A5
:1010A00080FF03C08091D00001C080E01F910895AF
:1010B0000F931F93182F062F02C00E94FB0606B63F
:1010C00000FCFBCF8091BD008823B9F70E94D006B9
:1010D00082E08093BE001093BF000093C000109286
:1010E000B60085EA86BF1F910F910895FF920F9376
:1010F0001F93182F062FF42E02C00E94FB0606B67F
:1011000000FCFBCF8091BD008823B9F70E94D00678
:1011100083E08093BE001093BF000093C000F09264
:10112000C1001092B60085EA86BF1F910F91FF9013
:101130000895EF92FF920F931F93182F062FF42E0E
:10114000E22E02C00E94FB0606B600FCFBCF809197
:10115000BD008823B9F70E94D00684E08093BE00CA
:101160001093BF000093C000F092C100E092C20053
:101170001092B60085EA86BF1F910F91FF90EF9005
:101180000895DF92EF92FF920F931F93182FF62E80
:10119000E42ED22E02C00E94FB0606B600FCFBCF56
:1011A0008091BD008823B9F70E94D00685E0809326
:1011B000BE001093BF00F092C000E092C100D09238
:1011C000C2000093C3001092B60085EA86BF1F914B
:1011D0000F91FF90EF90DF900895EF92FF920F93A1
:1011E0001F93182F062FF72EE42E02C00E94FB0635
:1011F00006B600FCFBCF8091BD008823B9F70E94A2
:10120000D006E394E092BE001093BF00802F9F2D84
:10121000DC01E0ECF0E04E2D50E04E0F5F1F02C00D
:101220008D918193E417F507D9F71092B60085EAFE
:1012300086BF1F910F91FF90EF9008951F920F921C
:101240000FB60F9211242F933F938F939F93EF9399
:10125000FF9381B18832C9F0893240F4803199F02E
:10126000883199F0883009F04BC00DC0803441F1CD
:10127000813420F4883309F043C03DC08035A9F0A3
:101280008835F1F52BC01092FF008091FF009091FE
:10129000BE00891750F5E82FF0E0E154FF4F908130
:1012A00093B98F5F8093FF0017C08091FF0093B1C7
:1012B000E82FF0E0E153FF4F90838F5F8093FF00B2
:1012C0002091FF0030E08091BE0090E00197281748
:1012D000390714F485EC18C085E816C083B1E09195
:1012E000FF00F0E0E153FF4F80838091B600816002
:1012F0008093B60008C081B18093B70085EA04C02E
:1013000081B18093B70084E986BFFF91EF919F91EF
:101310008F913F912F910F900FBE0F901F901895B6
:1013200008950895089508950895089590936D007F
:1013300080936C00089590937500809374000895D5
:1013400090936F0080936E00089590936B0080934C
:101350006A000895909371008093700008959093AF
:1013600073008093720008958AE063E042E355E0E1
:1013700028E10E94B1078091320580935605809143
:10138000330580935C0580913405809357058091E7
:101390003505809369058091360580934B058091D2
:1013A000370580934A059091390580E020913805F2
:1013B000820F911D909368058093670590913B057E
:1013C00080E020913A05820F911D909362058093F1
:1013D000610590913D0580E020913C05820F911DB3
:1013E00090935B0580935A0590913F0580E0209192
:1013F0003E05820F911D90935F0580935E0590914D
:10140000410580E020914005820F911D90936E056B
:1014100080936D059091430580E020914205820FF5
:10142000911D90936605809365059091450580E038
:1014300020914405820F911D90936C0580936B055C
:101440009091470580E020914605820F911D909371
:101450006405809363059091490580E020914805DB
:10146000820F911D9093590580935805089580919E
:101470000001882359F4829B09C081E08093000118
:101480008AE060E040E023E00E945E0708950F9349
:101490001F93DF93CF9300D0CDB7DEB7882309F039
:1014A00092C08FE695E063E00E94E10620916F050F
:1014B00000910A01022720930A0110E0C8018076FA
:1014C0009070009789F0822F829586958170809325
:1014D0005D05229526952695217020936005E09163
:1014E0006A00F0916B000995C801867090700097B2
:1014F00089F080910A01982F96959170909331050B
:1015000086958695817080936A05E0916C00F091D4
:101510006D00099503FF1CC08AE06BE10E9458082A
:101520008AE0BE016F5F7F4F42E00E94F307E091C7
:101530006E00F0916F00298130E086E0220F331FAA
:101540008A95E1F78A8190E0282B392BC90109950A
:1015500000FF1DC08AE065E10E9458088AE0BE01D4
:101560006F5F7F4F42E00E94F3073A8120E089815C
:1015700090E0822B932B90936C0580936B05809168
:101580000A01E0917000F0917100817009958091DD
:1015900070058093E60483FF05C0E0917200F0912E
:1015A00073000995809171058093F70280910A017B
:1015B00087FF05C0E0917400F091750009951092C5
:1015C000000181E001C080E00F900F90CF91DF918A
:1015D0001F910F91089502C00E94FB0606B600FC01
:1015E000FBCF8091BD008823B9F786E090E00E9490
:1015F000F4030E94370A02C00E94FB0606B600FCF4
:10160000FBCF8091BD008823B9F708950F93282F51
:10161000062F8AE060E045E00E94C10802C00E94F7
:10162000FB0606B600FCFBCF8091BD008823B9F70E
:101630000F910895282F8AE060E046E00E94990803
:1016400002C00E94FB0606B600FCFBCF8091BD00E5
:101650008823B9F708958AE060E044E00E947608A4
:101660000E94EB0A0895DF93CF930F92CDB7DEB7B8
:1016700010924C0598E090934D0580934E05609331
:101680004F0550935005409351058AE06CE475E096
:1016900046E029830E94ED080E94EB0A298122235B
:1016A00049F004C00E94370A0E94FB068091F702AD
:1016B00080FFF8CF0F90CF91DF910895DF93CF9304
:1016C0000F92CDB7DEB710924C0597E090934D0581
:1016D00080934E0560934F055093500540935105FC
:1016E0008AE06CE475E046E029830E94ED080E94E0
:1016F000EB0A2981222349F004C00E94370A0E9484
:10170000FB068091F70280FFF8CF0F90CF91DF9119
:1017100008958091F802823049F4809101019091FE
:10172000020190930401809303010AC0833041F4C5
:10173000809101019091020190930601809305012F
:101740000E942B0B1092F802109283050E94201425
:1017500008950E94C702882381F09091F80281E0E9
:10176000923009F080E080937A0081E0933009F0B4
:1017700080E080937B000E94890B089584E66AE0F4
:1017800070E00E94CC030E94C7180E9469168091E5
:101790000101909102010196909302018093010151
:1017A0008CE291E00E94F4038091F802823009F00B
:1017B00089C08091FB02813041F1813038F0823064
:1017C00009F442C0833009F020C15DC0809101015D
:1017D00090910201FC01EE0FFF1F9C0143E0220FDC
:1017E000331F4A95E1F7E20FF31FE450FD4F0197D5
:1017F000DC01AA0FBB1F23E0880F991F2A95E1F790
:10180000A80FB91FA450BD4F8BC0809101019091CA
:101810000201FC01EE0FFF1F9C01A3E0220F331F0A
:10182000AA95E1F7E20FF31FE450FD4F0197DC01A9
:10183000AA0FBB1F63E0880F991F6A95E1F7A80FF5
:10184000B91FA450BD4F92C0809101019091020137
:10185000FC01EE0FFF1F9C0143E0220F331F4A954E
:10186000E1F7E20FF31FE450FD4F0197DC01AA0FEF
:10187000BB1F23E0880F991F2A95E1F7A80FB91F16
:10188000A450BD4F97C08091010190910201FC01CD
:10189000EE0FFF1F9C01A3E0220F331FAA95E1F773
:1018A000E20FF31FE450FD4F0197DC01AA0FBB1FAD
:1018B00063E0880F991F6A95E1F7A80FB91FA4503C
:1018C000BD4F9CC0833009F0A0C08091FB028130E5
:1018D00079F1813038F0823009F44EC0833009F05C
:1018E00094C06EC08091010190910201FC01EE0F45
:1018F000FF1F9C0143E0220F331F4A95E1F7E20FDF
:10190000F31FE35FFE4F0197DC01AA0FBB1F23E02B
:10191000880F991F2A95E1F7A80FB91FA35FBE4F43
:1019200016968D919C9117970197978386836DC02A
:101930008091010190910201FC01EE0FFF1F9C01BB
:10194000A3E0220F331FAA95E1F7E20FF31FE35F35
:10195000FE4F0197DC01AA0FBB1F63E0880F991FA0
:101960006A95E1F7A80FB91FA35FBE4F14968D913A
:101970009C911597019647C08091010190910201B9
:10198000FC01EE0FFF1F9C0143E0220F331F4A951D
:10199000E1F7E20FF31FE35FFE4F0197DC01AA0FAF
:1019A000BB1F23E0880F991F2A95E1F7A80FB91FE5
:1019B000A35FBE4F16968D919C9117970196B5CF58
:1019C0008091010190910201FC01EE0FFF1F9C012B
:1019D00063E0220F331F6A95E1F7E20FF31FE35F25
:1019E000FE4F0197DC01AA0FBB1F43E0880F991F30
:1019F0004A95E1F7A80FB91FA35FBE4F14968D91CA
:101A00009C91159701979583848380910101909112
:101A10000201FC01EE0FFF1F23E0880F991F2A959A
:101A2000E1F7E80FF91FE450FD4F8091FB02818739
:101A300008950F931F93CF93DF930E94D0180E94B5
:101A400069168CE291E00E94F4038091F8028230E2
:101A5000E9F55091010140910201252F342FC90170
:101A6000880F991FA3E0220F331FAA95E1F7820F79
:101A7000931F84509D4F252F342FE901CC0FDD1F7C
:101A8000E3E0220F331FEA95E1F7C20FD31FC450E2
:101A9000DD4F252F342FD901AA0FBB1F63E0220F82
:101AA000331F6A95E1F7A20FB31FA450BD4F252F36
:101AB000342F8901000F111F43E0220F331F4A9575
:101AC000E1F7020F131F04501D4F3FC0833009F090
:101AD00045C05091010140910201252F342FC901C9
:101AE000880F991F13E0220F331F1A95E1F7820F19
:101AF000931F835F9E4F252F342FE901CC0FDD1FED
:101B0000A3E0220F331FAA95E1F7C20FD31FC35FD3
:101B1000DE4F252F342FD901AA0FBB1FE3E0220F80
:101B2000331FEA95E1F7A20FB31FA35FBE4F252F26
:101B3000342F8901000F111F63E0220F331F6A95B4
:101B4000E1F7020F131F035F1E4FFC0180816981C3
:101B500012964C91F80123810E9404198CE291E0C5
:101B60000E94F40388E26AE070E00E94CC03DF91F7
:101B7000CF911F910F9108950E9415050E947D1528
:101B80000E9477120E9432160E94EC13809100038B
:101B9000609102034091FB020E9469180E94C702F3
:101BA0008130E1F782E08093F8020895FC018081A2
:101BB0009181FB0120813181821B930B9C01B90132
:101BC000882777FD8095982F0E9490199B01AC0182
:101BD0000E94F4190E945D19CB0162E070E00E943E
:101BE000931ACB0108952F923F924F925F926F927A
:101BF0007F928F929F92AF92BF92CF92DF92EF929D
:101C0000FF920F931F93DF93CF93CDB7DEB760970B
:101C10000FB6F894DEBF0FBECDBF84E065E00E9432
:101C2000C7158C0183E065E00E94C7157C0185E043
:101C300065E00E94C7156C0182E065E00E94C7154F
:101C40001A830983FC82EB82DE82CD8298878F83A0
:101C5000409178005091790088E262E021E00E9492
:101C60005E0BCC24DD2418E2812E13E2912EAA24EF
:101C7000BB2402E010E01E010894211C311C01C0AD
:101C8000470184E065E00E94C7157C0183E065E0C0
:101C90000E94C7153C0185E065E00E94C7152C0134
:101CA00082E065E00E94C715FA86E9867C866B862D
:101CB0005E864D86988B8F87CE010996B1010E9472
:101CC000D60D7C018EEB90E00E949A05C7016AE078
:101CD0000E94C50586E790E00E9486051016110651
:101CE00014F462E001C063E0A80117FF04C04427B8
:101CF0005527401B510B88E221E00E945E0BA00E8D
:101D0000B11E82EB90E00E949A05C5016AE00E9434
:101D1000C50586E790E00E948605C114D10461F1F3
:101D200094012E193F09C90137FF04C0882799275C
:101D3000821B930B60E570E00E94931A37FD03C08D
:101D400081E090E002C08FEF9FEF869F8001879F28
:101D5000100D969F100D11248BEA90E00E949A05B9
:101D6000C8016AE00E94C50586E790E00E948605EA
:101D70008AE0E816F10444F00894C11CD11C84E602
:101D8000C816D10409F07CCF0A0D1B1D8091780084
:101D900090917900800F911F909379008093780043
:101DA00082EA90E00E949A058091780090917900F3
:101DB0006AE00E94C50586E790E00E94860560966D
:101DC0000FB6F894DEBF0FBECDBFCF91DF911F914C
:101DD0000F91FF90EF90DF90CF90BF90AF909F90CA
:101DE0008F907F906F905F904F903F902F900895CD
:101DF0000E94421981E0809309018CED95E00E94D8
:101E0000F4030E94C70291E0823009F090E09093C1
:101E10000801992331F081E0809307010E944B195A
:101E200002C00E9454191092090184EF91E00E94AF
:101E3000F4030895DF92EF92FF920F931F930E9495
:101E4000BE1813E0FF24F39402E093C00E94A90B94
:101E50000E94EC15D82E0E942216E82E0E9407162A
:101E6000DD20C9F48091010190910201FC01EE0F87
:101E7000FF1FA3E0880F991FAA95E1F7E80FF91F4C
:101E8000E450FD4F10860E94190D80E00E94D91881
:101E90000E94A1135EC0EE20B9F4809101019091DF
:101EA0000201FC01EE0FFF1F63E0880F991F6A9586
:101EB000E1F7E80FF91FE450FD4F00870E94190D6C
:101EC00082E00E94D9184FC0309101012091020197
:101ED0008823F9F4832F922FFC01EE0FFF1F43E0BC
:101EE000880F991F4A95E1F7E80FF91FE450FD4F5D
:101EF000F0860E94190D81E00E94D9180E94B71344
:101F00008091FB02833019F41092FB022CC08F5F8A
:101F100028C0832F922FFC01EE0FFF1F23E0880FB4
:101F2000991F2A95E1F7E80FF91FE450FD4F10873C
:101F30000E94190D83E00E94D9180E94CD13809150
:101F4000FB02882319F41093FB0203C08150809395
:101F5000FB028091FB02882319F41093FB0203C05B
:101F600081508093FB020E9482120E94BE0B0E944D
:101F7000F80E80910701882309F468CF8091010150
:101F80009091020190930401809303011F910F919E
:101F9000FF90EF90DF900895CF93DF93EB0120E067
:101FA00030E064E021C0FC01E20FF31F7081743067
:101FB000A1F44150504059834883DF01A90106C074
:101FC00011967C9111977D934F5F5F4F4230510581
:101FD000B8F3DC0111966C9311974081443011F4F1
:101FE000215030402F5F3F4F4881598124173507DA
:101FF000D4F2DF91CF9108952F923F924F925F924A
:102000007F928F929F92AF92BF92CF92DF92EF9288
:10201000FF920F931F93DF93CF93CDB7DEB7C556D3
:10202000D0400FB6F894DEBF0FBECDBF6091030164
:102030007091040120E030E080E090E0AE014C5C63
:102040005F4F12E001E02CC0DC01A21BB30BFD01CD
:10205000EE0FFF1FAA0FBB1FAA0FBB1FAA0FBB1FAC
:10206000EA0FFB1FE450FD4FA085FA01E80FF91FAE
:10207000A083A23018F0A33091F403C0AA2309F47E
:102080000083FA01E80FF91FA081A13009F4108242
:102090000196FA01E80FF91F10832F5F3F4F019659
:1020A000F901E60FF71F8E179F0774F201969A83C6
:1020B00089832CA9FE01339680E090E002C0219331
:1020C000019686179707DCF36AC1F801E80FF91F3C
:1020D0004081413051F4AC014F5F5F4FD801A40FF4
:1020E000B51F6C91613091F40BC0442379F4AC01BD
:1020F0004F5F5F4FD801A40FB51F6C91662331F479
:102100000894E11CF11CC082DC92CA01019682177E
:102110009307DCF2C801B5010E94CC0F69817A8176
:102120006250704080E090E05EC0A801480F591FE7
:10213000DA012C912223C1F4FC013196E00FF11F4A
:102140008080B82DB33009F04DC022E0422E512CD2
:10215000480E591E1801240C351CD1017C90B72D56
:10216000B13009F03FC035C02130E1F4FC013196B7
:10217000E00FF11F8080282D2330A1F59C012E5FF8
:102180003F4F2801420E531ED2017C90772051F51B
:102190000894E11CF11CDA018C92D082F201D08209
:1021A000C90120C02230F1F4FC013196E00FF11F8B
:1021B0008080282D2330B1F4B2E04B2E512C480EF4
:1021C000591E1801240C351CD1017C90B72DB2305A
:1021D00049F40894E11CF11CDA018C92D082F101DF
:1021E000D082C2010196861797070CF49ECFC801D2
:1021F000B5010E94CC0F49815A814150504080E086
:1022000090E035C0F801E80FF91F2081222351F436
:102210009C012F5F3F4FD801A20FB31F6C91633019
:1022200029F50BC0233071F49C012F5F3F4FD8017B
:10223000A20FB31F6C91662389F40894E11CF11C72
:10224000908212C0213091F49C012F5F3F4FD80142
:10225000A20FB31F6C91633049F402C0613031F4B6
:102260000894E11CF11C1082DC92C90101968417CC
:10227000950744F2C801B5010E94CC0F49815A81EB
:102280004150504080E090E02EC0F801E80FF91F67
:102290002081213051F49C012F5F3F4FD801A20FC4
:1022A000B31F6C916623F1F417C0222351F49C01F3
:1022B0002F5F3F4FD801A20FB31F6C91613091F493
:1022C0000BC0233079F49C012F5F3F4FD801A20F40
:1022D000B31F6C91633031F40894E11CF11CD0827F
:1022E000DC92C9010196841795077CF2C801B501FB
:1022F0000E94CC0F69817A816250704080E090E04A
:1023000042C0A801480F591FDA012C912223D9F4A9
:10231000FC013196E00FF11F2081233099F59C01DB
:102320002E5F3F4F2801420E531ED2018C90882011
:1023300049F50894E11CF11CDA01DC92D082F2012B
:10234000D082C9011FC02130E9F4FC013196E00FB1
:10235000F11F20812330B1F4A2E04A2E512C480E07
:10236000591E1801240C351CD1018C90B82DB130A8
:1023700049F40894E11CF11CDA01DC92D082F101ED
:10238000D082C2010196861797070CF4BACFC80114
:10239000B5010E94CC0FE114F10471F416C08E0156
:1023A0000D5F1F4F43E0C42E34E0D32E5E0108942E
:1023B000A11CB11C9924939429813A812150304069
:1023C00080E090E0EE24FF24A2CE10920201109251
:1023D000010125E1E22E21E0F22E00E010E093E081
:1023E000C92ED12CCC0EDD1E83E0A82E44C00E9445
:1023F000A90BF601E00FF11F8081D7018C93A696FF
:102400008FAFA6970E94190DA6968FADA697813023
:1024100099F0813018F0823031F520C080E00E94C0
:10242000D9180E94A1138091FB02882319F4A0926D
:10243000FB0211C081500DC081E00E94D9180E949A
:10244000B7138091FB02833019F41092FB0203C092
:102450008F5F8093FB020F5F1F4F03C082E00E94DB
:10246000D9180E9482120E94BE0B0F5F1F4FEAE034
:10247000F0E0EE0EFF1E89819A81081719070CF40F
:10248000B6CFCB59DF4F0FB6F894DEBF0FBECDBF2E
:10249000CF91DF911F910F91FF90EF90DF90CF9040
:1024A000BF90AF909F908F907F905F904F903F90A4
:1024B0002F9008958091F802823041F0833061F0CE
:1024C000813081F40E94F30D82E003C00E941A0F54
:1024D00083E08093F80206C00E94FC0F1092F8027D
:1024E0000E94890B0E9464160E948112089583E065
:1024F0008093830580EA90E0909382058093810524
:10250000089508954F925F927F928F929F92AF921B
:10251000BF92CF92DF92EF92FF920F931F93CF93D0
:10252000DF9381E08093830540917C0050917D0092
:1025300080917E0060E020E00E945E0B84E690E0E7
:102540000E94F403AA24BB248824992482E0482E04
:10255000512CD7C085E06AE00E94C7156C0182E06B
:102560006AE00E94C7158C0184E06AE00E94C715EA
:102570007C0183E06AE00E94C715FC018091A30002
:102580009091A40077247394C816D90608F4772490
:1025900041E00817190708F440E031E0E816F906B1
:1025A00008F430E021E0E817F90708F420E077208C
:1025B00079F1442369F1C601801B910B60917F0082
:1025C000709180000E947F1AEB01332359F0C601FD
:1025D0008E199F0960918100709182000E947F1A7C
:1025E0004B011BC06091810070918200222321F079
:1025F000C8018E1B9F0B08C08091810590918205B8
:102600009601281B390BC9010E947F1A4B0196C005
:10261000332309F48FC0C0E0D0E0222309F48EC038
:10262000C7018E1B9F0B60917F00709180000E94FC
:102630007F1A9B01772069F0C7018C199D09609171
:102640008100709182000E947F1A5B014423B9F4DB
:1026500048C06091810070918200442321F0CF0135
:10266000801B910B08C08091810590918205A70184
:10267000481B590BCA010E947F1A5B0132C0CF016F
:10268000800F911FB2010E94931AFB01C7018C0DAC
:102690009D1DB2010E94931AE60FF71FCF01B201F0
:1026A0000E94931A70938205609381051AC02223B9
:1026B000A1F0442391F02091810030918200C80163
:1026C0008E1B9F0BB9010E947F1A4B01CF01801B0B
:1026D000910BB9010E947F1A5B0120E030E0C0E05D
:1026E000D0E080917E00AE01480D622F6A0D680F28
:1026F000840F0E94060B0E94370A0E94FB060E946C
:10270000A90B8091F70280FF25CF0E942B0B83E05D
:1027100080938305DF91CF911F910F91FF90EF90F0
:10272000DF90CF90BF90AF909F908F907F905F9001
:102730004F900895772009F4BACFCFCF20E030E052
:10274000D0CF82E0809383058091780090917900CA
:1027500069E170E00E94931AAB0180917E0062E013
:1027600021E00E94330B83E080938305089582E08B
:1027700080938305809178009091790069E170E001
:102780000E94931AAB0180917E0063E021E00E94D9
:10279000330B83E080938305089582E08093830563
:1027A0008091780090917900880F991F69E170E01D
:1027B0000E94931AAB0180917E0062E021E00E94AA
:1027C000330B83E08093830508950E94A00688233D
:1027D000E1F30E945F0608951F93DF93CF930F925A
:1027E000CDB7DEB70E94A6060E94231881E0809331
:1027F00084050E94E513182F0E94E51389830E9427
:10280000E513482F8093FB021093000310920103FD
:102810006981609302031092030380930503812F63
:1028200090E070E050E00E9435181092840588EE28
:1028300093E00E94F4030F90CF91DF911F910895D0
:10284000EF92FF920F931F93CF93DF930E94A60600
:1028500082E0809384050E942C180E94E5138AE090
:1028600090E00E94F40380910301909104016AE0DA
:1028700043E00E94E7058AE00E9482050CEF12E027
:10288000E801EE24FF245CC08881882319F083E8E6
:1028900090E002C086E890E00E9486058AE00E94EF
:1028A00082058981882319F089E890E002C08CE8CC
:1028B00090E00E9486058AE00E9482058A81882332
:1028C00019F08FE890E002C082E990E00E9486054E
:1028D0008AE00E9482058B81882319F085E990E0C7
:1028E00002C088E990E00E9486058AE00E94820585
:1028F0008C819D816AE042E00E94E7058AE00E94A7
:1029000082058E819F816AE042E00E94E7058AE0AD
:102910000E948205888590E06AE042E00E94E70517
:102920008AE00E948205898590E06AE042E00E9488
:10293000E7058AE00E9482050894E11CF11C2A96B2
:102940008091030190910401E816F9060CF49CCFE4
:1029500080917A00882309F479C00E94E5138AE007
:1029600090E00E94F40380910501909106016AE0D5
:1029700043E00E94E7058AE00E948205C0E0D0E0C3
:1029800059C0F8018081882319F083E890E002C0E3
:1029900086E890E00E9486058AE00E948205F801A0
:1029A0008181882319F089E890E002C08CE890E0EA
:1029B0000E9486058AE00E948205F80182818823B0
:1029C00019F08FE890E002C082E990E00E9486054D
:1029D0008AE00E948205F8018381882319F085E945
:1029E00090E002C088E990E00E9486058AE00E949B
:1029F0008205F801848195816AE042E00E94E70542
:102A00008AE00E948205F801868197816AE042E0AF
:102A10000E94E7058AE00E948205F801808590E027
:102A20006AE042E00E94E7058AE00E948205219662
:102A3000065F1F4F8091050190910601C817D907C5
:102A40000CF49FCF80917B00882341F486E40E94A0
:102A500082058AE00E94820510928405DF91CF9161
:102A60001F910F91FF90EF900895823699F0833671
:102A700018F48136E9F405C0833631F08436C1F4A8
:102A800006C0E0E0F0E008C0E2E0F0E005C0E3E00E
:102A9000F0E002C0E1E0F0E0E556FF4F413021F404
:102AA0008081862B80830895609580818623808332
:102AB0000895823699F0833618F48136E9F405C01A
:102AC000833631F08436C1F406C0E0E0F0E008C09F
:102AD000E2E0F0E005C0E3E0F0E002C0E1E0F0E0B9
:102AE000E156FF4F413021F48081862B8083089589
:102AF000609580818623808308958AB380939B00AC
:102B000087B380939C0084B380939D0081B38093AE
:102B10009E008BB380939F0088B38093A00085B301
:102B20008093A10082B38093A200089580918305D1
:102B3000833039F480910901882319F081E0809372
:102B40000801089580918305813069F480915D05C5
:102B5000882349F080916005882329F08EEB64E694
:102B600070E00E94CC0308951F93182F84EC90E02E
:102B70000E949A05812F90E060E10E94C5058AE0DD
:102B80000E9482051F9108950E94470A0895EF92BE
:102B9000FF920F931F93DF93CF930F92CDB7DEB7C2
:102BA000182F062FEE24FF2408C0812F69830E946E
:102BB000E101E80EF91E015069810023B1F7C70158
:102BC00070E00E947F1ACB010F90CF91DF911F918F
:102BD0000F91FF90EF900895CF93DF9385E00E94CF
:102BE000E101EC0182E00E94E101282F392F2C172E
:102BF0003D0708F49E0181E04091A3005091A4009C
:102C00002417350708F480E0DF91CF910895CF9322
:102C1000DF9384E00E94E101EC0183E00E94E10186
:102C2000282F392F2C173D0708F49E0181E0409191
:102C3000A3005091A4002417350708F480E0DF9129
:102C4000CF91089580915D05882349F081E090E05F
:102C500020916005222329F480E090E0089580E02F
:102C600090E0089582EA95E10E94A50986E995E140
:102C70000E94A00988E40E94B80684EB95E10E94B6
:102C8000CB0684EC95E10E94C60688EE93E00E9494
:102C9000F4038AE060E049E022E00E94990881E6BE
:102CA00060E240E00E94351581E660E140E00E946C
:102CB000351581E668E040E00E94351581E664E064
:102CC00040E00E94351508950E94370A0E94FB06D5
:102CD00008950F931F930E94EC15082F0E9422164F
:102CE000182F0E9407169091F802923009F0D1C077
:102CF0009091FB029130D1F1913038F0923009F48B
:102D000066C0933009F09CC193C04091010190913D
:102D10000201242F392FF901EE0FFF1F63E0220F6C
:102D2000331F6A95E1F7E20FF31FE450FD4F038371
:102D3000242F392FF901EE0FFF1F03E0220F331F5D
:102D40000A95E1F7E20FF31FE450FD4F1083242FA3
:102D5000392FF901EE0FFF1FA3E0220F331FAA95B1
:102D6000E1F7E20FF31FE450FD4FD3C040910101A2
:102D700090910201242F392FF901EE0FFF1F63E01C
:102D8000220F331F6A95E1F7E20FF31FE450FD4F66
:102D90000083242F392FF901EE0FFF1F03E0220FCC
:102DA000331F0A95E1F7E20FF31FE450FD4F118343
:102DB000242F392FF901EE0FFF1FA3E0220F331F3D
:102DC000AA95E1F7E20FF31FE450FD4FD4C0409104
:102DD000010190910201242F392FF901EE0FFF1FFD
:102DE00063E0220F331F6A95E1F7E20FF31FE4500F
:102DF000FD4F0183242F392FF901EE0FFF1F03E050
:102E0000220F331F0A95E1F7E20FF31FE450FD4F45
:102E10001283242F392FF901EE0FFF1FA3E0220F99
:102E2000331FAA95E1F7E20FF31FE450FD4FD5C021
:102E30004091010190910201242F392FF901EE0FE9
:102E4000FF1F63E0220F331F6A95E1F7E20FF31FC4
:102E5000E450FD4F0283242F392FF901EE0FFF1F9D
:102E600003E0220F331F0A95E1F7E20FF31FE4504E
:102E7000FD4F1383242F392FF901EE0FFF1FA3E01D
:102E8000220F331FAA95E1F7E20FF31FE450FD4F25
:102E9000D6C0933009F0D4C09091FB029130D9F1A3
:102EA000913038F0923009F468C0933009F0C8C00E
:102EB00096C04091010190910201242F392FF90110
:102EC000EE0FFF1F63E0220F331F6A95E1F7E20F59
:102ED000F31FE35FFE4F0383242F392FF901EE0F19
:102EE000FF1F03E0220F331F0A95E1F7E20FF31FE4
:102EF000E35FFE4F1083242F392FF901EE0FFF1FE0
:102F0000A3E0220F331FAA95E1F7E20FF31FE35F5F
:102F1000FE4F818395C04091010190910201242FC1
:102F2000392FF901EE0FFF1F63E0220F331F6A955F
:102F3000E1F7E20FF31FE35FFE4F0083242F392FE9
:102F4000F901EE0FFF1F03E0220F331F0A95E1F78F
:102F5000E20FF31FE35FFE4F1183242F392FF90196
:102F6000EE0FFF1FA3E0220F331FAA95E1F7E20F38
:102F7000F31FE35FFE4F828363C040910101909194
:102F80000201242F392FF901EE0FFF1F63E0220FFA
:102F9000331F6A95E1F7E20FF31FE35FFE4F0183F2
:102FA000242F392FF901EE0FFF1F03E0220F331FEB
:102FB0000A95E1F7E20FF31FE35FFE4F1283242F20
:102FC000392FF901EE0FFF1FB3E0220F331FBA951F
:102FD000E1F7E20FF31FE35FFE4F838331C04091BF
:102FE000010190910201242F392FF901EE0FFF1FEB
:102FF00073E0220F331F7A95E1F7E20FF31FE35FCF
:10300000FE4F0283242F392FF901EE0FFF1F53E0EB
:10301000220F331F5A95E1F7E20FF31FE35FFE4FD4
:103020001383242F392FF901EE0FFF1F93E0220F96
:10303000331F9A95E1F7E20FF31FE35FFE4F8083A2
:103040001F910F9108950E94F60480EF91E066EEC3
:1030500071E00E94FE0408950E94F6048AED91E05A
:103060006EEC71E00E94FE0408950F931F93DF93AE
:10307000CF930F92CDB7DEB7082F162F49830E944A
:10308000F60484EC91E067EB71E00E94FE0481E0BD
:1030900062E00E94E104802F90E06AE00E947B04DD
:1030A00081E066E00E94E104812F90E06AE00E94E6
:1030B0007B0481E06AE00E94E1044981842F90E072
:1030C0006AE00E947B040F90CF91DF911F910F91D6
:1030D00008950F931F93DF93CF930F92CDB7DEB771
:1030E000082F162F49830E94F6048AEA91E06DE9C1
:1030F00071E00E94FE0481E062E00E94E104802F02
:1031000090E06AE00E947B0481E066E00E94E104B6
:10311000812F90E06AE00E947B0481E06AE00E94D7
:10312000E1044981842F90E06AE00E947B040F90C3
:10313000CF91DF911F910F9108950F931F93082F47
:10314000162F0E94F60484E991E063E971E00E9481
:10315000FE0481E063E00E94E104802F90E06AE0D9
:103160000E947B0481E06AE00E94E104812F90E0EC
:103170006AE00E947B041F910F9108950E94F6045B
:1031800083E891E06BE771E00E94FE0408950E94DD
:10319000F6048DE691E06CE671E00E94FE0408956D
:1031A0000E94F6048FE591E06EE571E00E94FE0456
:1031B0000895DF93CF930F92CDB7DEB789830E9436
:1031C000F6048981813089F0813028F0823041F025
:1031D0008330B1F40FC081E591E060E571E00EC08D
:1031E00081E491E060E471E009C082E391E061E391
:1031F00071E004C085E291E064E271E00E94FE04A7
:103200000F90CF91DF910895FF920F931F93DF935B
:10321000CF930F92CDB7DEB7162F042FF22E8983EE
:103220000E94F6048981882341F080E068E00E94D2
:10323000E10485EA90E00E946704112341F081E0F7
:1032400060E00E94E10487EA90E00E9467040023A6
:1032500041F081E068E00E94E10489EA90E00E9488
:103260006704FF2041F081E06FE00E94E1048BEAF7
:1032700090E00E9467040F90CF91DF911F910F9112
:10328000FF9008950E94F60488E191E061E171E009
:103290000E94FE0408950E94F60480E091E060EF31
:1032A00070E00E94FE0408950E94F60486EE90E00D
:1032B0006FED70E00E94FE04089504D06894B1118F
:1032C0008DC0089570D088F09F5790F0B92F99273E
:1032D000B751A0F0D1F0660F771F881F991F1AF021
:1032E000BA95C9F712C0B13081F077D0B1E0089536
:1032F00074C0672F782F8827B85F39F0B93FCCF3B7
:10330000869577956795B395D9F73EF49095809516
:10331000709561957F4F8F4F9F4F0895E89409C036
:1033200097FB3EF490958095709561957F4F8F4FF8
:103330009F4F9923A9F0F92F96E9BB279395F6950E
:10334000879577956795B795F111F8CFFAF4BB0F8C
:1033500011F460FF1BC06F5F7F4F8F4F9F4F16C0F0
:10336000882311F096E911C0772321F09EE8872F7A
:10337000762F05C0662371F096E8862F70E060E036
:103380002AF09A95660F771F881FDAF7880F9695AF
:10339000879597F9089557FD9058440F551F59F098
:1033A0005F3F71F04795880F97FB991F61F09F3F32
:1033B00079F087950895121613061406551FF2CF5B
:1033C0004695F1DF08C0161617061806991FF1CFAB
:1033D00086957105610508940895E894BB276627D2
:1033E0007727CB0197F908950BD078C069D028F0E2
:1033F0006ED018F0952309F05AC05FC01124EECFAB
:10340000CADFA0F3959FD1F3950F50E0551F629F3F
:10341000F001729FBB27F00DB11D639FAA27F00D2D
:10342000B11DAA1F649F6627B00DA11D661F829F54
:103430002227B00DA11D621F739FB00DA11D621F39
:10344000839FA00D611D221F749F3327A00D611D56
:10345000231F849F600D211D822F762F6A2F112438
:103460009F5750408AF0E1F088234AF0EE0FFF1F8B
:10347000BB1F661F771F881F91505040A9F79E3FC2
:10348000510570F014C0AACF5F3FECF3983EDCF317
:10349000869577956795B795F795E7959F5FC1F7FF
:1034A000FE2B880F911D9695879597F9089597F9AA
:1034B0009F6780E870E060E008959FEF80EC0895DA
:1034C00000240A9416161706180609060895002403
:1034D0000A9412161306140605060895092E03947D
:1034E000000C11F4882352F0BB0F40F4BF2B11F4F1
:1034F00060FF04C06F5F7F4F8F4F9F4F0895AA1BDF
:10350000BB1B51E107C0AA1FBB1FA617B70710F0CE
:10351000A61BB70B881F991F5A95A9F78095909500
:10352000BC01CD01089597FB092E07260AD077FD2F
:1035300004D0E5DF06D000201AF4709561957F4F26
:103540000895F6F7909581959F4F0895FB019F018F
:10355000E8944230C4F04532B4F44A3029F497FB81
:103560001EF4909581959F4F642F77270E947F1AB4
:10357000805D8A330CF0895D8193CB010097A1F7C0
:1035800016F45DE251931082C9010C94C71ADC0154
:10359000FC01672F71917723E1F7329704C07C918A
:1035A0006D9370836291AE17BF07C8F30895F894C6
:0235B000FFCF4B
:1035B2005C015B015A01B606B706930990099209AC
:1035C2009409950991090A006C070101080728323C
:1035D2000008004E59004E4E00455900454E00531A
:1035E2005900534E00575900574E000B0000000B74
:0E35F20000000078004E004500530057000016
:00000001FF
