:100000000C94A2000C944D010C947A010C94A7015D
:100010000C94BF000C94BF000C94BF000C94BF0064
:100020000C94BF000C94BF000C944C040C94BF00C3
:100030000C94BF000C94D9050C94BF000C94BF0025
:100040000C94BF000C94BF000C94BF000C94BF0034
:100050000C94BF000A41444334205B5265636874CA
:1000600073766F6F725D3A20000A41444333205B20
:100070005265636874736163687465725D3A2000E9
:100080000A0A504336206973204C4F57210A0A0050
:100090000A0A5043362069732048494748210A0A12
:1000A000000A436865636B205043363A000A5043A8
:1000B000372069732073657420746F204C4F57216B
:1000C0000A0A000A5043372069732073657420744C
:1000D0006F2048494748210A0A004578616D706CD5
:1000E000652050726F6772616D00492F4F20616EFD
:1000F0006420414443002323232323232323232356
:1001000023232323232300232323232323232323E2
:1001100023232323232323000A0A525036436F6EDE
:1001200074726F6C20492F4F20616E6420414443EC
:10013000204578616D706C652050726F6772616DDB
:10014000210A000011241FBECFE5D8E0DEBFCDBFDD
:1001500010E0A0E6B0E0E2E2FEE002C005900D9201
:10016000A439B107D9F710E0A4E9B0E001C01D92AD
:10017000A83EB107E1F70E94C1000C940F070C9450
:1001800000000E9434050E94EC0288E191E00E9488
:10019000C0058FE00E94AB0287E091E066EF70E05F
:1001A0000E94AB0384E668E270E00E94F50488E6F2
:1001B00090E00E941F058AEA68E270E00E94F50460
:1001C00088E290E00E941F0580E991E00E941F05EF
:1001D00080E00E94AB028AEE90E06AED70E00E943F
:1001E000AB0388EE93E00E941F05A79AAF9A83ECB9
:1001F00090E00E94C00588EE93E00E941F05AF9832
:100200008DEA90E00E94C005A698AE9A81EA90E03F
:100210000E94C0059E9B03C080E990E002C080E878
:1002200090E00E94C005D598D498D398D29889E6DA
:1002300090E00E94C00583E00E94CE016AE00E9427
:10024000690680E690E00E94B60582E00E94CE0139
:100250006AE00E94690684E590E00E94C00584E09F
:100260000E94CE016AE00E94690688E790E00E9441
:10027000B60585E00E94CE016AE00E9469068AE028
:100280000E94B20584EF91E00E941F05D0CF08952F
:10029000909393008093920008951F920F920FB64F
:1002A0000F9211242F933F934F935F936F937F93FC
:1002B0008F939F93AF93BF93EF93FF93E09192003F
:1002C000F09193000995FF91EF91BF91AF919F91AC
:1002D0008F917F916F915F914F913F912F910F90EF
:1002E0000FBE0F901F9018950895909391008093E2
:1002F000900008951F920F920FB60F9211242F9322
:100300003F934F935F936F937F938F939F93AF939D
:10031000BF93EF93FF93E0919000F09191000995C6
:10032000FF91EF91BF91AF919F918F917F916F91CD
:100330005F914F913F912F910F900FBE0F901F90A3
:100340001895089590938F0080938E0008951F92C2
:100350000F920FB60F9211242F933F934F935F93F9
:100360006F937F938F939F93AF93BF93EF93FF937D
:10037000E0918E00F0918F000995FF91EF91BF9170
:10038000AF919F918F917F916F915F914F913F912D
:100390002F910F900FBE0F901F901895369B03C0A2
:1003A00020E030E009C0806487B986ED86B93699CF
:1003B000FECF349A24B135B1C90108958FB9779B26
:1003C000FECF08958FEF8FB9779BFECF8FB1089541
:1003D0008FEF8FB9779BFECF3FB18FEF8FB9779BB0
:1003E000FECF2FB1932F80E030E0282B392BC901AD
:1003F00008959FB9779BFECF8FB9779BFECF089565
:10040000FC0190E006C080818FB9779BFECF9F5F93
:1004100031969617C0F30895FC0190E02FEF06C0C7
:100420002FB9779BFECF8FB181939F5F9617C0F353
:1004300008959C01C09883E08FB9779BFECFC901D6
:100440000E94F9018FEF8FB9779BFECF8FB1C09AD1
:1004500008951F93CF93DF939C01EB01142FC09855
:1004600083E08FB9779BFECFC9010E94F901CE01CD
:10047000612F0E940C02C09ADF91CF911F910895C5
:10048000C09886E08FB9779BFECFC09A0895C09838
:1004900084E08FB9779BFECFC09A0895C09885E01D
:1004A0008FB9779BFECF8FEF8FB9779BFECF8FB140
:1004B000C09A0895FF920F931F93CF93DF93EC019F
:1004C000162F072FF42E0E944E0280FDFCCF0E94B3
:1004D0004002C09882E08FB9779BFECFCE010E9488
:1004E000F901812F902F9C01F90190E006C08081D5
:1004F0008FB9779BFECF9F5F31969F15C0F3C09A4F
:10050000DF91CF911F910F91FF9008951F93CF938B
:10051000DF93EC01162F0E944E0280FDFCCF0E945B
:100520004002C09882E08FB9779BFECFCE010E9437
:10053000F9011FB9779BFECFC09ADF91CF911F9130
:1005400008958091C1008FB9779BFECF949A0000E7
:100550000000949808958F709091C100907F982B1F
:100560009093C1000E94A10208958295807F90918E
:10057000C1009F70982B9093C1000E94A102C49A61
:1005800082E390E001C0000001972FEF8F3F9207B8
:10059000D1F7C49808951F93182F82958F700E94E9
:1005A000B502812F0E94B50286E990E001C00000EB
:1005B00001972FEF8F3F9207D1F71F910895C398AE
:1005C0000E94CB0286E990E001C0000001972FEF66
:1005D0008F3F9207D1F7089583E00E94B50280E52E
:1005E00096E401C0000001972FEF8F3F9207D1F7EB
:1005F00083E00E94B5028CE795E101C000000197FD
:100600002FEF8F3F9207D1F783E00E94B5028CE76E
:1006100095E101C0000001972FEF8F3F9207D1F7BE
:1006200082E00E94B5028CE795E101C000000197CD
:100630002FEF8F3F9207D1F788E20E94DF028CE70D
:1006400095E101C0000001972FEF8F3F9207D1F78E
:1006500088E00E94DF028CE795E101C0000001976D
:100660002FEF8F3F9207D1F781E00E94DF028CE7E6
:1006700095E101C0000001972FEF8F3F9207D1F75E
:1006800082E00E94DF028CE795E101C00000019743
:100690002FEF8F3F9207D1F78CE00E94DF028CE7AB
:1006A00095E101C0000001972FEF8F3F9207D1F72E
:1006B000089581E00E94DF028CE795E101C000000F
:1006C00001972FEF8F3F9207D1F70895C39A0E94A9
:1006D000CB0282E390E001C0000001972FEF8F3F33
:1006E0009207D1F70895CF93DF93EC0102C00E94E7
:1006F0006603FE01219684918823C9F7DF91CF918B
:100700000895CF93DF93EC0103C021960E94660306
:1007100088818823D1F7DF91CF9108951F93CF93DC
:10072000DF93162FEC01C40FD11D04C021960E9447
:10073000660311508881882311F01123B9F7DF91E6
:10074000CF911F9108956068813009F4605C862F15
:100750000E94DF020895EF92FF920F931F938C0186
:100760007B010E945903C8010E94730381E060E08D
:100770000E94A303C7010E9473031F910F91FF9072
:10078000EF9008951F93142F0E94A30304C080E2EA
:100790000E94660311501123D1F71F910895CF9342
:1007A000DF9381E00E94CE01EC0183E0CC3FD807CB
:1007B00078F400000000000081E00E94CE01C80F24
:1007C000D91FD695C795C233D10510F481E018C062
:1007D00082E0C434D80710F482E012C082E0CC3B3F
:1007E000D80710F483E00CC083E0C631D80710F4BA
:1007F00084E006C0CE53D34010F080E001C085E015
:10080000DF91CF91089580919500882341F00E9457
:10081000CF03882311F41092950080E008950E9480
:10082000CF038093950008951F9310919400112396
:1008300049F00E94CF03882311F010E007C0109206
:10084000940004C00E94CF0380939400812F1F91D5
:100850000895D09AD89821E030E007C01092C200E5
:100860008091C20090E00C97DCF3215030408FEF74
:100870002F3F380799F7D0980895CF93DF9380E002
:100880000E94CE01EC018530910510F00E942904F0
:10089000CE01DF91CF9108951F920F920FB60F9264
:1008A00011248F939F9380919C0090919D000196BD
:1008B00090939D0080939C008091C2008F5F8093F5
:1008C000C2008091C3008F5F8093C30081508A3043
:1008D00008F484C08091B00080FF09C08091B1000D
:1008E0009091B20001969093B2008093B1008091F4
:1008F000B00081FF09C08091B3009091B4000196CF
:100900009093B4008093B3008091B00082FF09C03F
:100910008091B5009091B60001969093B6008093B7
:10092000B5008091B00083FF09C08091B70090911D
:10093000B80001969093B8008093B7008091B00002
:1009400084FF09C08091B9009091BA0001969093FC
:10095000BA008093B9008091B00085FF09C08091F2
:10096000BB009091BC0001969093BC008093BB00AB
:100970008091B00086FF09C08091BD009091BE00BB
:1009800001969093BE008093BD008091B00087FFD8
:1009900009C08091BF009091C00001969093C00063
:1009A0008093BF0080919E0080FF16C08091C4009C
:1009B0009091C500892B39F415BC80919E008E7FE3
:1009C00080939E0009C08091C4009091C50001975A
:1009D0009093C5008093C4001092C3009F918F91A3
:1009E0000F900FBE0F901F90189590919E009160F0
:1009F00090939E007093C5006093C400809583BD62
:100A00008EE185BD089590919E009E7F90939E00FB
:100A1000982F909593BD882319F08EE185BD089598
:100A200015BC08951092C200282F30E02F5F3F4F71
:100A30008091C20090E028173907D4F708959C01EF
:100A400009C01092C2008091C20090E00C97DCF3C4
:100A50002150304021153105A1F7089502C0000052
:100A600001970097E1F708951BBA87E088BB8CEFE8
:100A700085BB81E682BB1ABA8BEB87BB14BA82E9CD
:100A800081BBF89410BC89E189B91BB886E880BDA8
:100A900088E98AB917B886E186B910BE8FE085BFAC
:100AA0001BBE14BE8AE083BF87EC8CBF15BC8FEFE2
:100AB00083BD82E089BF80E58DB981E08EB97894ED
:100AC00008950F931F93462F0FE910E0B80150E0EF
:100AD0000E94CA06C8010E9481031F910F910895C8
:100AE000EF92FF920F931F93DF93CF93CDB7DEB7B3
:100AF00061970FB6F894DEBF0FBECDBF262F042F2F
:100B00007E010894E11CF11CB701422F50E00E94C5
:100B1000CA06F70101900020E9F73197EE19FF09A5
:100B2000102F1E1B11165CF4115080E30E94660307
:100B30001123D1F7CE0101960E94810306C01195C1
:100B4000C701602F412F0E948E0361960FB6F89463
:100B5000DEBF0FBECDBFCF91DF911F910F91FF90F0
:100B6000EF9008955D9BFECF8CB90895FC0104C001
:100B70005D9BFECF31968CB980818823C9F708959B
:100B800003C05D9BFECF2CB9FC010196249122236A
:100B9000C1F70895FC01E40FF11D05C05D9BFECF78
:100BA00031968CB961508081882311F06623B1F7AA
:100BB00008951F920F920FB60F9211242F938F93C7
:100BC0009F93EF93FF932091990080919800922F2B
:100BD000981B9032A8F480919700E82FF0E09CB128
:100BE000E953FF4F90838F5F809397002F5F20938F
:100BF0009900813210F0109297001092C60006C042
:100C00008CB180939B0081E08093C600FF91EF91AF
:100C10009F918F912F910F900FBE0F901F9018955D
:100C20001092C6009091980080919900891711F454
:100C3000E0E013C09F5F909398008091960081320E
:100C400010F01092960080919600E82FF0E0E953A2
:100C5000FF4FE0818F5F809396008E2F0895AC0147
:100C60001092C60020E016C09F5F9093980080917C
:100C70009600E82FF0E0E953FF4F9081FA01E20F70
:100C8000F11D90838F5F80939600813210F0109257
:100C900096002F5F9091980080919900891B86178C
:100CA00018F7822F08958091990090919800891BE0
:100CB000089557988CB180939A00109296001092E4
:100CC000970010929800109299001092C600579ABF
:100CD00008950F931F93DF93CF93CDB7DEB761973E
:100CE0000FB6F894DEBF0FBECDBF462F8E010F5F4B
:100CF0001F4FB80150E00E94CA06C8010E94B60505
:100D000061960FB6F894DEBF0FBECDBFCF91DF91D5
:100D10001F910F910895FF920F931F93DF93CF932D
:100D2000CDB7DEB761970FB6F894DEBF0FBECDBF6B
:100D3000262FF42E8E010F5F1F4FB801422F50E077
:100D40000E94CA06F80101900020E9F73197E01BE4
:100D5000F10B4F2D4E1B141664F480E341505D9B44
:100D6000FECF8CB94423D1F7CE0101960E94B6057F
:100D700005C04195C8016F2D0E94CA0561960FB646
:100D8000F894DEBF0FBECDBFCF91DF911F910F91C1
:100D9000FF900895FB019F01E8944230C4F0453272
:100DA000B4F44A3029F497FB1EF4909581959F4F37
:100DB000642F77270E94FB06805D8A330CF0895DE3
:100DC0008193CB010097A1F716F45DE25193108255
:100DD000C9010C94EB06DC01FC01672F71917723AC
:100DE000E1F7329704C07C916D9370836291AE17E6
:100DF000BF07C8F30895AA1BBB1B51E107C0AA1F78
:100E0000BB1FA617B70710F0A61BB70B881F991FAB
:100E10005A95A9F780959095BC01CD010895F89455
:020E2000FFCF02
:100E2200207C2041444332205B4C696E6B736163CA
:100E3200687465725D3A2000207C2041444335206D
:100E42005B4C696E6B73766F6F725D3A2000A10125
:040E520074014701DF
:00000001FF
