:100000000C9486010C94A4050C94C4050C94D80699
:100010000C9476060C94A3010C94A3010C94A301F8
:100020000C94A3010C94A3010C94A2080C94A301BA
:100030000C94A3010C94660F0C94A3010C94A301DF
:100040000C94A3010C94A3010C94A3010C94FE0F37
:100050000C94A3010A54686520526F626F74206E7D
:100060006565647320746F206265207265736574C2
:10007000746564206E6F772E0A0A00776974686968
:100080006E2074686520646566696E6564207469B5
:100090006D656F757421204D6179626520686527F3
:1000A00073206C6F636B6564207570210A0054685F
:1000B00065204D617374657220436F6E74726F6C4E
:1000C0006C657220646964206E6F74207265737051
:1000D0006F6E6420746F2074686520696E74657239
:1000E000727570742072657175657374730A00237C
:1000F0002323232320414C4C204F50455241544947
:100100004F4E532053544F5050454420544F20508D
:10011000524556454E5420414E592044414D414789
:1001200045212023232323230A0A000A0A23232309
:10013000232320454D455247454E435920534855AA
:1001400054444F574E2023232323230A0054686529
:1001500020526F626F74206E6565647320746F2027
:100160006265207265736574746564206E6F772EA6
:100170000A0A00596F75206E65656420746F2063EC
:100180006865636B204D6F746F7220617373656D6A
:10019000626C7920286F7220796F757220736F6698
:1001A0007477617265292E0A0A000A0A28732E20C4
:1001B0007461736B5F6D6F746F72436F6E74726F87
:1001C0006C28292066756E6374696F6E20696E20D5
:1001D0005250364C696221290A000A0A232323203F
:1001E0004D4F544F52204F56455243555252454E53
:1001F00054202323230A00596F75206E65656420FF
:10020000746F20636865636B20456E636F6465720D
:100210002F4D6F746F7220617373656D626C7920FE
:10022000286F7220796F757220736F6674776172B0
:1002300065292E0A0A00210A0A28732E2074617388
:100240006B5F6D6F746F72436F6E74726F6C282981
:100250002066756E6374696F6E20696E2052503629
:100260004C696221290A005249474854004C4546CE
:1002700054004166666563746564206368616E6EF0
:10028000656C3A000A23232320454E434F444552D0
:1002900020284F52204D4F544F5229204D414C465B
:1002A000554E4354494F4E21202323230A00232334
:1002B00023232320414C4C204F5045524154494F59
:1002C0004E532053544F5050454420544F205052C9
:1002D0004556454E5420414E592044414D414745D5
:1002E000212023232323230A000A0A232323232351
:1002F00020454D455247454E435920534855544497
:100300004F574E2023232323230A000011241FBE0E
:10031000CFE5D8E0DEBFCDBF10E0A0E6B0E0ECE274
:10032000F2E202C005900D92AC36B107D9F711E0A8
:10033000ACE6B0E001C01D92A536B107E1F70E941E
:100340006D040C9414110C940000109285000E940E
:10035000570D8091990082FF05C08091C80082608E
:100360008093C80008950E941006817090918F00BC
:100370009A7F20918E002470982B922B90938F005F
:1003800080918B00806880938B000E94A501089566
:10039000492F487020919700207F382F329536954D
:1003A000369533709770990F990F932BE7E9F0E02A
:1003B0003291392F36953695242B232B2093970095
:1003C0008F739295990F990F907C982B90838091C1
:1003D0008B00886080938B000E94A5010895909106
:1003E0009B009170990F80918B008D7F892B90914C
:1003F000F800992311F0846001C08B7F80938B00FB
:100400000E94A50108952091DA0021702295220F03
:10041000207E80918B008F799091E300917092956E
:10042000990F990F907C822B892B80938B000E94CF
:10043000A50108958091C8008D7F8093C800109217
:10044000CC001092CB0080919900877F8093990017
:1004500080918B00877780938B000E945A0D0895BE
:100460008091CF009091D0008B3F9105C8F0809192
:10047000FB009091FC002091600030916100820FA0
:10048000931F96958795909361008093600080916B
:100490006C008F5F80936C001092CC001092CB00A8
:1004A00080916C008630C8F020918B0080916000B4
:1004B0009091610020FD06C032E08033930758F42C
:1004C000216005C032E08534930728F02E7F209309
:1004D0008B000E94A50110926C008091B000909159
:1004E000B100009761F481E090E02091C00030916C
:1004F000C1002115310529F480E090E002C081E0BF
:1005000090E08170880F90918F00957E209171000E
:100510002370220F220F220F982B922B90938F0083
:10052000089580918700882309F09DC080918B00F9
:1005300080933501809199008093360180918F00DE
:10054000809337018091B000809338018091C00082
:10055000809339018091B2009091B30080933A0169
:100560008091F6009091F70080933B018091A0006C
:1005700080933C0180919E0080933D018091F40026
:100580009091F50080933E018091F4009091F500E8
:1005900090933F018091E8009091E90080934001A1
:1005A0008091E8009091E900909341019091BA0008
:1005B0008091BB0090934201809343019091E000B1
:1005C0008091E10090934401809345019091000156
:1005D0008091010190934601809347019091F10031
:1005E0008091F20090934801809349019091FB0023
:1005F0008091FC0090934A0180934B019091EE0012
:100600008091EF0090934C0180934D019091B80040
:100610008091B90090934E0180934F018091930097
:100620008093520190919700892F880F880F8072D4
:1006300020919600322F329536953695337097700B
:10064000990F990F932B892B809350012F7320932F
:10065000510180918500882331F0809186008823A4
:1006600011F40E941A02089580912501882321F136
:1006700080918800882311F58091250180939A004C
:10068000109225018091260180939100809127018D
:100690008093940080912801809395008091290196
:1006A0008093920080912A018093980080912B0181
:1006B0008093900081E0089580E0089580E008959F
:1006C0000E943403882309F4B6C080919A008630D2
:1006D00009F442C0873080F4833079F1843030F4FB
:1006E0008823F9F0813009F0A6C021C0843051F18F
:1006F000853009F0A0C029C0893009F450C08A3083
:1007000030F4873071F1883009F095C039C08B30F2
:1007100009F472C08B3008F468C08C3009F08BC0CB
:100720007BC00E948D08809199008E7F72C00E94CC
:1007300084088091990081606CC0809191000E9432
:10074000F50408950E941706089580919100609124
:1007500094000E94E9050895809191000E94F80597
:1007600008955091950040E080919200480F511DEE
:10077000809191006091940020E00E94DE0D089528
:100780005091950040E080919200480F511D80915A
:1007900091006091940020E00E94660D0895809180
:1007A0009100813081F0813030F0823089F08330E7
:1007B00009F041C012C00E9453080E946E08809147
:1007C00099008D7F26C00E9460080E94750809C0AC
:1007D0000E9460080E947A0804C00E9460080E947B
:1007E0007F0880919900826014C08091910060918F
:1007F00094000E945606089581E0909191009923FB
:1008000009F480E0982F990F990F809199008B7FC0
:10081000892B80939900089581E09091910099230C
:1008200009F480E0982F9295907F809199008F7EB7
:10083000892B8093990008951F932091990022FF9E
:100840004AC08091CB009091CC003BE0893B93075C
:1008500090F1F89497980E946E081ABC18BC1FBCBF
:100860000E948D088BE291E00E94D80E8FEE90E0FE
:100870000E94D80E8EEA90E00E94D80E8BE790E09E
:100880000E94D80E84E590E00E94D80E82E20E9479
:10089000F5041AE080E090E80E947F0A1150D1F739
:1008A00084E10E94F5041AE080E090E80E947F0A4B
:1008B0001150D1F7EBCF8091CD009091CE008B3FBE
:1008C000910548F02860209399000E94A50110929C
:1008D000CE001092CD001F9108950E94790E8FE3F3
:1008E0000E94F50484EF91E00E94720A80E00E9469
:1008F000F5048AE00E94F40F83E092E00E9404076E
:100900008FEE91E00E94120588EC91E00E94FF06B4
:1009100083EB91E00E94E4050E9484088091C80066
:1009200081608093C8000E9453080E946E08109254
:100930008B0010928F00109299008091C800846003
:100940008093C8008091C80088608093C8000E948E
:1009500060030E9430020E9491020E945D0D0E947D
:100960001C04F5CF08950895089508958091AF006F
:10097000843010F01092AF00089584E08093AF00AF
:10098000089587B38C7787BB88B38C7788BB8091B9
:10099000930083FF02C0BF9AC79A8091930084FF9F
:1009A00002C0B99AC19A8091930085FF02C0B89A9B
:1009B000C09A84B38F7884BB85B38F7885BB94B39A
:1009C00020919300822F82958077982B94BB95B3CA
:1009D000982B95BB8091AF00882321F481E02223DE
:1009E00009F480E08093AF000895809393000E9403
:1009F000C1040895C098B898000086B381709091A2
:100A0000930095FF02C0B89AC09A0895AE98A69830
:100A1000000083B380749091930092FF02C0A69A65
:100A2000AE9A089590936B0080936A0008951F9387
:100A30008091E7008333C0F00E94FA04182F0E94CF
:100A4000060590919B00911721F49091F80098175A
:100A500049F010939B008093F800E0916A00F091B8
:100A60006B0009951092E7001F91089536990AC00E
:100A7000806487B986ED86B93699FECF349A24B161
:100A800035B102C020E030E0C9010895806487B923
:100A900086ED86B908951F93369954C010917E0053
:100AA000133039F1143028F4113099F01230C8F4B1
:100AB00008C0153071F1153020F1163009F03FC033
:100AC00032C084B195B19093FC008093FB0086E026
:100AD00027C084B195B1909301018093000185E016
:100AE0001FC084B195B19093F2008093F10083E030
:100AF00017C084B195B19093BB008093BA0082E097
:100B00000FC084B195B19093E1008093E00080E044
:100B100007C084B195B19093EF008093EE0081E01F
:100B20000E9446050CC084B195B19093B9008093A2
:100B3000B80087E00E94460510927E0003C01F5F48
:100B400010937E001F9108951F920F920FB60F927F
:100B500011248F939F938091F4009091F50001965A
:100B60009093F5008093F4008091EC009091ED005B
:100B700001969093ED008093EC009F918F910F90E0
:100B80000FBE0F901F9018951F920F920FB60F92E5
:100B900011248F939F938091E8009091E900019632
:100BA0009093E9008093E8008091C2009091C30087
:100BB00001969093C3008093C2009F918F910F90F4
:100BC0000FBE0F901F901895909369008093680056
:100BD0000895893C08F088EC8093A0001092A10051
:100BE000693C08F068EC60939E0010929F000895A5
:100BF00080937100282F215091E0223008F090E07E
:100C000090936D00813039F021E030E0833029F09D
:100C100020E030E002C021E030E020936E00089533
:100C200090918E00937081E009F080E00895109219
:100C3000A1001092A00010929F0010929E001092AE
:100C4000AB001092AA001092E6001092E50080918D
:100C50008E008C7F80938E008093FA00E091680074
:100C6000F091690009950895633D08F062ED609385
:100C7000C0001092C100833D08F082ED8093B00067
:100C80001092B100089580936F006093700080937C
:100C90006D0060936E00882311F0AA9A01C0AA9893
:100CA000662311F0AB9A0895AB98089503C099B7E5
:100CB000906899BF9091A5009923C9F790E08F7330
:100CC000907026E0880F991F2A95E1F770E06F7306
:100CD0007070862B972B90639093C5008093C4000F
:100CE0008091A40080648093A40008951F920F92C5
:100CF0000FB60F9211242F938F939F9380916300CF
:100D00008230B0F520917D002223C1F02C3338F4DD
:100D10008091DE009091DF0096FF07C008C08091AF
:100D2000DE009091DF0096FF02C0979803C082B367
:100D3000805882BB215020937D0032C08091A50055
:100D40008823A1F097988091DE009091DF00880FB2
:100D5000991F9093DF008093DE0088E780937D00E9
:100D60008091A50081508093A5001AC0979818C063
:100D70008091A900882391F08091A40080FD05C096
:100D800088B390E4892788BB03C085B3805885BBAE
:100D90008091A90081508093A90002C0C69AAF9AA1
:100DA0009F918F912F910F900FBE0F901F901895CC
:100DB0001F920F920FB60F9211248F9380916300B0
:100DC000833011F0863079F48091A40084FD0BC04B
:100DD0008091A40085FF07C0B29905C08091F900F9
:100DE0008F5F8093F90086B38091A4008D7F8093FC
:100DF000A4008F910F900FBE0F901F9018959093A5
:100E00006500809364000895909367008093660066
:100E100008958091BC009091BD008230910508F446
:100E200041C18091A40084FD1CC180916300823087
:100E300009F469C0833030F4882371F0813009F0FF
:100E400016C111C0853009F4B0C0863009F4C5C0A0
:100E5000833009F00CC16FC089B78F7789BF97982D
:100E6000C69AAF9A04C18091A500882351F580915C
:100E7000A40086FF14C08091C4009091C500909397
:100E8000DF008093DE008EE08093A5008091A400B7
:100E90008F7B8093A40089B7806889BF06C089B71B
:100EA0008F7789BF9798C69AAF9A80917C00982FC8
:100EB0009F5F90937C00843138F082E080936300E0
:100EC00003C089B7806889BF8091A40083FFCFC029
:100ED000E0916400F09165008091FD009091FE002A
:100EE00009958091FD009091FE009093AD00809354
:100EF000AC001092FE001092FD008091A400877F4C
:100F00008093A400B4C089B78F7789BF9798C69A99
:100F1000AF9A1092A9001092F90010927B001092E3
:100F20007A008091A4008E7F80628093A40083E089
:100F300080937C0077C08091A900882381F4809100
:100F40007C00982F9F5F90937C00833040F089B79E
:100F5000806889BF88E28093A90010927C0080910C
:100F6000DA00882321F08091F900823020F480910A
:100F7000F900863038F01092F90081E08093DA00B1
:100F800085E050C080917A0090917B009C012F5F9A
:100F90003F4F30937B0020937A008E30910508F408
:100FA00066C01092DA0085E051C089B78F7789BF9B
:100FB0009798C69AAF9A1092A9001092F9001092D1
:100FC0007B0010927A008091A40081628093A4003B
:100FD00083E080937C0086E025C08091A90088236F
:100FE00081F480917C00982F9F5F90937C008330E8
:100FF00040F089B7806889BF88E28093A900109289
:101000007C008091E300882321F08091F9008230F8
:1010100020F48091F900863040F01092F90081E0D0
:101020008093E3008093630022C080917A009091C6
:101030007B009C012F5F3F4F30937B0020937A0011
:101040008E309105A0F01092E30081E08093630060
:1010500089B78F7789BF9798C69AAF9A1092A900DF
:1010600006C010927B0010927A0010927C00809152
:10107000DA0090917900981731F4209178009091DE
:10108000E300291759F0809379008091E300809361
:101090007800E0916600F091670009951092BD001C
:1010A0001092BC0008951092630089B78F7789BFB2
:1010B0009798C69AAF9A1092E3001092DA000895BA
:1010C00089B78F7789BF9798C69AAF9A1092E30035
:1010D0001092DA0081E08093630008958E989698CC
:1010E000BB98C398C698AF9808958E9A969ABB9865
:1010F000C39808958E989698BB9AC39A08958E9A2D
:10110000969ABB9AC39A0895C49A8091AF0084308E
:1011100018F483E08093AF000895C4988091AF00E5
:10112000843078F4882349F481E090E020919300A2
:10113000222329F480E090E002C081E090E08093D7
:10114000AF0008951F920F920FB60F9211242F93A4
:101150003F934F935F936F937F938F939F93AF933F
:10116000BF9380918C0090918D00019690938D009B
:1011700080938C008091F0008F5F8093F0008091CD
:10118000F300982F9F5F9093F3008A3008F449C1D1
:101190008091C80080FF09C08091C9009091CA0069
:1011A00001969093CA008093C9008091C80081FF86
:1011B00009C08091CB009091CC0001969093CC0017
:1011C0008093CB008091C80082FF09C08091CD0040
:1011D0009091CE0001969093CE008093CD008091A7
:1011E000C80083FF09C08091CF009091D000019684
:1011F0009093D0008093CF008091C80084FF09C0F5
:101200008091D1009091D20001969093D20080936A
:10121000D1008091C80085FF09C08091D3009091D2
:10122000D40001969093D4008093D3008091C8009D
:1012300086FF09C08091D5009091D60001969093C9
:10124000D6008093D5008091C80087FF09C08091A7
:10125000D7009091D80001969093D8008093D70042
:101260008091E400982F9F5F9093E400893CE8F020
:101270008091C2009091C3009093F7008093F60094
:101280008091EC009091ED009093B3008093B200B8
:101290001092C3001092C2001092ED001092EC0068
:1012A00081E08093AE001092E4004091AF004330A3
:1012B00008F053C0423089F580919300882309F5E6
:1012C00080917600909177009C012F5F3F4F309383
:1012D00077002093760068EC70E00E949A100097E7
:1012E000E1F58FE0213A380728F0B998C1981092BB
:1012F000AF0029C087B3842787BB88B3842788BB06
:101300002CC084FD02C0B998C19810927700109249
:10131000760081E08093AF0020C0809176009091AC
:1013200077002EE2813E920798F0413049F4109206
:10133000AF008091930084FD06C0B998C19803C0A6
:1013400082E08093AF00109277001092760005C083
:10135000019690937700809376008091BC009091E5
:10136000BD008330910548F48091BC009091BD0090
:1013700001969093BD008093BC008091DC00873380
:1013800018F48F5F8093DC008091E700843328F4A9
:101390008091E7008F5F8093E7008091E200982FB3
:1013A0009F5F9093E2008330D0F14091DD00242FC5
:1013B00030E08091C0009091C1002817390759F0A2
:1013C0002817390714F44F5F01C041504093DD00E6
:1013D0008091DD008ABD4091FF00242F30E0809194
:1013E000B0009091B1002817390759F02817390734
:1013F00014F44F5F01C041504093FF008091FF0003
:1014000088BD8091FF00882321F48091DD0088232E
:1014100019F082EA8FBD01C01FBC1092E200109249
:10142000F3003091A40033FD47C080917200909189
:101430007300209174002F5F20937400263190F088
:1014400096FD09C095FF07C09093FE008093FD00B4
:1014500038603093A4008091A4008F7E8093A40014
:1014600080E090E03091750026B3232722FF20C052
:1014700030953093750020917400273040F48091AE
:10148000A4008F7E8093A40080E090E004C00097C9
:1014900011F02F3068F02091A40020612093A40067
:1014A00096FD02C0880F991F32FF81601092740070
:1014B0009093730080937200BF91AF919F918F9131
:1014C0007F916F915F914F913F912F910F900FBE40
:1014D0000F901F9018951092F0009091F0009817BF
:1014E000E0F30895CF93DF93EC0104C08AE00E94FB
:1014F0006B0A21972097D1F7DF91CF91089502C011
:10150000000001970097E1F708950F931F93182F9C
:10151000F89497980E946E081092B1001092B00053
:101520001092C1001092C0001092AB001092AA005D
:101530001092E6001092E5001092FF001092DD007C
:101540001ABC18BC1FBC0E948D0889EE92E00E9454
:10155000D80E8EEA92E00E94D80E812F8150823000
:10156000C0F484E892E00E94D80E82E792E00E94E4
:10157000D80E113019F48DE692E002C087E692E0B1
:101580000E94D80E86E392E00E94D80E87EF91E089
:101590000CC0133061F48AED91E00E94D80E8AEA03
:1015A00091E00E94D80E83E791E00E94D80E8DE46E
:1015B00091E00E94D80E06E3009393000E94C104BC
:1015C0001AE080E090E80E947F0A1150D1F7109253
:1015D00093000E94C1041AE08FEF9FEF0E947F0AE0
:1015E0001150D1F7E9CF8091DC00823308F47EC03E
:1015F0001092DC008091D900882309F043C08091CB
:1016000000019091010123E08330920740F4809122
:10161000F1009091F20043E083309407F0F0809164
:10162000DB008F5F8093DB008AE08093D90010920B
:10163000B1001092B0001092C1001092C000109240
:10164000AB001092AA001092E6001092E500809183
:101650008E00846080938E00089580918E008B7F31
:1016600080938E008091A600853628F01092DB00D2
:101670001092A60007C08091DB00833018F083E051
:101680000E94850A8091000190910101863991059F
:1016900098F48091B2009091B300009769F4809122
:1016A000A0009091A100009739F08091FF00873948
:1016B00018F081E00E94850A8091F1009091F2007B
:1016C0008639910598F48091F6009091F700009783
:1016D00069F480919E0090919F00009739F080916D
:1016E000DD00873918F082E00E94850A8091AE0003
:1016F000882309F4CEC18091D900882309F0C4C1A0
:101700008091DB00882331F08091A6008F5F809369
:10171000A60002C01092A60040918E0041FF39C081
:101720002091F4003091F50080919C0090919D00F3
:101730002817390780F01092A1001092A000109293
:10174000AB001092AA001092B1001092B0004D7F31
:1017500040938E001EC02091F4003091F5008091DE
:10176000B4009091B5002817390798F08091A00037
:101770009091A100969587959093A1008093A000E9
:101780008631910530F486E190E09093A10080933A
:10179000A00040918E0040FF39C02091E8003091B8
:1017A000E9008091BE009091BF002817390780F0B2
:1017B00010929F0010929E001092E6001092E50099
:1017C0001092C1001092C0004E7F40938E001EC048
:1017D0002091E8003091E9008091EA009091EB00BF
:1017E0002817390798F080919E0090919F00969558
:1017F000879590939F0080939E008631910530F4E9
:1018000086E190E090939F0080939E0090916D0000
:1018100080916F00981739F490916E00809170005C
:10182000981709F47CC08091A0009091A1000097C6
:1018300039F420919E0030919F002115310561F10E
:101840009093A3008093A20080919E0090919F00AE
:101850009093B7008093B6001092A1001092A00060
:1018600010929F0010929E008091AA009091AB0070
:1018700022E030E0B9010E94AE107093AB0060939B
:10188000AA008091E5009091E600B9010E94AE1097
:101890007093E6006093E5008091F6009091F70068
:1018A0008A319105D8F48091B2009091B3008A31C9
:1018B0009105A0F48091A0009091A100009771F48F
:1018C00080919E0090919F00009741F41092C1007A
:1018D0001092C0001092B1001092B0008FB5882312
:1018E000F1F480916D0060916E000E94430680913A
:1018F000A2009091A3009093A1008093A0008091FA
:10190000B6009091B70090939F0080939E00109234
:10191000AB001092AA001092E6001092E500209110
:10192000A0003091A1008091B2009091B300A90174
:10193000481B590BCA014091AA005091AB00840F7B
:10194000951F9093AB008093AA0051E0853A9507CC
:1019500034F084EA91E09093AB008093AA008091E8
:10196000AA009091AB004EEF8C35940734F48CE5CF
:101970009EEF9093AB008093AA008091B20090916B
:10198000B300009739F42115310521F41092AB0012
:101990001092AA008091AA009091AB0062E070E0E2
:1019A0000E94AE107093B1006093B000633D71056A
:1019B00034F082ED90E09093B1008093B00080917C
:1019C000B0009091B10097FF04C01092B100109246
:1019D000B00020919E0030919F008091F600909180
:1019E000F700A901481B590BCA014091E50050912D
:1019F000E600840F951F9093E6008093E50051E088
:101A0000853A950734F084EA91E09093E60080935C
:101A1000E5008091E5009091E6004EEF8C3594074B
:101A200034F48CE59EEF9093E6008093E50080917E
:101A3000F6009091F700009739F42115310521F453
:101A40001092E6001092E5008091E5009091E6008A
:101A500062E070E00E94AE107093C1006093C0001D
:101A6000633D710534F082ED90E09093C100809366
:101A7000C0008091C0009091C10097FF08C01092F3
:101A8000C1001092C00003C081508093D900109211
:101A9000AE0080918E009091FA00981739F08093F3
:101AA000FA00E0916800F091690009950895D49AD0
:101AB000DC9A0895DC98D49808950E944B050E9402
:101AC00009070E9417050E94F30A0895FF920F93D9
:101AD0001F93CF93DF93182F062FF22E80918E0045
:101AE000836080938E00BA0180E090E020EB32E0CA
:101AF00040E050E00E947B1024E630E040E050E0FF
:101B00000E94C110E901C901845690409093EB00F6
:101B10008093EA009093B5008093B4003093BF00A7
:101B20002093BE0030939D0020939C002832310505
:101B3000B0F484E190E09093BF008093BE00909356
:101B40009D0080939C008AE090E09093EB0080934E
:101B5000EA009093B5008093B400C8E2D0E0812FF2
:101B6000612F0E94E905802F0E94F8051092F50070
:101B70001092F4001092E9001092E800D093C70090
:101B8000C093C600D093A800C093A70080918E0098
:101B90008093FA00E0916800F09169000995FF20B8
:101BA00019F406C00E945D0D0E9410068823D1F32F
:101BB000DF91CF911F910F91FF900895EF92FF92C7
:101BC0001F93DF93CF930F92CDB7DEB7982F162FC9
:101BD0007A0180918E00836080938E001092EB00DA
:101BE0001092EA001092B5001092B400973180F084
:101BF00046EF5FEF491B5109440F551F4E0D5F1D06
:101C00005093EB004093EA005093B5004093B4002A
:101C1000A701425050405093BF004093BE005093E4
:101C20009D0040939C0088E2E816F104C0F444E172
:101C300050E05093BF004093BE0050939D004093EE
:101C40009C004AE050E05093EB004093EA00509330
:101C5000B5004093B400E8E2EE2EF12C05C0E0E9B7
:101C6000EE16E1E0FE0698F4993288F0C7019695E9
:101C7000879596958795A701481B590B5093EB00C4
:101C80004093EA005093B5004093B40098E210925C
:101C9000F5001092F4001092E9001092E800892FEC
:101CA000692F29830E94E905812F0E94F805F0928F
:101CB000C700E092C600F092A800E092A7008091D1
:101CC0008E008093FA00E0916800F0916900099518
:101CD0002981222319F406C00E945D0D0E9410067E
:101CE0008823D1F30F90CF91DF911F91FF90EF9058
:101CF00008951F931BBA18BA15BA11E012BB1ABA8D
:101D000088E587BB8CE884BB82EF81BBF894C598DB
:101D1000BD9A87B397980E946E0810BC8CE089B971
:101D20001BB886E880BD88E98AB917B886E186B90C
:101D300010BE85E085BF80EE8BBF14BE8AE083BFF6
:101D400083E68CBF82EA8FBD81E18EBD82ED90E09B
:101D500097BD86BD1ABC18BC80E060E00E944306B7
:101D600089E085BD8EE683BD82E089BF8091A400B5
:101D700081608093A4001093630078941F9108956C
:101D80005D9BFECF8CB90895EF92FF92CF93DF93C6
:101D9000E82EE7017E01F92EE70102C00E94C00E85
:101DA00089918823D9F7DF91CF91FF90EF90089523
:101DB000CF93DF93EC0102C00E94C00EFE0121967A
:101DC00084918823C9F7DF91CF9108950F931F93D2
:101DD000DF93CF930F92CDB7DEB78C01040F111DA7
:101DE00005C069830E94C00E69816150F80181912C
:101DF0008F01882311F06623A1F70F90CF91DF9117
:101E00001F910F9108950F931F93DF93CF93CDB739
:101E1000DEB761970FB6F894DEBF0FBECDBF462F79
:101E20008E010F5F1F4FB80150E00E94E310C80100
:101E30000E94C40E61960FB6F894DEBF0FBECDBFF0
:101E4000CF91DF911F910F910895EF92FF920F9321
:101E50001F93DF93CF93CDB7DEB761970FB6F8949A
:101E6000DEBF0FBECDBF262FF42E8E010F5F1F4F9A
:101E7000B801422F50E00E94E310F80101900020C9
:101E8000E9F73197E01BF10B4F2D4E1BE42E141692
:101E90005CF4EA9480E30E94C00E1E14D4F3CE01D9
:101EA00001960E94C40E05C04195C8016F2D0E9485
:101EB000E60E61960FB6F894DEBF0FBECDBFCF9190
:101EC000DF911F910F91FF90EF9008951F920F9255
:101ED0000FB60F9211242F938F939F93EF93FF933D
:101EE0009091820080918100292F281B2032A8F434
:101EF00080918000E82FF0E02CB1ED5FFE4F208351
:101F00008F5F809380009F5F90938200813210F0FA
:101F1000109280001092020106C08CB18093840060
:101F200081E080930201FF91EF919F918F912F911A
:101F30000F900FBE0F901F90189510920201809184
:101F40008100909182009817A1F08F5F80938100AB
:101F500080917F00813210F010927F0090917F007D
:101F6000E92FF0E0ED5FFE4F80819F5F90937F004F
:101F7000089580E008959C011092020180E016C04F
:101F80004F5F4093810090917F00E92FF0E0ED5F7B
:101F9000FE4F4081F901E80FF11D40838F5F9F5F85
:101FA00090937F00913210F010927F004091810059
:101FB00090918200941B961718F7089580918200E3
:101FC00090918100891B089557988CB1809383006C
:101FD00010927F0010928000109281001092820077
:101FE00010920201579A0895F89482B98FEF83B93D
:101FF00084E086BF789485EC86BF08951F920F9287
:102000000FB60F9211248F939F93EF93FF9381B19B
:10201000803909F458C0813948F4803709F44FC039
:102020008038A1F1803609F05BC02BC0883A61F09E
:10203000893A20F4803A09F053C04AC0883B51F0F5
:10204000803C09F04DC013C084E08093890081E09A
:1020500080938700809189008430C1F580918A0047
:10206000E82FF0E0EB5CFE4F908193B924C0109212
:10207000890010928A001092870081E08093850089
:1020800025C081E08093880082E01AC08091890099
:10209000823039F483B180938A008093860083E094
:1020A0000FC0833099F480918A00E82FF0E093B15B
:1020B000EB5DFE4F90838F5F80938A0007C081E0C5
:1020C0008093890003C083B18093240185EC09C00B
:1020D00085E08093890085EC86BF1092880002C05D
:1020E00084E886BFFF91EF919F918F910F900FBE73
:1020F0000F901F901895629FD001739FF001829FEF
:10210000E00DF11D649FE00DF11D929FF00D839F86
:10211000F00D749FF00D659FF00D9927729FB00D23
:10212000E11DF91F639FB00DE11DF91FBD01CF0136
:1021300011240895AA1BBB1B51E107C0AA1FBB1F96
:10214000A617B70710F0A61BB70B881F991F5A9543
:10215000A9F780959095BC01CD01089597FB092EB4
:1021600007260AD077FD04D0E5DF06D000201AF458
:10217000709561957F4F0895F6F7909581959F4FE3
:102180000895A1E21A2EAA1BBB1BFD010DC0AA1FB8
:10219000BB1FEE1FFF1FA217B307E407F50720F0D0
:1021A000A21BB30BE40BF50B661F771F881F991F4B
:1021B0001A9469F760957095809590959B01AC0194
:1021C000BD01CF010895FB019F01E8944230C4F0A6
:1021D0004532B4F44A3029F497FB1EF4909581956A
:1021E0009F4F642F77270E949A10805D8A330CF0EE
:1021F000895D8193CB010097A1F716F45DE25193BD
:102200001082C9010C940411DC01FC01672F71914B
:102210007723E1F7329704C07C916D9370836291CC
:0C222000AE17BF07C8F30895F894FFCF75
:0C222C00D0020101B404B504B304B204F4
:00000001FF
