:100000000C9487000C94EB000C9417010C944301A2
:100010000C94A4000C94A4000C94A4000C94A400D0
:100020000C94A4000C94A4000C94AC020C94A400B6
:100030000C94A4000C94B1050C94A4000C94A4009E
:100040000C94A4000C94A4000C94A4000C94A70895
:100050000C94A400466F6E74797320494354205465
:10006000323100526573637565626F7473002323C8
:100070002323232323232323232323232323002373
:100080002323232323232323232323232323230063
:100090000A0A526573637565626F74732054323156
:1000A0000A00646973743336303A0064656C7461B5
:1000B0003A00746F74616C64656C74613A00636FCC
:1000C00073743A000A493243204552524F52202D50
:1000D000205457492053544154453A203078000069
:1000E000506C616365206D652061743A0000427256
:1000F000696566696E673A006272696566696E670E
:100100002E0057616974696E6720666F7200112452
:100110001FBECFE5D8E0DEBFCDBF10E0A0E6B0E067
:10012000E2EAF1E202C005900D92A039B107D9F7D9
:1001300014E0A0E9B0E001C01D92A83AB107E1F7D0
:100140000E94DE000C94CF100C9400000E94DE048C
:100150000E941D0B80E990E00E9423058FE00E9421
:1001600046028FE790E06EE670E00E94870484E626
:1001700068E270E00E94550388E690E00E947D03EB
:100180008AEA68E270E00E94550388E290E00E94EB
:100190007D0380E991E00E947D0380E00E94460299
:1001A00083E690E064E570E00E94870488EE93E0C7
:1001B0000E947D0308950E94810C08950E94A6006C
:1001C0000E94810CFDCF08950895089590936500D5
:1001D0008093640008951F920F920FB60F9211241E
:1001E0002F933F934F935F936F937F938F939F933F
:1001F000AF93BF93EF93FF93E0916400F09165009C
:100200000995FF91EF91BF91AF919F918F917F9150
:100210006F915F914F913F912F910F900FBE0F9073
:100220001F901895909363008093620008951F9229
:100230000F920FB60F9211242F933F934F935F931A
:100240006F937F938F939F93AF93BF93EF93FF939E
:10025000E0916200F09163000995FF91EF91BF91E9
:10026000AF919F918F917F916F915F914F913F914E
:100270002F910F900FBE0F901F90189590936100D3
:100280008093600008951F920F920FB60F92112471
:100290002F933F934F935F936F937F938F939F938E
:1002A000AF93BF93EF93FF93E0916000F0916100F3
:1002B0000995FF91EF91BF91AF919F918F917F91A0
:1002C0006F915F914F913F912F910F900FBE0F90C3
:1002D0001F90189536990AC0806487B986ED86B953
:1002E0003699FECF349A24B135B102C020E030E017
:1002F000C90108958FB9779BFECF08958FEF0E94B3
:100300007A018FB10895EF92FF92CF93DF930E940D
:100310007E01982F80E0EC010E947E01282F30E0C2
:100320002C2B3D2BC901DF91CF91FF90EF900895C9
:100330001F93182F892F0E947A01812F0E947A0122
:100340001F910895282F392FF90180E005C0919160
:100350009FB9779BFECF8F5F8617C8F30895282F2C
:10036000392FF90180E09FEF06C09FB9779BFECF40
:100370002FB121938F5F8617C0F30895CF93DF933A
:10038000EC01C09883E00E947A01CE010E9498019E
:100390000E947E01C09ADF91CF910895EF92FF9263
:1003A0000F931F93DF93CF930F92CDB7DEB77C01EE
:1003B0008B01C09883E049830E947A01C7010E94A3
:1003C0009801C8014981642F0E94AF01C09A0F9023
:1003D000CF91DF911F910F91FF90EF900895C098FA
:1003E00086E00E947A01C09A0895C09884E00E9435
:1003F0007A01C09A0895C09885E00E947A010E940F
:100400007E01C09A0895FF920F931F93CF93DF93BD
:10041000EC018B01F42E0E94FB0180FDFCCF0E94B9
:10042000EF01C09882E00E947A01CE010E949801FB
:10043000C8016F2D0E94A201C09ADF91CF911F9138
:100440000F91FF9008951F93CF93DF93EC01162F28
:100450000E94FB0180FDFCCF0E94EF01C09882E06A
:100460000E947A01CE010E949801812F0E947A0198
:10047000C09ADF91CF911F91089580912E040E9420
:100480007A01949A00000000949808958F709091DA
:100490002E04907F982B90932E040E943D02089585
:1004A000CF93DF9381E00E946A01EC0183E0CC3FAF
:1004B000D80788F400000000000081E00E946A0173
:1004C000C80FD91FD695C795C233D10590F082E0E9
:1004D000C434D80780F082E0CC3BD80770F083E0CA
:1004E000C631D80760F083E0CE33D80750F485E0FA
:1004F00009C081E007C082E005C083E003C084E05A
:1005000001C080E0DF91CF91089580919100882310
:1005100039F00E945002882341F41092910008950E
:100520000E94500280939100089580E008951F93E7
:1005300010919000112339F00E945002882341F459
:100540001092900006C00E9450028093900001C05B
:1005500010E0812F1F9108951F920F920FB60F92F6
:1005600011248F939F938091E7009091E80001966A
:100570009093E8008093E70080912F048F5F809331
:100580002F0480913004982F9F5F909330048A301D
:1005900008F484C080911D0480FF09C080911E046E
:1005A00090911F04019690931F0480931E048091E4
:1005B0001D0481FF09C080912004909121040196BF
:1005C000909321048093200480911D0482FF09C030
:1005D00080912204909123040196909323048093A8
:1005E000220480911D0483FF09C08091240490910E
:1005F00025040196909325048093240480911D0482
:1006000084FF09C08091260490912704019690935D
:1006100027048093260480911D0485FF09C08091E2
:10062000280490912904019690932904809328042A
:1006300080911D0486FF09C080912A0490912B04AB
:10064000019690932B0480932A0480911D0487FFC8
:1006500009C080912C0490912D04019690932D0453
:1006600080932C0480910B0480FF16C0809131048C
:1006700090913204009739F415BC80910B048E7F61
:1006800080930B0409C0809131049091320401974A
:100690009093320480933104109230049F918F9193
:1006A0000F900FBE0F901F90189590910B049160C2
:1006B00090930B047093320460933104809583BD52
:1006C0008EE185BD089590910B049E7F90930B045D
:1006D000982F909593BD882319F08EE185BD0895DC
:1006E00015BC089510922F0490E0019620912F04DC
:1006F00030E082179307D4F70895CF93DF93EC018E
:1007000004C08AE00E94720321972097D1F7DF91FD
:10071000CF910895D09AD89881E090E00E947D030F
:10072000D0980895EF92FF92CF93DF9380E00E94DC
:100730006A01EC018530910510F00E948A03CE0118
:10074000DF91CF91FF90EF90089502C000000197D4
:100750000097E1F708958295807F90912E049F7015
:10076000982B90932E040E943D02C49A82E390E05D
:100770000E94A503C49808951F93182F82958F7027
:100780000E94AB03812F0E94AB0386E990E00E9498
:10079000A5031F910895C39A0E94BC0382E390E0D1
:1007A0000E94A50308950F931F93DF93CF930F9299
:1007B000CDB7DEB78C01040F111D05C069830E94FF
:1007C000CB0369816150F80181918F01882311F079
:1007D0006623A1F70F90CF91DF911F910F9108959C
:1007E000EF92FF92CF93DF93E82EE7017E01F92E7F
:1007F000E70102C00E94CB0389918823D9F7DF91DA
:10080000CF91FF90EF900895CF93DF93462FCCE0E8
:10081000D4E0BE0150E00E949E10CE010E94F00381
:10082000DF91CF910895EF92FF920F931F93DF9383
:10083000CF93CDB7DEB761970FB6F894DEBF0FBE8A
:10084000CDBF262FF42E8E010F5F1F4FB801422F10
:1008500050E00E949E10F80101900020E9F73197C6
:10086000E01BF10B4F2D4E1BE42E14165CF4EA94A2
:1008700080E30E94CB031E14D4F3CE0101960E94A4
:10088000F00305C04195C8016F2D0E94D303619606
:100890000FB6F894DEBF0FBECDBFCF91DF911F9191
:1008A0000F91FF90EF900895CF93DF93EC0102C07A
:1008B0000E94CB03FE01219684918823C9F7DF9122
:1008C000CF910895C3980E94BC0386E990E00E94EE
:1008D000A50308956068813009F4605C862F0E944A
:1008E000620408951F93142F0E946A0404C080E2DA
:1008F0000E94CB0311501123D1F71F91089581E07D
:100900000E9462048CE795E10E94A50308950F936D
:100910001F93CF93DF938C01EB010E947F04C801EA
:100920000E94540481E060E00E946A04CE010E94AB
:100930005404DF91CF911F910F91089583E00E949D
:10094000AB0380E596E40E94A50383E00E94AB031D
:100950008CE795E10E94A50383E00E94AB038CE73E
:1009600095E10E94A50382E00E94AB038CE795E12C
:100970000E94A50388E20E9462048CE795E10E9430
:10098000A50388E00E9462048CE795E10E94A5031C
:1009900081E00E9462048CE795E10E94A50382E059
:1009A0000E9462048CE795E10E94A5038CE00E94FE
:1009B00062048CE795E10E94A50308951BBA87E0C5
:1009C00088BB8CEF85BB81E682BB1ABA8BEB87BBF9
:1009D00014BA82E981BBF89410BC89E189B91BB8CB
:1009E00086E880BD88E98AB917B886E186B910BE65
:1009F0008FE085BF1BBE14BE8AE083BF87EC8CBF2F
:100A000015BC8FEF83BD82E089BF80E58DB981E0A1
:100A10008EB9789408955D9BFECF8CB90895EF92BE
:100A2000FF92CF93DF93E82EE7017E01F92EE701D5
:100A300002C00E940B0589918823D9F7DF91CF91DD
:100A4000FF90EF900895CF93DF93EC0102C00E94D6
:100A50000B05FE01219684918823C9F7DF91CF9180
:100A600008950F931F93DF93CF930F92CDB7DEB707
:100A70008C01040F111D05C069830E940B0569815B
:100A80006150F80181918F01882311F06623A1F74D
:100A90000F90CF91DF911F910F9108950F931F93A6
:100AA000DF93CF93CDB7DEB761970FB6F894DEBF73
:100AB0000FBECDBF462F8E010F5F1F4FB80150E014
:100AC0000E949E10C8010E940F0561960FB6F8940F
:100AD000DEBF0FBECDBFCF91DF911F910F91089563
:100AE000EF92FF920F931F93DF93CF93CDB7DEB7B3
:100AF00061970FB6F894DEBF0FBECDBF262FF42E40
:100B00008E010F5F1F4FB801422F50E00E949E10D0
:100B1000F80101900020E9F73197E01BF10B4F2D10
:100B20004E1BE42E14165CF4EA9480E30E940B053D
:100B30001E14D4F3CE0101960E940F0505C0419505
:100B4000C8016F2D0E94310561960FB6F894DEBF83
:100B50000FBECDBFCF91DF911F910F91FF90EF900E
:100B600008951F920F920FB60F9211242F938F9317
:100B70009F93EF93FF939091950080919400292F7C
:100B8000281B2032A8F480919300E82FF0E02CB1CC
:100B9000EC5CFB4F20838F5F809393009F5F90936B
:100BA0009500813210F0109293001092330406C029
:100BB0008CB18093970081E080933304FF91EF9193
:100BC0009F918F912F910F900FBE0F901F901895AE
:100BD0001092330480919400909195009817A1F0A1
:100BE0008F5F8093940080919200813210F0109278
:100BF000920090919200E92FF0E0EC5CFB4F808135
:100C00009F5F90939200089580E008959C01109258
:100C1000330480E016C04F5F40939400909192009F
:100C2000E92FF0E0EC5CFB4F4081F901E80FF11D8A
:100C300040838F5F9F5F90939200913210F01092EB
:100C400092004091940090919500941B961718F78C
:100C500008958091950090919400891B089557986C
:100C60008CB1809396001092920010929300109293
:100C700094001092950010923304579A08950895A5
:100C80000895F89480B911B88FEF83B984E086BFD6
:100C90008091980081608093980078940895909353
:100CA00067008093660008959093690080936800C0
:100CB0000895DF93CF930F92CDB7DEB786E989838E
:100CC0008981982F915099838823D1F70F90CF91E4
:100CD000DF91089506B600FCFDCF2091980020FF1B
:100CE0000CC0E2EBF0E0DC0170E06E0F7F1F02C091
:100CF00081918D93E617F707D9F7089506B600FCA2
:100D0000FDCF80919900089506B600FC5FC08091E8
:100D1000980080FF43C080919F00882309F456C04B
:100D2000813091F40E94590682E08093A000909156
:100D30009A009093A10090919B009093A200109232
:100D4000980095EA96BF15C08230B1F40E9459060A
:100D500080919C008F5F8093A00080919A008160B9
:100D600080939A008093A1001092980085EA86BF34
:100D700083E080939F000895833041F510929F0097
:100D800080919D0090919E002FEF8F3F9207F1F090
:100D9000E0916600F0916700099508950E947E0633
:100DA0008823A1F010929F009091980091609093F9
:100DB000980010929A0010929E0010929D0010923E
:100DC0009C00E0916800F091690009950895DF9317
:100DD000CF9300D000D0CDB7DEB70AC02C834B83B1
:100DE0006A8389830E94840689816A814B812C8170
:100DF00006B600FCF3CF90919F00992379F791E01C
:100E000090939F0060939D0010929E0080939A00A3
:100E100040939B0020939C000F900F900F900F9099
:100E2000CF91DF910895DF93CF9300D00F92CDB78C
:100E3000DEB708C04B836A8389830E948406898158
:100E40006A814B8106B600FCF5CF90919F009923F3
:100E500089F792E090939F0080939A0060939D00A1
:100E600010929E0040939C000F900F900F90CF9196
:100E7000DF910895EF92FF920F931F93DF93CF932B
:100E80000F92CDB7DEB7162F7A01022F04C08983E7
:100E90000E948406898106B600FCF9CF90919F00DC
:100EA0009923A9F791E090939F0080939A008FEF88
:100EB0009FEF90939E0080939D0010939B00009362
:100EC0009C0002C00E94840606B600FCFBCF809105
:100ED0009F008823B9F78091980080FF05C0602F9C
:100EE0006F5FC7010E946A060F90CF91DF911F913B
:100EF0000F91FF90EF9008950F931F93CF93DF937F
:100F0000182FEB01042F02C00E94840606B600FCD5
:100F1000FBCF80919F008823B9F70E94590682E099
:100F200080939F0010939A008FEF9FEF90939E0005
:100F300080939D0000939C0002C00E94840606B628
:100F400000FCFBCF80919F008823B9F78091980027
:100F500080FF05C0602F6F5FCE010E946A06DF919F
:100F6000CF911F910F9108951F93182F02C00E94D7
:100F7000840606B600FCFBCF80919F008823B9F75A
:100F80000E94590682E080939F0010939A008FEF91
:100F90009FEF90939E0080939D0081E080939C0042
:100FA00002C00E94840680919F008823D1F780911F
:100FB000980080FF03C08091B20001C080E01F91C3
:100FC00008950F931F93182F062F02C00E948406C6
:100FD00006B600FCFBCF80919F008823B9F70E94E2
:100FE000590682E08093A0001093A1000093A20014
:100FF0001092980085EA86BF1F910F910895FF9285
:101000000F931F93182F062FF42E02C00E94840600
:1010100006B600FCFBCF80919F008823B9F70E94A1
:10102000590683E08093A0001093A1000093A200D2
:10103000F092A3001092980085EA86BF1F910F914D
:10104000FF900895EF92FF920F931F93182F062F92
:10105000F42EE22E02C00E94840606B600FCFBCFEE
:1010600080919F008823B9F70E94590684E08093FD
:10107000A0001093A1000093A200F092A300E092C0
:10108000A4001092980085EA86BF1F910F91FF90EF
:10109000EF900895DF92EF92FF920F931F93182F16
:1010A000F62EE42ED22E02C00E94840606B600FC64
:1010B000FBCF80919F008823B9F70E94590685E0F5
:1010C0008093A0001093A100F092A200E092A300F0
:1010D000D092A4000093A5001092980085EA86BFE4
:1010E0001F910F91FF90EF90DF900895EF92FF9284
:1010F0000F931F93182F062FF72EE42E02C00E9485
:10110000840606B600FCFBCF80919F008823B9F7C8
:101110000E945906E394E092A0001093A100802F52
:101120009F2DDC01E2EAF0E04E2D50E04E0F5F1FF4
:1011300002C08D918193E417F507D9F710929800BA
:1011400085EA86BF1F910F91FF90EF9008951F923F
:101150000F920FB60F9211242F933F938F939F936B
:10116000EF93FF9381B18832C9F0893240F4803126
:1011700099F0883199F0883009F04BC00DC0803467
:1011800041F1813420F4883309F043C03DC08035FB
:10119000A9F08835F1F52BC01092E1008091E100B3
:1011A0009091A000891750F5E82FF0E0EF55FF4F20
:1011B000908193B98F5F8093E10017C08091E10027
:1011C00093B1E82FF0E0EF54FF4F90838F5F80934F
:1011D000E1002091E10030E08091A00090E00197D3
:1011E0002817390714F485EC18C085E816C083B1B8
:1011F000E091E100F0E0EF54FF4F80838091980090
:1012000081608093980008C081B18093990085EA3D
:1012100004C081B18093990084E986BFFF91EF916A
:101220009F918F913F912F910F900FBE0F901F9024
:101230001895089508950895089508950895909330
:101240006D0080936C0008959093750080937400F6
:10125000089590936F0080936E00089590936B00B3
:1012600080936A00089590937100809370000895B0
:10127000909373008093720008958AE063E046E5DE
:1012800054E028E10E943A078091560480937A0442
:1012900080915704809380048091580480937B044C
:1012A0008091590480938D0480915A0480936F0437
:1012B00080915B0480936E0490915D0480E02091A6
:1012C0005C04820F911D90938C0480938B04909109
:1012D0005F0480E020915E04820F911D909386044C
:1012E000809385049091610480E020916004820FD6
:1012F000911D90937F0480937E049091630480E01D
:1013000020916204820F911D909383048093820444
:101310009091650480E020916404820F911D909368
:101320009204809391049091670480E02091660478
:10133000820F911D90938A0480938904909169048F
:1013400080E020916804820F911D90939004809317
:101350008F0490916B0480E020916A04820F911DAC
:10136000909388048093870490916D0480E020918D
:101370006C04820F911D90937D0480937C040895EA
:101380008091E200882359F4829B09C081E0809318
:10139000E2008AE060E040E023E00E94E706089572
:1013A0000F931F93DF93CF9300D0CDB7DEB7882381
:1013B00009F092C083E994E063E00E946A062091FC
:1013C00093040091E60002272093E60010E0C80194
:1013D00080769070009789F0822F82958695817033
:1013E000809381042295269526952170209384046C
:1013F000E0916A00F0916B000995C80186709070C9
:10140000009789F08091E600982F969591709093BF
:10141000550486958695817080938E04E0916C00CA
:10142000F0916D00099503FF1CC08AE06BE10E94FA
:10143000E1078AE0BE016F5F7F4F42E00E947C07B8
:10144000E0916E00F0916F00298130E086E0220F7C
:10145000331F8A95E1F78A8190E0282B392BC90147
:10146000099500FF1DC08AE065E10E94E1078AE05E
:10147000BE016F5F7F4F42E00E947C073A8120E00F
:10148000898190E0822B932B9093900480938F041A
:101490008091E600E0917000F091710081700995F3
:1014A0008091940480930A0483FF05C0E091720048
:1014B000F09173000995809195048093E9008091E3
:1014C000E60087FF05C0E0917400F0917500099572
:1014D0001092E20081E001C080E00F900F90CF9168
:1014E000DF911F910F91089502C00E94840606B6F5
:1014F00000FCFBCF80919F008823B9F786E090E045
:101500000E947D030E94C00902C00E94840606B6A4
:1015100000FCFBCF80919F008823B9F708950F93BB
:10152000282F062F8AE060E045E00E944A0802C0AA
:101530000E94840606B600FCFBCF80919F008823A2
:10154000B9F70F910895282F8AE060E046E00E94E5
:10155000220802C00E94840606B600FCFBCF8091E0
:101560009F008823B9F708958AE060E044E00E9474
:10157000FF070E94740A0895DF93CF930F92CDB7AF
:10158000DEB71092700498E0909371048093720417
:101590006093730450937404409375048AE060E789
:1015A00074E046E029830E9476080E94740A29812B
:1015B000222349F004C00E94C0090E948406809141
:1015C000E90080FFF8CF0F90CF91DF910895DF936E
:1015D000CF930F92CDB7DEB71092700497E090933F
:1015E0007104809372046093730450937404409365
:1015F00075048AE060E774E046E029830E9476087B
:101600000E94740A2981222349F004C00E94C00963
:101610000E9484068091E90080FFF8CF0F90CF915F
:10162000DF9108958091E3009091E40001969093FA
:10163000E4008093E300089508950E949E040E94B0
:10164000500E0E94970C0E940D0F82E19BE00E94B9
:10165000AC0C8CE19BE00E94B10C0E94E10D8091EA
:10166000EE006091F0000E944E0F0E94500288230D
:10167000E1F381E08093A3040895FC0180819181CE
:10168000FB0120813181821B930B9C01B9018827CA
:1016900077FD8095982F0E94880F9B01AC010E94D6
:1016A000EC0F0E94550FCB0162E070E00E948B109E
:1016B000CB0108952F923F924F925F926F927F924B
:1016C0008F929F92AF92BF92CF92DF92EF92FF9252
:1016D0000F931F93DF93CF93CDB7DEB760970FB60D
:1016E000F894DEBF0FBECDBF84E065E00E94900E8F
:1016F0008C0183E065E00E94900E7C0185E065E04E
:101700000E94900E6C0182E065E00E94900E1A83A8
:101710000983FC82EB82DE82CD8298878F834091A1
:1017200078005091790088E262E021E00E94E70AA7
:10173000CC24DD2488E2882E83E2982EAA24BB24C0
:1017400002E010E01E010894211C311C01C0470179
:1017500084E065E00E94900E7C0183E065E00E94D9
:10176000900E3C0185E065E00E94900E2C0182E025
:1017700065E00E94900EFA86E9867C866B865E861E
:101780004D86988B8F87CE010996B1010E943D0B43
:101790007C018EEB90E00E942305C7016AE00E9465
:1017A0004E0586E790E00E940F051016110614F40E
:1017B00062E001C063E0A80117FF04C04427552779
:1017C000401B510B88E221E00E94E70AA00EB11EE7
:1017D00082EB90E00E942305C5016AE00E944E055D
:1017E00086E790E00E940F05C114D10469F19401CD
:1017F0002E193F09C90137FF04C088279927821B8A
:10180000930B64E170E00E948B10121613061CF417
:1018100081E090E002C08FEF9FEF869F8001879F5D
:10182000100D969F100D11248BEA90E00E94230565
:10183000C8016AE00E944E0586E790E00E940F050D
:101840008AE5E816F10444F00894C11CD11C84E632
:10185000C816D10409F07BCF0A0D1B1D80917800BA
:1018600090917900800F911F909379008093780078
:1018700082EA90E00E94230580917800909179009F
:101880006AE00E944E0586E790E00E940F05609690
:101890000FB6F894DEBF0FBECDBFCF91DF911F9181
:1018A0000F91FF90EF90DF90CF90BF90AF909F90FF
:1018B0008F907F906F905F904F903F902F90089502
:1018C00015C00E94B50E882319F40E94B50D0CC0F6
:1018D0000E94FD0E882341F00E94D90E882311F04A
:1018E0000E94CB0D0E94CB0D0E94B60C8091E500AA
:1018F000882339F383E08093A30408951092A3040E
:1019000008958091A304813019F0823049F406C013
:101910000E945A0B82E08093A30402C00E94600CD4
:101920000E943B0F0E94AB0C08950895089583E038
:101930008093A60480918B0090918C0020918D0063
:1019400030918E00820F931F969587959093A504F2
:101950008093A40408950895909382008093810059
:1019600008959093800080937F0008959F92AF9296
:10197000BF92CF92DF92EF92FF920F931F93CF937C
:10198000DF9381E08093A604E0917F00F0918000D6
:10199000099540917A0050917B0080917C0060E035
:1019A00020E00E94E70ADD24CC24BB24AA24C5C081
:1019B00085E00E946A018C0182E00E946A017C013C
:1019C00084E00E946A01EC0183E00E946A019C01AC
:1019D00080918B0090918C000817190748F041E026
:1019E00050E060918D0070918E006017710710F4C7
:1019F00040E050E0942EE816F90648F041E050E04F
:101A000060918D0070918E006E157F0510F440E09E
:101A100050E0E42FC817D90748F041E050E060914A
:101A20008D0070918E006C177D0710F440E050E03F
:101A3000F42F2817390748F081E090E040918D009D
:101A400050918E004217530710F480E090E0482F29
:101A5000992041F1EE2331F1C8018E199F0960915F
:101A60007D0070E00E947710A62EFF2351F0C80180
:101A70008C1B9D0B60917E0070E00E947710C62E3B
:101A800013C0442351F0C701821B930B60917E0069
:101A900070E00E947710C62E42C08091A404C02E30
:101AA000C81A3DC0FF23D9F14423C9F1CE01821BDE
:101AB000930B60917D0070E00E947710B62E992004
:101AC00061F0CE01801B910B60917E0070E00E945E
:101AD0007710D62EEE2399F422C0EE2351F0C901DF
:101AE0008E199F0960917E0070E00E947710D62EBB
:101AF00016C08091A4049E01281BD22E10C02E0D6A
:101B00003F1D36952795C00FD11FD695C7952C0F31
:101B10003D1F369527953093A5042093A40480910A
:101B20007C009C2D9A0D6D2D6B0D680F890F0E9406
:101B30008F0A0E94C0090E9484068091E90080FFFC
:101B400037CF83E08093A604E0918100F09182007A
:101B50000995DF91CF911F910F91FF90EF90DF904A
:101B6000CF90BF90AF909F90089582E08093A6049D
:101B7000809178009091790064E070E00E948B1071
:101B8000AB0180917C0062E021E00E94BC0A83E00E
:101B90008093A604089582E08093A6048091780043
:101BA0009091790064E070E00E948B10AB0180910D
:101BB0007C0063E021E00E94BC0A83E08093A604DD
:101BC00008951F930E942F060E94400F0E9429062D
:101BD0008823E1F381E08093A7040E94E805182F91
:101BE0000E94E805682F1093EE001092EF0080939A
:101BF000F0001092F100812F90E070E00E94470FFA
:101C00001092A70488EE93E00E947D031F9108952F
:101C1000823699F0833618F48136E9F405C08336AC
:101C200031F08436C1F406C0E0E0F0E008C0E2E044
:101C3000F0E005C0E3E0F0E002C0E1E0F0E0ED57E5
:101C4000FF4F413021F48081862B80830895609579
:101C50008081862380830895823699F0833618F434
:101C60008136E9F405C0833631F08436C1F406C00C
:101C7000E0E0F0E008C0E2E0F0E005C0E3E0F0E022
:101C800002C0E1E0F0E0E957FF4F413021F48081EC
:101C9000862B8083089560958081862380830895B4
:101CA0008AB38093830087B38093840084B3809346
:101CB000850081B3809386008BB38093870088B3BF
:101CC0008093880085B38093890082B380938A00D3
:101CD00008958091A604813079F48091810488234D
:101CE00021F480918404882339F082E864E670E06E
:101CF0000E9455030E94B40A08951F93182F84EC84
:101D000090E00E942305812F90E060E10E944E0543
:101D10008AE00E940B051F9108950E94D009089542
:101D2000EF92FF920F931F93DF93CF930F92CDB754
:101D3000DEB7182F062FEE24FF2408C0812F6983F9
:101D40000E946A01E80EF91E015069810023B1F773
:101D5000C70170E00E947710CB010F90CF91DF9107
:101D60001F910F91FF90EF900895CF93DF9385E03F
:101D70000E946A01EC0182E00E946A01282F392F3B
:101D80002C173D0708F49E0180918B0090918C00E8
:101D90002817390748F081E090E040918D0050917C
:101DA0008E004217530710F480E090E0DF91CF914E
:101DB0000895CF93DF9384E00E946A01EC0183E0F1
:101DC0000E946A01282F392F2C173D0708F49E0125
:101DD00080918B0090918C002817390748F081E0A2
:101DE00090E040918D0050918E004217530710F4FF
:101DF00080E090E0DF91CF91089580918404882362
:101E000049F481E090E020918104222329F480E0CC
:101E100090E0089581E090E0089589E69EE00E94B8
:101E20002E0988E40E9441068DE79EE00E94540638
:101E30008DE89EE00E944F0688EE93E00E947D03AD
:101E40008AE060E049E022E00E94220881E660E248
:101E500040E00E94080E81E660E140E00E94080E2A
:101E600081E668E040E00E94080E81E664E040E020
:101E70000E94080E08950E94C0090E9484060895D9
:101E800082E091E068EF70E00E94870408958EEE92
:101E900090E06DEE70E00E948704089580EE90E07F
:101EA0006FED70E00E948704089504D06894B1112A
:101EB0008DC0089570D088F09F5790F0B92F992762
:101EC000B751A0F0D1F0660F771F881F991F1AF045
:101ED000BA95C9F712C0B13081F077D0B1E008955A
:101EE00074C0672F782F8827B85F39F0B93FCCF3DB
:101EF000869577956795B395D9F73EF4909580953B
:101F0000709561957F4F8F4F9F4F0895E89409C05A
:101F100097FB3EF490958095709561957F4F8F4F1C
:101F20009F4F9923A9F0F92F96E9BB279395F69532
:101F3000879577956795B795F111F8CFFAF4BB0FB0
:101F400011F460FF1BC06F5F7F4F8F4F9F4F16C014
:101F5000882311F096E911C0772321F09EE8872F9E
:101F6000762F05C0662371F096E8862F70E060E05A
:101F70002AF09A95660F771F881FDAF7880F9695D3
:101F8000879597F9089557FD9058440F551F59F0BC
:101F90005F3F71F04795880F97FB991F61F09F3F56
:101FA00079F087950895121613061406551FF2CF7F
:101FB0004695F1DF08C0161617061806991FF1CFCF
:101FC00086957105610508940895E894BB276627F6
:101FD0007727CB0197F908950BD078C069D028F006
:101FE0006ED018F0952309F05AC05FC01124EECFCF
:101FF000CADFA0F3959FD1F3950F50E0551F629F64
:10200000F001729FBB27F00DB11D639FAA27F00D51
:10201000B11DAA1F649F6627B00DA11D661F829F78
:102020002227B00DA11D621F739FB00DA11D621F5D
:10203000839FA00D611D221F749F3327A00D611D7A
:10204000231F849F600D211D822F762F6A2F11245C
:102050009F5750408AF0E1F088234AF0EE0FFF1FAF
:10206000BB1F661F771F881F91505040A9F79E3FE6
:10207000510570F014C0AACF5F3FECF3983EDCF33B
:10208000869577956795B795F795E7959F5FC1F723
:10209000FE2B880F911D9695879597F9089597F9CE
:1020A0009F6780E870E060E008959FEF80EC0895FE
:1020B00000240A9416161706180609060895002427
:1020C0000A9412161306140605060895092E0394A1
:1020D000000C11F4882352F0BB0F40F4BF2B11F415
:1020E00060FF04C06F5F7F4F8F4F9F4F0895AA1B03
:1020F000BB1B51E107C0AA1FBB1FA617B70710F0F3
:10210000A61BB70B881F991F5A95A9F78095909524
:10211000BC01CD01089597FB092E07260AD077FD53
:1021200004D0E5DF06D000201AF4709561957F4F4A
:102130000895F6F7909581959F4F0895FB019F01B3
:10214000E8944230C4F04532B4F44A3029F497FBA5
:102150001EF4909581959F4F642F77270E947710EA
:10216000805D8A330CF0895D8193CB010097A1F7E4
:1021700016F45DE251931082C9010C94BF10DC018A
:10218000FC01672F71917723E1F7329704C07C91AE
:102190006D9370836291AE17BF07C8F30895F894EA
:0221A000FFCF6F
:1021A200E500E400E3003F0640061C0919091B098B
:1021B2001D091E091A090A00F00A88132806069644
:1021C2000C950C0B0000000B000000F401F4010060
:00000001FF
