:100000000C94C4000C9428010C9454010C948001AD
:100010000C94E1000C94E1000C94E1000C94E100DC
:100020000C94E1000C94E1000C94E9020C94E100C2
:100030000C94E1000C94EE050C94E1000C94E100AA
:100040000C94E1000C94E1000C94E1000C94E408A1
:100050000C94E100466F6E74797320494354205428
:10006000323100526573637565626F7473002323C8
:100070002323232323232323232323232323002373
:100080002323232323232323232323232323230063
:100090000A0A526573637565626F74732054323156
:1000A0000A00646973743336303A0064656C7461B5
:1000B0003A00746F74616C64656C74613A00636FCC
:1000C00073743A000A493243204552524F52202D50
:1000D000205457492053544154453A203078000069
:1000E0005475726E696E6720313830000054757235
:1000F0006E696E6720526967687400004D6F76699B
:100100006E6720466F727761726400005475726E7C
:10011000696E67204C65667400004C656176696E97
:10012000672043656C6C0000456E746572696E678C
:100130002043656C6C0050726F6365737300537479
:1001400061727465642046696E64696E6700004C74
:100150003A20202020523A0000506C616365206DE7
:10016000652061743A00004272696566696E673A9B
:10017000006272696566696E672E0057616974690D
:100180006E6720666F72000011241FBECFE5D8E0B5
:10019000DEBFCDBF10E0A0E6B0E0E2EDF6E202C0C7
:1001A00005900D92AA3CB107D9F715E0AAECB0E092
:1001B00001C01D92A934B107E1F70E941B010C9404
:1001C00067130C9400000E941B050E94510C80E9EB
:1001D00090E00E9460058FE00E9483028FE790E02C
:1001E0006EE670E00E94C40484E668E270E00E945B
:1001F000920388E690E00E94BA038AEA68E270E01F
:100200000E94920388E290E00E94BA0380E991E0A4
:100210000E94BA0380E00E94830283E690E064E5D6
:1002200070E00E94C40488EE93E00E94BA0308952F
:100230000E94260E08950E94E3000E94260EFDCF24
:10024000089508950895909365008093640008953B
:100250001F920F920FB60F9211242F933F934F933B
:100260005F936F937F938F939F93AF93BF93EF931E
:10027000FF93E0916400F09165000995FF91EF9183
:10028000BF91AF919F918F917F916F915F914F91AE
:100290003F912F910F900FBE0F901F901895909344
:1002A00063008093620008951F920F920FB60F9221
:1002B00011242F933F934F935F936F937F938F936B
:1002C0009F93AF93BF93EF93FF93E0916200F09100
:1002D00063000995FF91EF91BF91AF919F918F912D
:1002E0007F916F915F914F913F912F910F900FBE32
:1002F0000F901F901895909361008093600008956F
:100300001F920F920FB60F9211242F933F934F938A
:100310005F936F937F938F939F93AF93BF93EF936D
:10032000FF93E0916000F09161000995FF91EF91DA
:10033000BF91AF919F918F917F916F915F914F91FD
:100340003F912F910F900FBE0F901F9018953699E7
:100350000AC0806487B986ED86B93699FECF349A93
:1003600024B135B102C020E030E0C90108958FB951
:10037000779BFECF08958FEF0E94B7018FB108954C
:10038000EF92FF92CF93DF930E94BB01982F80E002
:10039000EC010E94BB01282F30E02C2B3D2BC90122
:1003A000DF91CF91FF90EF9008951F93182F892F21
:1003B0000E94B701812F0E94B7011F910895282F35
:1003C000392FF90180E005C091919FB9779BFECF4D
:1003D0008F5F8617C8F30895282F392FF90180E021
:1003E0009FEF06C09FB9779BFECF2FB121938F5F00
:1003F0008617C0F30895CF93DF93EC01C09883E094
:100400000E94B701CE010E94D5010E94BB01C09A93
:10041000DF91CF910895EF92FF920F931F93DF9397
:10042000CF930F92CDB7DEB77C018B01C09883E0EC
:1004300049830E94B701C7010E94D501C8014981C3
:10044000642F0E94EC01C09A0F90CF91DF911F9111
:100450000F91FF90EF900895C09886E00E94B70139
:10046000C09A0895C09884E00E94B701C09A089588
:10047000C09885E00E94B7010E94BB01C09A089510
:10048000FF920F931F93CF93DF93EC018B01F42E18
:100490000E94380280FDFCCF0E942C02C09882E0AE
:1004A0000E94B701CE010E94D501C8016F2D0E94A4
:1004B000DF01C09ADF91CF911F910F91FF900895B6
:1004C0001F93CF93DF93EC01162F0E94380280FD1B
:1004D000FCCF0E942C02C09882E00E94B701CE019E
:1004E0000E94D501812F0E94B701C09ADF91CF9160
:1004F0001F9108958091CD040E94B701949A000045
:100500000000949808958F709091CD04907F982B5F
:100510009093CD040E947A020895CF93DF9381E0F7
:100520000E94A701EC0183E0CC3FD80788F40000CB
:100530000000000081E00E94A701C80FD91FD695D6
:10054000C795C233D10590F082E0C434D80780F05B
:1005500082E0CC3BD80770F083E0C631D80760F06A
:1005600083E0CE33D80750F485E009C081E007C0AE
:1005700082E005C083E003C084E001C080E0DF9139
:10058000CF9108958091CB00882339F00E948D028D
:10059000882341F41092CB0008950E948D0280932D
:1005A000CB00089580E008951F931091CA00112395
:1005B00039F00E948D02882341F41092CA0006C0CF
:1005C0000E948D028093CA0001C010E0812F1F910C
:1005D00008951F920F920FB60F9211248F939F933D
:1005E00080912101909122010196909322018093A4
:1005F00021018091CE048F5F8093CE048091CF043F
:10060000982F9F5F9093CF048A3008F484C0809124
:10061000BC0480FF09C08091BD049091BE04019686
:100620009093BE048093BD048091BC0481FF09C0F7
:100630008091BF049091C00401969093C004809370
:10064000BF048091BC0482FF09C08091C1049091D5
:10065000C20401969093C2048093C1048091BC04AB
:1006600083FF09C08091C3049091C40401969093C4
:10067000C4048093C3048091BC0484FF09C08091AA
:10068000C5049091C60401969093C6048093C50456
:100690008091BC0485FF09C08091C7049091C80473
:1006A00001969093C8048093C7048091BC0486FF90
:1006B00009C08091C9049091CA0401969093CA041C
:1006C0008093C9048091BC0487FF09C08091CB044A
:1006D0009091CC0401969093CC048093CB048091AC
:1006E000AA0480FF16C08091D0049091D104009795
:1006F00039F415BC8091AA048E7F8093AA0409C0A6
:100700008091D0049091D10401979093D10480936B
:10071000D0041092CF049F918F910F900FBE0F9035
:100720001F9018959091AA0491609093AA047093D9
:10073000D1046093D004809583BD8EE185BD08957A
:100740009091AA049E7F9093AA04982F909593BDB0
:10075000882319F08EE185BD089515BC0895109287
:10076000CE0490E001962091CE0430E082179307EA
:10077000D4F70895CF93DF93EC0104C08AE00E9480
:10078000AF0321972097D1F7DF91CF910895D09AA9
:10079000D89881E090E00E94BA03D0980895EF9233
:1007A000FF92CF93DF9380E00E94A701EC01853098
:1007B000910510F00E94C703CE01DF91CF91FF9009
:1007C000EF90089502C0000001970097E1F70895A7
:1007D0008295807F9091CD049F70982B9093CD044B
:1007E0000E947A02C49A82E390E00E94E203C498D5
:1007F00008951F93182F82958F700E94E803812F10
:100800000E94E80386E990E00E94E2031F910895A8
:10081000C39A0E94F90382E390E00E94E2030895E4
:100820000F931F93DF93CF930F92CDB7DEB78C0159
:10083000040F111D05C069830E940804698161507D
:10084000F80181918F01882311F06623A1F70F90A1
:10085000CF91DF911F910F910895EF92FF92CF9367
:10086000DF93E82EE7017E01F92EE70102C00E9426
:10087000080489918823D9F7DF91CF91FF90EF90F9
:100880000895CF93DF93462FCBEAD4E0BE0150E02A
:100890000E943613CE010E942D04DF91CF9108955E
:1008A000EF92FF920F931F93DF93CF93CDB7DEB7F5
:1008B00061970FB6F894DEBF0FBECDBF262FF42E82
:1008C0008E010F5F1F4FB801422F50E00E94361378
:1008D000F80101900020E9F73197E01BF10B4F2D53
:1008E0004E1BE42E14165CF4EA9480E30E94080484
:1008F0001E14D4F3CE0101960E942D0405C041952B
:10090000C8016F2D0E94100461960FB6F894DEBFE7
:100910000FBECDBFCF91DF911F910F91FF90EF9050
:100920000895CF93DF93EC0102C00E940804FE01FA
:10093000219684918823C9F7DF91CF910895C398B8
:100940000E94F90386E990E00E94E203089560683E
:10095000813009F4605C862F0E949F0408951F93E4
:10096000142F0E94A70404C080E20E9408041150C2
:100970001123D1F71F91089581E00E949F048CE715
:1009800095E10E94E20308950F931F93CF93DF93A5
:100990008C01EB010E94BC04C8010E94910481E01B
:1009A00060E00E94A704CE010E949104DF91CF91E4
:1009B0001F910F91089583E00E94E80380E596E47B
:1009C0000E94E20383E00E94E8038CE795E10E9425
:1009D000E20383E00E94E8038CE795E10E94E203D2
:1009E00082E00E94E8038CE795E10E94E20388E23E
:1009F0000E949F048CE795E10E94E20388E00E9438
:100A00009F048CE795E10E94E20381E00E949F042D
:100A10008CE795E10E94E20382E00E949F048CE74C
:100A200095E10E94E2038CE00E949F048CE795E12F
:100A30000E94E20308951BBA87E088BB8CEF85BB58
:100A400081E682BB1ABA8BEB87BB14BA82E981BB01
:100A5000F89410BC89E189B91BB886E880BD88E9A3
:100A60008AB917B886E186B910BE8FE085BF1BBE74
:100A700014BE8AE083BF87EC8CBF15BC8FEF83BDAB
:100A800082E089BF80E58DB981E08EB978940895C0
:100A90005D9BFECF8CB90895EF92FF92CF93DF93C9
:100AA000E82EE7017E01F92EE70102C00E94480509
:100AB00089918823D9F7DF91CF91FF90EF90089526
:100AC000CF93DF93EC0102C00E944805FE012196FE
:100AD00084918823C9F7DF91CF9108950F931F93D5
:100AE000DF93CF930F92CDB7DEB78C01040F111DAA
:100AF00005C069830E94480569816150F8018191B0
:100B00008F01882311F06623A1F70F90CF91DF9119
:100B10001F910F9108950F931F93DF93CF93CDB73C
:100B2000DEB761970FB6F894DEBF0FBECDBF462F7C
:100B30008E010F5F1F4FB80150E00E943613C801AD
:100B40000E944C0561960FB6F894DEBF0FBECDBF74
:100B5000CF91DF911F910F910895EF92FF920F9324
:100B60001F93DF93CF93CDB7DEB761970FB6F8949D
:100B7000DEBF0FBECDBF262FF42E8E010F5F1F4F9D
:100B8000B801422F50E00E943613F8010190002076
:100B9000E9F73197E01BF10B4F2D4E1BE42E141695
:100BA0005CF4EA9480E30E9448051E14D4F3CE015D
:100BB00001960E944C0505C04195C8016F2D0E9409
:100BC0006E0561960FB6F894DEBF0FBECDBFCF9114
:100BD000DF911F910F91FF90EF9008951F920F9258
:100BE0000FB60F9211242F938F939F93EF93FF9340
:100BF0009091CF008091CE00292F281B2032A8F49D
:100C00008091CD00E82FF0E02CB1ED52FB4F208316
:100C10008F5F8093CD009F5F9093CF00813210F063
:100C20001092CD001092D20406C08CB18093D100F6
:100C300081E08093D204FF91EF919F918F912F914A
:100C40000F900FBE0F901F9018951092D2048091B4
:100C5000CE009091CF009817A1F08F5F8093CE00C7
:100C60008091CC00813210F01092CC009091CC0099
:100C7000E92FF0E0ED52FB4F80819F5F9093CC0015
:100C8000089580E008959C011092D20480E016C07F
:100C90004F5F4093CE009091CC00E92FF0E0ED52F1
:100CA000FB4F4081F901E80FF11D40838F5F9F5F8B
:100CB0009093CC00913210F01092CC004091CE0075
:100CC0009091CF00941B961718F708958091CF004C
:100CD0009091CE00891B089557988CB18093D000D5
:100CE0001092CC001092CD001092CE001092CF0046
:100CF0001092D204579A089508950895F89480B9EF
:100D000011B88FEF83B984E086BF8091D2008160F3
:100D10008093D20078940895909367008093660042
:100D2000089590936900809368000895DF93CF93AE
:100D30000F92CDB7DEB786E989838981982F9150CC
:100D400099838823D1F70F90CF91DF91089506B64C
:100D500000FCFDCF2091D20020FF0CC0ECEEF0E0B3
:100D6000DC0170E06E0F7F1F02C081918D93E6174A
:100D7000F707D9F7089506B600FCFDCF8091D300A0
:100D8000089506B600FC5FC08091D20080FF43C08A
:100D90008091D900882309F456C0813091F40E94D3
:100DA000960682E08093DA009091D4009093DB0065
:100DB0009091D5009093DC001092D20095EA96BFF6
:100DC00015C08230B1F40E9496068091D6008F5FE4
:100DD0008093DA008091D40081608093D400809366
:100DE000DB001092D20085EA86BF83E08093D900B1
:100DF0000895833041F51092D9008091D7009091E9
:100E0000D8002FEF8F3F9207F1F0E0916600F0914C
:100E10006700099508950E94BB068823A1F01092EF
:100E2000D9009091D20091609093D2001092D4009A
:100E30001092D8001092D7001092D600E09168006E
:100E4000F091690009950895DF93CF9300D000D009
:100E5000CDB7DEB70AC02C834B836A8389830E9497
:100E6000C10689816A814B812C8106B600FCF3CFD3
:100E70009091D900992379F791E09093D9006093EC
:100E8000D7001092D8008093D4004093D5002093CF
:100E9000D6000F900F900F900F90CF91DF91089593
:100EA000DF93CF9300D00F92CDB7DEB708C04B834E
:100EB0006A8389830E94C10689816A814B8106B653
:100EC00000FCF5CF9091D900992389F792E0909397
:100ED000D9008093D4006093D7001092D80040933B
:100EE000D6000F900F900F90CF91DF910895EF9261
:100EF000FF920F931F93DF93CF930F92CDB7DEB77F
:100F0000162F7A01022F04C089830E94C1068981AD
:100F100006B600FCF9CF9091D9009923A9F791E08A
:100F20009093D9008093D4008FEF9FEF9093D800D7
:100F30008093D7001093D5000093D60002C00E9482
:100F4000C10606B600FCFBCF8091D9008823B9F713
:100F50008091D20080FF05C0602F6F5FC7010E94A3
:100F6000A7060F90CF91DF911F910F91FF90EF9007
:100F700008950F931F93CF93DF93182FEB01042F46
:100F800002C00E94C10606B600FCFBCF8091D900CA
:100F90008823B9F70E94960682E08093D9001093C7
:100FA000D4008FEF9FEF9093D8008093D7000093E9
:100FB000D60002C00E94C10606B600FCFBCF80919D
:100FC000D9008823B9F78091D20080FF05C0602F37
:100FD0006F5FCE010E94A706DF91CF911F910F9105
:100FE00008951F93182F02C00E94C10606B600FC88
:100FF000FBCF8091D9008823B9F70E94960682E042
:101000008093D9001093D4008FEF9FEF9093D80076
:101010008093D70081E08093D60002C00E94C10671
:101020008091D9008823D1F78091D20080FF03C03E
:101030008091EC0001C080E01F9108950F931F93F1
:10104000182F062F02C00E94C10606B600FCFBCF77
:101050008091D9008823B9F70E94960682E0809398
:10106000DA001093DB000093DC001092D20085EAD6
:1010700086BF1F910F910895FF920F931F93182F12
:10108000062FF42E02C00E94C10606B600FCFBCF5C
:101090008091D9008823B9F70E94960683E0809357
:1010A000DA001093DB000093DC00F092DD00109278
:1010B000D20085EA86BF1F910F91FF900895EF92AD
:1010C000FF920F931F93182F062FF42EE22E02C0CB
:1010D0000E94C10606B600FCFBCF8091D900882390
:1010E000B9F70E94960684E08093DA001093DB0043
:1010F0000093DC00F092DD00E092DE001092D2005E
:1011000085EA86BF1F910F91FF90EF900895DF92BF
:10111000EF92FF920F931F93182FF62EE42ED22EEC
:1011200002C00E94C10606B600FCFBCF8091D90028
:101130008823B9F70E94960685E08093DA00109321
:10114000DB00F092DC00E092DD00D092DE00009344
:10115000DF001092D20085EA86BF1F910F91FF90A9
:10116000EF90DF900895EF92FF920F931F93182F47
:10117000062FF72EE42E02C00E94C10606B600FC20
:10118000FBCF8091D9008823B9F70E949606E3949B
:10119000E092DA001093DB00802F9F2DDC01ECED54
:1011A000F0E04E2D50E04E0F5F1F02C08D918193F5
:1011B000E417F507D9F71092D20085EA86BF1F9190
:1011C0000F91FF90EF9008951F920F920FB60F921C
:1011D00011242F933F938F939F93EF93FF9381B1AC
:1011E0008832C9F0893240F4803199F0883199F021
:1011F000883009F04BC00DC0803441F1813420F4B7
:10120000883309F043C03DC08035A9F08835F1F539
:101210002BC010921B0180911B019091DA0089175D
:1012200050F5E82FF0E0E552FF4F908193B98F5FC2
:1012300080931B0117C080911B0193B1E82FF0E050
:10124000E551FF4F90838F5F80931B0120911B011D
:1012500030E08091DA0090E001972817390714F404
:1012600085EC18C085E816C083B1E0911B01F0E061
:10127000E551FF4F80838091D20081608093D2003E
:1012800008C081B18093D30085EA04C081B1809306
:10129000D30084E986BFFF91EF919F918F913F9199
:1012A0002F910F900FBE0F901F90189508950895DD
:1012B000089508950895089590936D0080936C00AB
:1012C00008959093750080937400089590936F0033
:1012D00080936E00089590936B0080936A00089548
:1012E00090937100809370000895909373008093A1
:1012F000720008958AE063E045EF54E028E10E941F
:1013000077078091F504809319058091F604809306
:101310001F058091F70480931A058091F80480934B
:101320002C058091F90480930E058091FA04809336
:101330000D059091FC0480E02091FB04820F911D2B
:1013400090932B0580932A059091FE0480E02091D4
:10135000FD04820F911D90932505809324059091A3
:10136000000580E02091FF04820F911D90931E05DF
:1013700080931D059091020580E020910105820F68
:10138000911D90932205809321059091040580E0A2
:1013900020910305820F911D9093310580933005B4
:1013A0009091060580E020910505820F911D909394
:1013B0002905809328059091080580E02091070574
:1013C000820F911D90932F0580932E0590910A0511
:1013D00080E020910905820F911D9093270580934D
:1013E000260590910C0580E020910B05820F911D40
:1013F00090931C0580931B05089580911C01882300
:1014000059F4829B09C081E080931C018AE060E06E
:1014100040E023E00E94240708950F931F93DF9379
:10142000CF9300D0CDB7DEB7882309F092C082E316
:1014300095E063E00E94A70620913205009120010B
:1014400002272093200110E0C80180769070009759
:1014500089F0822F82958695817080932005229550
:1014600026952695217020932305E0916A00F0913E
:101470006B000995C80186709070009789F0809183
:101480002001982F969591709093F40486958695F7
:10149000817080932D05E0916C00F0916D000995AD
:1014A00003FF1CC08AE06BE10E941E088AE0BE01B7
:1014B0006F5F7F4F42E00E94B907E0916E00F091AC
:1014C0006F00298130E086E0220F331F8A95E1F713
:1014D0008A8190E0282B392BC901099500FF1DC096
:1014E0008AE065E10E941E088AE0BE016F5F7F4FBF
:1014F00042E00E94B9073A8120E0898190E0822B86
:10150000932B90932F0580932E0580912001E091DD
:101510007000F0917100817009958091330580937E
:10152000A90483FF05C0E0917200F0917300099552
:1015300080913405809323018091200187FF05C0AD
:10154000E0917400F0917500099510921C0181E002
:1015500001C080E00F900F90CF91DF911F910F910C
:10156000089502C00E94C10606B600FCFBCF809120
:10157000D9008823B9F786E090E00E94BA030E9460
:10158000FD0902C00E94C10606B600FCFBCF809197
:10159000D9008823B9F708950F93282F062F8AE0E2
:1015A00060E045E00E94870802C00E94C10606B6BE
:1015B00000FCFBCF8091D9008823B9F70F910895E3
:1015C000282F8AE060E046E00E945F0802C00E9487
:1015D000C10606B600FCFBCF8091D9008823B9F77D
:1015E00008958AE060E044E00E943C080E94B10A4D
:1015F0000895DF93CF930F92CDB7DEB710920F050A
:1016000098E0909310058093110560931205509314
:101610001305409314058AE06FE075E046E02983E6
:101620000E94B3080E94B10A2981222349F004C014
:101630000E94FD090E94C1068091230180FFF8CF1E
:101640000F90CF91DF910895DF93CF930F92CDB795
:10165000DEB710920F0597E0909310058093110567
:101660006093120550931305409314058AE06FE0D0
:1016700075E046E029830E94B3080E94B10A2981DF
:10168000222349F004C00E94FD090E94C1068091F6
:10169000230180FFF8CF0F90CF91DF9108950E9432
:1016A00072110E94D31080911D0190911E0101962C
:1016B00090931E0180931D0184E66AE070E00E9411
:1016C000920308950E947B110E94D3108CE291E056
:1016D0000E94BA0380911D0190911E01FC01B3E0AC
:1016E000EE0FFF1FBA95E1F7E80FF91FEB5DFE4F14
:1016F000618142812381808190E070E050E030E0A0
:101700000E94AF118CE291E00E94BA0388E26AE085
:1017100070E00E94920386E790E00E944C05809161
:101720001D0190911E016AE00E948B058AE00E94D3
:1017300048058DE790E00E944C0580911D01909135
:101740001E01FC01A3E0EE0FFF1FAA95E1F7E80FD1
:10175000F91FEB5DFE4F8081882319F089E50E9417
:1017600048058AE00E94480585E890E00E944C0503
:1017700080911D0190911E01FC0173E0EE0FFF1F8F
:101780007A95E1F7E80FF91FEB5DFE4F8181882321
:1017900019F089E50E9448058AE00E9448058CE816
:1017A00090E00E944C0580911D0190911E01FC016A
:1017B00063E0EE0FFF1F6A95E1F7E80FF91FEB5D9D
:1017C000FE4F8281882319F089E50E9448058AE04E
:1017D0000E94480584E990E00E944C0580911D011B
:1017E00090911E01FC0153E0EE0FFF1F5A95E1F7A7
:1017F000E80FF91FEB5DFE4F8381882319F089E51F
:101800000E9448058AE00E9448058BE990E00E940A
:101810004C0580911D0190911E01FC0143E0EE0FEB
:10182000FF1F4A95E1F7E80FF91FEB5DFE4F80853A
:1018300090E06AE00E948B058AE00E94480584EAF5
:1018400090E00E944C0580911D0190911E01FC01C9
:1018500033E0EE0FFF1F3A95E1F7E80FF91FEB5D5C
:10186000FE4F848195816AE00E948B0588EA90E0B2
:101870000E944C0580911D0190911E01FC0123E006
:10188000EE0FFF1F2A95E1F7E80FF91FEB5DFE4F02
:10189000868197816AE00E948B058AE00E94480554
:1018A00008950E94DB040E94F20F0E943A0E0E94EB
:1018B0009C108091290160912B010E9441110E948E
:1018C0008D028823E1F382E0809344050895FC01B2
:1018D00080819181FB0120813181821B930B9C01CE
:1018E000B901882777FD8095982F0E9420129B01CF
:1018F000AC010E9484120E94ED11CB0162E070E005
:101900000E942313CB0108952F923F924F925F9232
:101910006F927F928F929F92AF92BF92CF92DF92FF
:10192000EF92FF920F931F93DF93CF93CDB7DEB764
:1019300060970FB6F894DEBF0FBECDBF84E065E0C0
:101940000E9431108C0183E065E00E9431107C011F
:1019500085E065E00E9431106C0182E065E00E9444
:1019600031101A830983FC82EB82DE82CD82988754
:101970008F834091B0005091B10088E262E021E095
:101980000E94240BCC24DD2418E2812E13E2912E38
:10199000AA24BB2402E010E01E010894211C311C83
:1019A00001C0470184E065E00E9431107C0183E0C2
:1019B00065E00E9431103C0185E065E00E94311035
:1019C0002C0182E065E00E943110FA86E9867C866F
:1019D0006B865E864D86988B8F87CE010996B10106
:1019E0000E94670C7C018EEB90E00E946005C701AD
:1019F0006AE00E948B058EEA90E00E944C0510166A
:101A0000110614F462E001C063E0A80117FF04C0EE
:101A100044275527401B510B88E221E00E94240BEC
:101A2000A00EB11E82EB90E00E946005C5016AE045
:101A30000E948B058EEA90E00E944C05C114D104EF
:101A400061F194012E193F09C90137FF04C08827AD
:101A50009927821B930B60E570E00E94231337FDEA
:101A600003C081E090E002C08FEF9FEF869F80016E
:101A7000879F100D969F100D11248BEA90E00E9415
:101A80006005C8016AE00E948B058EEA90E00E9422
:101A90004C058AE0E816F10444F00894C11CD11CFE
:101AA00084E6C816D10409F07CCF0A0D1B1D809175
:101AB000B0009091B100800F911F9093B10080937E
:101AC000B00082EA90E00E9460058091B0009091A1
:101AD000B1006AE00E948B058EEA90E00E944C05FE
:101AE00060960FB6F894DEBF0FBECDBFCF91DF91E9
:101AF0001F910F91FF90EF90DF90CF90BF90AF902C
:101B00009F908F907F906F905F904F903F902F901D
:101B10000895DF92EF92FF920F931F93DF93CF937D
:101B20000F92CDB7DEB70E94691113E0FF24F39442
:101B300002E078C00E945610D82E0E948C10E82E29
:101B40000E94711089830E94620B8981DD20B1F4AB
:101B500080911D0190911E01FC0143E0EE0FFF1FDB
:101B60004A95E1F7E80FF91FEB5DFE4F108680E024
:101B700090E00E9484110E943D0F46C0EE20A1F427
:101B800080911D0190911E01FC0133E0EE0FFF1FBB
:101B90003A95E1F7E80FF91FEB5DFE4F008782E011
:101BA00090E00E9484113AC08823F1F480911D01D5
:101BB00090911E01FC0123E0EE0FFF1F2A95E1F733
:101BC000E80FF91FEB5DFE4FF08681E090E00E9488
:101BD00084110E94530F80912401833019F41092D4
:101BE00024011CC08F5F18C083E090E00E94841124
:101BF0000E94690F80912401882319F41093240115
:101C000003C081508093240180912401882319F41A
:101C10001093240103C08150809324010E94450E3B
:101C20000E944F0B80911F01882309F483CF83E02A
:101C3000809344050F90CF91DF911F910F91FF90FA
:101C4000EF90DF9008951092440508958091440527
:101C5000813019F0823049F406C00E94840C82E081
:101C60008093440502C00E94890D0E94CE100E94FC
:101C7000440E089583E08093470580EA90E09093B6
:101C8000460580934505089508954F925F927F928F
:101C90008F929F92AF92BF92CF92DF92EF92FF927C
:101CA0000F931F93CF93DF9381E08093470540917B
:101CB000B2005091B3008091B40060E020E00E9437
:101CC000240B84E690E00E94BA03CC24DD24AA24ED
:101CD000BB2482E0482E512CB4C085E06AE00E940B
:101CE00031108C0182E06AE00E9431107C0184E0B6
:101CF0006AE00E943110EC0183E06AE00E9431103A
:101D00009C018091BF009091C000772473940817C4
:101D1000190708F4772441E0E816F90608F440E0D2
:101D2000F1E0C817D90708F4F0E0E1E02817390717
:101D300008F4E0E0772059F1442349F1C8018E19F5
:101D40009F096091B50070E00E9423134B01FF23AF
:101D500051F0C8018C1B9D0B6091B60070E00E9491
:101D600023135B0119C0EE2351F0C701821B930BB3
:101D70006091B60070E00E9423135B0153C0809114
:101D80004505909146055801A81AB90A4BC0FF2392
:101D900009F470C088249924EE2309F443C0CE01CD
:101DA000821B930B6091B50070E00E942313FB012E
:101DB000772061F0CE01801B910B6091B60070E03E
:101DC0000E9423136B014423A9F42EC0442351F035
:101DD000C9018E199F096091B60070E00E9423131B
:101DE0006B0122C080914505909146056E01C81A8D
:101DF000D90A1AC0C9018E0D9F1DB2010E9423137A
:101E00009B01CE01800F911FB2010E942313260F68
:101E1000371FC901B2010E942313709346056093D6
:101E2000450502C0E0E0F0E08091B4008A0C6E2F1E
:101E30006C0D680F880D0E94CC0A0E94FD090E945B
:101E4000C1068091230180FF48CF0E94F10A83E000
:101E500080934705DF91CF911F910F91FF90EF90F5
:101E6000DF90CF90BF90AF909F908F907F905F90CA
:101E70004F90089588249924D5CF82E08093470518
:101E80008091B0009091B10069E170E00E9423134D
:101E9000AB018091B40062E021E00E94F90A83E086
:101EA00080934705089582E0809347058091B000B4
:101EB0009091B10069E170E00E942313AB01809121
:101EC000B40063E021E00E94F90A83E080934705B3
:101ED000089582E0809347058091B0009091B10011
:101EE000880F991F69E170E00E942313AB01809174
:101EF000B40062E021E00E94F90A83E08093470584
:101F000008951F930E946C060E9433110E9466067A
:101F10008823E1F381E0809348050E942506182F6D
:101F20000E942506682F1092240110932901109217
:101F30002A0180932B0110922C01812F90E070E0F8
:101F40000E943A111092480588EE93E00E94BA036D
:101F50001F910895823699F0833618F48136E9F49A
:101F600005C0833631F08436C1F406C0E0E0F0E00D
:101F700008C0E2E0F0E005C0E3E0F0E002C0E1E02C
:101F8000F0E0E954FF4F413021F48081862B8083BB
:101F9000089560958081862380830895823699F024
:101FA000833618F48136E9F405C0833631F084367F
:101FB000C1F406C0E0E0F0E008C0E2E0F0E005C0F7
:101FC000E3E0F0E002C0E1E0F0E0E554FF4F413033
:101FD00021F48081862B80830895609580818623FB
:101FE000808308958AB38093B70087B38093B80045
:101FF00084B38093B90081B38093BA008BB380938C
:10200000BB0088B38093BC0085B38093BD0082B3CE
:102010008093BE000895089580914705813069F44A
:1020200080912005882349F080912305882329F099
:102030008EEB64E670E00E94920308951F93182FC0
:1020400084EC90E00E946005812F90E060E10E94A6
:102050008B058AE00E9448051F9108950E940D0A91
:102060000895EF92FF920F931F93DF93CF930F92F8
:10207000CDB7DEB7182F062FEE24FF2408C0812F1E
:1020800069830E94A701E80EF91E015069810023AF
:10209000B1F7C70170E00E940F13CB010F90CF91F1
:1020A000DF911F910F91FF90EF900895CF93DF93F1
:1020B00085E00E94A701EC0182E00E94A701282F81
:1020C000392F2C173D0708F49E0181E04091BF0095
:1020D0005091C0002417350708F480E0DF91CF91BC
:1020E0000895CF93DF9384E00E94A701EC0183E081
:1020F0000E94A701282F392F2C173D0708F49E01B5
:1021000081E04091BF005091C0002417350708F4CA
:1021100080E0DF91CF91089580912005882349F0D8
:1021200081E090E020912305222329F480E090E0D3
:10213000089580E090E008958CE090E10E946B09A2
:102140008BE090E10E945C0988E40E947E068EE1AB
:1021500090E10E9491068EE290E10E948C0688EE4A
:1021600093E00E94BA038AE060E049E022E00E9426
:102170005F0881E660E240E00E94AA0F81E660E12C
:1021800040E00E94AA0F81E668E040E00E94AA0FAA
:1021900081E664E040E00E94AA0F08950E94FD09D4
:1021A0000E94C10608950F931F930E945610082F96
:1021B0000E948C10182F0E94711090912401913070
:1021C000D1F0913030F0923041F1933009F048C0B5
:1021D00036C020911D0130911E01F90163E0EE0F20
:1021E000FF1F6A95E1F7E20FF31FEB5DFE4F0383DC
:1021F0001083818335C020911D0130911E01F901AA
:1022000053E0EE0FFF1F5A95E1F7E20FF31FEB5D6E
:10221000FE4F00831183828323C020911D013091E2
:102220001E01F90143E0EE0FFF1F4A95E1F7E20FAF
:10223000F31FEB5DFE4F01831283838311C0209156
:102240001D0130911E01F90193E0EE0FFF1F9A95D9
:10225000E1F7E20FF31FEB5DFE4F028313838083F0
:102260001F910F9108958BE791E061E771E00E9463
:10227000C404089587E691E066E671E00E94C40414
:10228000089589E591E068E571E00E94C40408952D
:102290000F931F93082F162F0E94BC048FE491E028
:1022A0006EE471E00E94C40481E063E00E94A70430
:1022B000802F90E06AE00E94410481E06AE00E9481
:1022C000A704812F90E06AE00E9441041F910F91C2
:1022D00008950E94BC048EE391E066E371E00E94E1
:1022E000C40408950E94BC0488E291E067E271E0B2
:1022F0000E94C40408950E94BC048AE191E069E14F
:1023000071E00E94C4040895DF93CF930F92CDB77C
:10231000DEB789830E94BC048981813089F08130D5
:1023200028F0823041F08330B1F40FC08CE091E0AE
:102330006BE071E00EC08CEF90E06BEF70E009C0D5
:102340008DEE90E06CEE70E004C080EE90E06FEDFA
:1023500070E00E94C4040F90CF91DF910895FF9226
:102360000F931F93DF93CF930F92CDB7DEB7162F46
:10237000042FF22E89830E94BC048981882341F0B6
:1023800080E068E00E94A70481EC90E00E942D04A8
:10239000112341F081E060E00E94A70483EC90E00B
:1023A0000E942D04002341F081E068E00E94A70410
:1023B00085EC90E00E942D04FF2041F081E06FE069
:1023C0000E94A70487EC90E00E942D040F90CF910B
:1023D000DF911F910F91FF90089504D06894B1117F
:1023E0008DC0089570D088F09F5790F0B92F99272D
:1023F000B751A0F0D1F0660F771F881F991F1AF010
:10240000BA95C9F712C0B13081F077D0B1E0089524
:1024100074C0672F782F8827B85F39F0B93FCCF3A5
:10242000869577956795B395D9F73EF49095809505
:10243000709561957F4F8F4F9F4F0895E89409C025
:1024400097FB3EF490958095709561957F4F8F4FE7
:102450009F4F9923A9F0F92F96E9BB279395F695FD
:10246000879577956795B795F111F8CFFAF4BB0F7B
:1024700011F460FF1BC06F5F7F4F8F4F9F4F16C0DF
:10248000882311F096E911C0772321F09EE8872F69
:10249000762F05C0662371F096E8862F70E060E025
:1024A0002AF09A95660F771F881FDAF7880F96959E
:1024B000879597F9089557FD9058440F551F59F087
:1024C0005F3F71F04795880F97FB991F61F09F3F21
:1024D00079F087950895121613061406551FF2CF4A
:1024E0004695F1DF08C0161617061806991FF1CF9A
:1024F00086957105610508940895E894BB276627C1
:102500007727CB0197F908950BD078C069D028F0D0
:102510006ED018F0952309F05AC05FC01124EECF99
:10252000CADFA0F3959FD1F3950F50E0551F629F2E
:10253000F001729FBB27F00DB11D639FAA27F00D1C
:10254000B11DAA1F649F6627B00DA11D661F829F43
:102550002227B00DA11D621F739FB00DA11D621F28
:10256000839FA00D611D221F749F3327A00D611D45
:10257000231F849F600D211D822F762F6A2F112427
:102580009F5750408AF0E1F088234AF0EE0FFF1F7A
:10259000BB1F661F771F881F91505040A9F79E3FB1
:1025A000510570F014C0AACF5F3FECF3983EDCF306
:1025B000869577956795B795F795E7959F5FC1F7EE
:1025C000FE2B880F911D9695879597F9089597F999
:1025D0009F6780E870E060E008959FEF80EC0895C9
:1025E00000240A94161617061806090608950024F2
:1025F0000A9412161306140605060895092E03946C
:10260000000C11F4882352F0BB0F40F4BF2B11F4DF
:1026100060FF04C06F5F7F4F8F4F9F4F0895AA1BCD
:10262000BB1B51E107C0AA1FBB1FA617B70710F0BD
:10263000A61BB70B881F991F5A95A9F780959095EF
:10264000BC01CD01089597FB092E07260AD077FD1E
:1026500004D0E5DF06D000201AF4709561957F4F15
:102660000895F6F7909581959F4F0895FB019F017E
:10267000E8944230C4F04532B4F44A3029F497FB70
:102680001EF4909581959F4F642F77270E940F131A
:10269000805D8A330CF0895D8193CB010097A1F7AF
:1026A00016F45DE251931082C9010C945713DC01BA
:1026B000FC01672F71917723E1F7329704C07C9179
:1026C0006D9370836291AE17BF07C8F30895F894B5
:0226D000FFCF3A
:1026D2002201210120017C067D065909560958096B
:1026E2005A095B0957090A43454C4C3A004E6F722E
:1026F20074683A2000456173743A2000536F757410
:10270200683A2000576573743A2000416374696F18
:102712006E3A2000583A20002C20593A20000A0034
:10272200B00908072804800B0000000B00000078A5
:0A273200004E004500530057000060
:00000001FF
