:100000000C9461000C94DA000C9407010C943401F8
:100010000C947E000C947E000C947E000C947E0068
:100020000C947E000C947E000C94D9030C947E00FA
:100030000C947E000C945D050C947E000C947E0064
:100040000C947E000C947E000C947E000C94F708B7
:100050000C947E004779726F73636F706500535024
:10006000492D4D61737465720023232323232323B9
:100070002323232323232323230023232323232373
:1000800023232323232323232323000A0A52503626
:1000900020434F4E54524F4C204D33322053504941
:1000A000204779726F73636F7065204D6F64756C54
:1000B0006520546573742050726F6772616D210AF8
:1000C000000011241FBECFE5D8E0DEBFCDBF10E099
:1000D000A0E6B0E0E0E6F3E102C005900D92AA369A
:1000E000B107D9F710E0AAE6B0E001C01D92A13F28
:1000F000B107E1F70E948E000C94AE090C94000049
:10010000C1980895C19A0895C1980E947501C19A35
:100110000895699A70980E94840008950E94B80416
:100120000E9479028BE890E00E9444050E948900B9
:1001300084EB60E570E00E94790489E690E00E941B
:10014000A3048CED60E570E00E94790489E690E0FC
:100150000E94A3048FE00E9438028AE790E069E6DB
:1001600070E00E94380384EF91E00E94A3048EE5C2
:1001700090E064E570E00E94380388EE93E00E940E
:10018000A30480E00E94380284E60E9496040E9444
:10019000840096958795969587956AE00E94D40588
:1001A0008AE00E943605F0CF089590936500809311
:1001B000640008951F920F920FB60F9211242F938F
:1001C0003F934F935F936F937F938F939F93AF93DF
:1001D000BF93EF93FF93E0916400F0916500099560
:1001E000FF91EF91BF91AF919F918F917F916F910F
:1001F0005F914F913F912F910F900FBE0F901F90E5
:1002000018950895909363008093620008951F925B
:100210000F920FB60F9211242F933F934F935F933A
:100220006F937F938F939F93AF93BF93EF93FF93BE
:10023000E0916200F09163000995FF91EF91BF9109
:10024000AF919F918F917F916F915F914F913F916E
:100250002F910F900FBE0F901F90189508959093B7
:1002600061008093600008951F920F920FB60F9265
:1002700011242F933F934F935F936F937F938F93AB
:100280009F93AF93BF93EF93FF93E0916000F09142
:1002900061000995FF91EF91BF91AF919F918F916F
:1002A0007F916F915F914F913F912F910F900FBE72
:1002B0000F901F901895369B03C020E030E009C0D6
:1002C000806487B986ED86B93699FECF349A24B119
:1002D00035B1C90108958FB9779BFECF08958FEF8F
:1002E0008FB9779BFECF8FB108958FEF8FB9779B32
:1002F000FECF3FB18FEF8FB9779BFECF2FB1932FFA
:1003000080E030E0282B392BC90108959FB9779BF5
:10031000FECF8FB9779BFECF0895FC0190E006C019
:1003200080818FB9779BFECF9F5F31969617C0F380
:100330000895FC0190E02FEF06C02FB9779BFECF08
:100340008FB181939F5F9617C0F308959C01C09869
:1003500083E08FB9779BFECFC9010E9486018FEFA2
:100360008FB9779BFECF8FB1C09A08951F93CF931B
:10037000DF939C01EB01142FC09883E08FB9779B2A
:10038000FECFC9010E948601CE01612F0E94990112
:10039000C09ADF91CF911F910895C09886E08FB9E0
:1003A000779BFECFC09A0895C09884E08FB9779B61
:1003B000FECFC09A0895C09885E08FB9779BFECF95
:1003C0008FEF8FB9779BFECF8FB1C09A0895FF92C0
:1003D0000F931F93CF93DF93EC01162F072FF42E6B
:1003E0000E94DB0180FDFCCF0E94CD01C09882E01D
:1003F0008FB9779BFECFCE010E948601812F902F6F
:100400009C01F90190E006C080818FB9779BFECFF7
:100410009F5F31969F15C0F3C09ADF91CF911F91D6
:100420000F91FF9008951F93CF93DF93EC01162F48
:100430000E94DB0180FDFCCF0E94CD01C09882E0CC
:100440008FB9779BFECFCE010E9486011FB9779BA3
:10045000FECFC09ADF91CF911F9108958091D9006E
:100460008FB9779BFECF949A00000000949808956E
:100470008F709091D900907F982B9093D9000E9413
:100480002E0208958295807F9091D9009F70982BBD
:100490009093D9000E942E02C49A82E390E001C09A
:1004A000000001972FEF8F3F9207D1F7C49808956E
:1004B0001F93182F82958F700E944202812F0E94F5
:1004C000420286E990E001C0000001972FEF8F3FC4
:1004D0009207D1F71F910895C3980E94580286E9A8
:1004E00090E001C0000001972FEF8F3F9207D1F7F6
:1004F000089583E00E94420280E596E401C0000076
:1005000001972FEF8F3F9207D1F783E00E944202BD
:100510008CE795E101C0000001972FEF8F3F920714
:10052000D1F783E00E9442028CE795E101C0000010
:1005300001972FEF8F3F9207D1F782E00E9442028E
:100540008CE795E101C0000001972FEF8F3F9207E4
:10055000D1F788E20E946C028CE795E101C00000AF
:1005600001972FEF8F3F9207D1F788E00E946C022E
:100570008CE795E101C0000001972FEF8F3F9207B4
:10058000D1F781E00E946C028CE795E101C0000088
:1005900001972FEF8F3F9207D1F782E00E946C0204
:1005A0008CE795E101C0000001972FEF8F3F920784
:1005B000D1F78CE00E946C028CE795E101C000004D
:1005C00001972FEF8F3F9207D1F7089581E00E94A6
:1005D0006C028CE795E101C0000001972FEF8F3F7F
:1005E0009207D1F70895C39A0E94580282E390E0DF
:1005F00001C0000001972FEF8F3F9207D1F70895B8
:10060000CF93DF93EC0102C00E94F302FE0121961A
:1006100084918823C9F7DF91CF910895CF93DF9319
:10062000EC0103C021960E94F30288818823D1F750
:10063000DF91CF9108951F93CF93DF93162FEC0195
:10064000C40FD11D04C021960E94F302115088816D
:10065000882311F01123B9F7DF91CF911F910895ED
:100660006068813009F4605C862F0E946C020895F6
:10067000EF92FF920F931F938C017B010E94E60281
:10068000C8010E94000381E060E00E943003C701BE
:100690000E9400031F910F91FF90EF9008951F9308
:1006A000142F0E94300304C080E20E94F302115014
:1006B0001123D1F71F910895CF93DF9381E00E941A
:1006C0005B01EC0183E0CC3FD80778F40000000028
:1006D000000081E00E945B01C80FD91FD695C79525
:1006E000C233D10510F481E018C082E0C434D807C9
:1006F00010F482E012C082E0CC3BD80710F483E013
:100700000CC083E0C631D80710F484E006C0CE5395
:10071000D34010F080E001C085E0DF91CF910895D3
:1007200080916B00882341F00E945C03882311F4C0
:1007300010926B0080E008950E945C0380936B0030
:1007400008951F9310916A00112349F00E945C03E1
:10075000882311F010E007C010926A0004C00E94C4
:100760005C0380936A00812F1F910895D09AD898D6
:1007700021E030E007C01092DA008091DA0090E0CA
:100780000C97DCF3215030408FEF2F3F380799F75B
:10079000D0980895CF93DF9380E00E945B01EC0135
:1007A0008530910510F00E94B603CE01DF91CF9104
:1007B00008951F920F920FB60F9211248F939F935B
:1007C0008091DA008F5F8093DA008091DB008F5F89
:1007D0008093DB0081508A3008F484C08091C80087
:1007E00080FF09C08091C9009091CA000196909342
:1007F000CA008093C9008091C80081FF09C0809120
:10080000CB009091CC0001969093CC008093CB00CC
:100810008091C80082FF09C08091CD009091CE00E8
:1008200001969093CE008093CD008091C80083FF05
:1008300009C08091CF009091D00001969093D00094
:100840008093CF008091C80084FF09C08091D100BF
:100850009091D20001969093D2008093D100809124
:10086000C80085FF09C08091D3009091D400019603
:100870009093D4008093D3008091C80086FF09C074
:100880008091D5009091D60001969093D6008093E8
:10089000D5008091C80087FF09C08091D700909152
:1008A000D80001969093D8008093D7008091B6002D
:1008B00080FF16C08091DC009091DD00892B39F417
:1008C00015BC8091B6008E7F8093B60009C08091E0
:1008D000DC009091DD0001979093DD008093DC00B7
:1008E0001092DB009F918F910F900FBE0F901F9081
:1008F00018959091B60091609093B6007093DD00CA
:100900006093DC00809583BD8EE185BD0895909154
:10091000B6009E7F9093B600982F909593BD882344
:1009200019F08EE185BD089515BC08951092DA0086
:10093000282F30E02F5F3F4F8091DA0090E028179A
:100940003907D4F708959C0109C01092DA0080910C
:10095000DA0090E00C97DCF321503040211531058E
:10096000A1F7089502C0000001970097E1F70895EC
:100970001BBA87E088BB8CEF85BB80E682BB1ABAC6
:100980008BEB87BB14BA82E981BBF89410BC89E178
:1009900089B91BB886E880BD88E98AB917B886E1AD
:1009A00086B910BE8FE085BF1BBE14BE8AE083BF30
:1009B00087EC8CBF15BC8FEF83BD82E089BF80E5DB
:1009C0008DB981E08EB9789408950F931F93462FC7
:1009D00007EB10E0B80150E00E946909C8010E94CD
:1009E0000E031F910F910895EF92FF920F931F93A3
:1009F000DF93CF93CDB7DEB761970FB6F894DEBF24
:100A00000FBECDBF262F042F7E010894E11CF11CE0
:100A1000B701422F50E00E946909F70101900020C0
:100A2000E9F73197EE19FF09102F1E1B11165CF420
:100A3000115080E30E94F3021123D1F7CE010196F9
:100A40000E940E0306C01195C701602F412F0E941E
:100A50001B0361960FB6F894DEBF0FBECDBFCF91DA
:100A6000DF911F910F91FF90EF9008955D9BFECF56
:100A70008CB90895FC0104C05D9BFECF31968CB902
:100A800080818823C9F7089503C05D9BFECF2CB9F0
:100A9000FC01019624912223C1F70895FC01E40F83
:100AA000F11D05C05D9BFECF31968CB961508081F0
:100AB000882311F06623B1F708951F920F920FB6A5
:100AC0000F9211248F939F93EF93FF93DF93CF9314
:100AD0000F92CDB7DEB78CB189838091DE00882379
:100AE00091F49091E000E92FF0E08981EF51FF4F00
:100AF00080839F5F9093E0008091DF00981718F04B
:100B000082E08093DE000F90CF91DF91FF91EF9113
:100B10009F918F910F900FBE0F901F90189510927C
:100B2000E0008093DF001092DE0008958091DE00E7
:100B30008823E1F30895AC0120E00AC0E22FF0E041
:100B4000DF01AF51BF4F8C91E40FF51F80832F5F02
:100B50008091DF00281790F381E08093DE000895F4
:100B60001092DF0081E08093DE0008951092E00093
:100B70008093DF001092DE008091DE008823E1F395
:100B800090E00AC0E92FF0E0DF01AF51BF4F8C9138
:100B9000E60FF71F80839F5F8091DF00981790F327
:100BA00081E08093DE0008950F931F93DF93CF932E
:100BB000CDB7DEB761970FB6F894DEBF0FBECDBFDD
:100BC000462F8E010F5F1F4FB80150E00E94690948
:100BD000C8010E943A0561960FB6F894DEBF0FBEB9
:100BE000CDBFCF91DF911F910F910895FF920F9389
:100BF0001F93DF93CF93CDB7DEB761970FB6F8940D
:100C0000DEBF0FBECDBF262FF42E8E010F5F1F4F0C
:100C1000B801422F50E00E946909F80101900020BC
:100C2000E9F73197E01BF10B4F2D4E1B141664F4BE
:100C300080E341505D9BFECF8CB94423D1F7CE01B8
:100C400001960E943A0505C04195C8016F2D0E948A
:100C50004E0561960FB6F894DEBF0FBECDBFCF91A3
:100C6000DF911F910F91FF900895F89480B911B80A
:100C70008FEF83B984E086BF80916C0081608093A0
:100C80006C007894089508959093670080936600AF
:100C90000895089590936900809368000895DF9304
:100CA000CF930F92CDB7DEB786E9898389818150D2
:100CB00089838F5FD9F70F90CF91DF910895DF93EC
:100CC000CF930F92CDB7DEB706B600FC6EC0809111
:100CD0006C0080FF4EC080917300882309F465C0CA
:100CE0008130C9F486E989838981815089838F5F46
:100CF000D9F792E09093B50080916E0080937500D3
:100D000080916F008093760010926C0085EA86BF18
:100D1000909373004AC08230D9F486E9898389812F
:100D2000815089838F5FD9F7809170008F5F8093A6
:100D3000B50080916E00816080936E008093750095
:100D400010926C0085EA86BF83E0809373002DC00B
:100D5000833059F510927300809171009091720068
:100D60002FEF8F3F920709F1E0916600F091670045
:100D70001BC006B600FCFDCF90916D009923A9F031
:100D80001092730080916C00816080936C001092CF
:100D90006E00109272001092710010927000E0913B
:100DA0006800F0916900892F09950F90CF91DF912C
:100DB0000895FF920F931F93182F062FF42E02C051
:100DC0000E945F0606B600FCFBCF8091730088236B
:100DD000B9F782E08093730010936E000093710066
:100DE00010927200F09270001F910F91FF90089581
:100DF000EF92FF920F931F93E82E162F042FF22EDF
:100E000002C00E945F0606B600FCFBCF8091730013
:100E10008823B9F781E080937300109371001092DA
:100E20007200E0926E0000936F00F09270001F91CC
:100E30000F91FF90EF9008959C0106B600FCFDCF46
:100E400080916C0080FF0CC0E6E8F0E0D90170E012
:100E50006E0F7F1F02C081918D93E617F707D9F7B8
:100E6000089506B600FCFDCF80916D000895FF92B5
:100E70000F931F93CF93DF93082FF62EEA01122FC3
:100E800002C00E945F0606B600FCFBCF8091730093
:100E90008823B9F781E08093730000936E008FEF91
:100EA0009FEF9093720080937100F0926F00109307
:100EB000700002C00E945F0606B600FCFBCF809166
:100EC00073008823B9F780916C0080FF05C01F5F15
:100ED000CE01612F0E941C07DF91CF911F910F91CE
:100EE000FF900895EF92FF920F931F93DF93CF939C
:100EF0000F92CDB7DEB7082F7B01142F02C00E94DE
:100F00005F0606B600FCFBCF809173008823B9F71B
:100F100086E989838981815089838F5FD9F782E04F
:100F20008093730000936E008FEF9FEF9093720099
:100F3000809371001093700002C00E945F0606B695
:100F400000FCFBCF809173008823B9F780916C007F
:100F500080FF05C01F5FC701612F0E941C070F9013
:100F6000CF91DF911F910F91FF90EF9008951F9304
:100F7000DF93CF930F92CDB7DEB7182F02C00E9438
:100F80005F0606B600FCFBCF809173008823B9F79B
:100F900086E989838981815089838F5FD9F782E0CF
:100FA0008093730010936E008FEF9FEF9093720009
:100FB0008093710081E08093700002C00E945F0600
:100FC000809173008823D1F780916C0080FD02C06E
:100FD00080E002C0809186000F90CF91DF911F9139
:100FE00008950F931F93DF93CF930F92CDB7DEB782
:100FF000182F062F02C00E945F0606B600FCFBCF2A
:10100000809173008823B9F786E9898389818150AB
:1010100089838F5FD9F782E08093B50010937500C4
:101020000093760010926C0085EA86BF0F90CF91F6
:10103000DF911F910F910895FF920F931F93DF93FC
:10104000CF930F92CDB7DEB7182F062FF42E02C024
:101050000E945F0606B600FCFBCF809173008823D8
:10106000B9F786E989838981815089838F5FD9F7B0
:1010700083E08093B5001093750000937600F092A2
:10108000770010926C0085EA86BF0F90CF91DF91B8
:101090001F910F91FF900895EF92FF920F931F936E
:1010A000DF93CF930F92CDB7DEB7182F062FF42E14
:1010B000E22E02C00E945F0606B600FCFBCF8091C4
:1010C00073008823B9F786E98983898181508983F0
:1010D0008F5FD9F784E08093B5001093750000937B
:1010E0007600F0927700E092780010926C0085EA2A
:1010F00086BF0F90CF91DF911F910F91FF90EF90DE
:101100000895DF92EF92FF920F931F93DF93CF9397
:101110000F92CDB7DEB7182FF62EE42ED22E02C0D6
:101120000E945F0606B600FCFBCF80917300882307
:10113000B9F786E989838981815089838F5FD9F7DF
:1011400085E08093B50010937500F0927600E092F0
:101150007700D09278000093790010926C0085EAB5
:1011600086BF0F90CF91DF911F910F91FF90EF906D
:10117000DF900895EF92FF920F931F93DF93CF9329
:101180000F92CDB7DEB7082FF62EE72E142F02C030
:101190000E945F0606B600FCFBCF80917300882397
:1011A000B9F786E989838981815089838F5FD9F76F
:1011B000412F4F5F4093B50000937500A6E7B0E064
:1011C0008F2D9E2D9C01F90102C081918D938E2F50
:1011D0008F198417D0F310926C0085EA86BF0F90A8
:1011E000CF91DF911F910F91FF90EF9008951F9283
:1011F0000F920FB60F9211242F933F938F939F93CB
:10120000EF93FF9381B18832C9F0893240F4803185
:1012100099F0883199F0883009F04BC00DC08034C6
:1012200041F1813420F4883309F043C03DC080355A
:10123000A9F08835F1F52BC01092740090917400DC
:101240008091B500981750F5E92FF0E0EB58FF4F6B
:10125000808183B99F5F9093740017C08091740060
:1012600093B1E82FF0E0EB57FF4F90838F5F8093AF
:1012700074002091740030E08091B50090E00197F7
:101280002817390714F485EC18C085E816C083B117
:10129000E0917400F0E0EB57FF4F808380916C0089
:1012A000816080936C0008C081B180936D0085EAF5
:1012B00004C081B180936D0084E986BFFF91EF91F6
:1012C0009F918F913F912F910F900FBE0F901F9084
:1012D0001895FB019F01E8944230C4F04532B4F404
:1012E0004A3029F497FB1EF4909581959F4F642F07
:1012F00077270E949A09805D8A330CF0895D81937B
:10130000CB010097A1F716F45DE251931082C90159
:101310000C948A09DC01FC01672F71917723E1F7B6
:10132000329704C07C916D9370836291AE17BF07B2
:10133000C8F30895AA1BBB1B51E107C0AA1FBB1F1E
:10134000A617B70710F0A61BB70B881F991F5A9551
:10135000A9F780959095BC01CD010895F894FFCF31
:0A1360002E010101D40043064906E6
:00000001FF
